{
	"contracts/Todo.sol": {
		"Todo": {
			"abi": [
				{
					"anonymous": false,
					"inputs": [
						{
							"indexed": true,
							"internalType": "address",
							"name": "wallet",
							"type": "address"
						},
						{
							"indexed": true,
							"internalType": "uint256",
							"name": "taskId",
							"type": "uint256"
						}
					],
					"name": "AddTask",
					"type": "event"
				},
				{
					"anonymous": false,
					"inputs": [
						{
							"indexed": true,
							"internalType": "uint256",
							"name": "taskId",
							"type": "uint256"
						},
						{
							"indexed": true,
							"internalType": "bool",
							"name": "isDone",
							"type": "bool"
						}
					],
					"name": "CompleteTask",
					"type": "event"
				},
				{
					"anonymous": false,
					"inputs": [
						{
							"indexed": true,
							"internalType": "uint256",
							"name": "taskId",
							"type": "uint256"
						},
						{
							"indexed": true,
							"internalType": "bool",
							"name": "isDeleted",
							"type": "bool"
						}
					],
					"name": "DeleteTask",
					"type": "event"
				},
				{
					"anonymous": false,
					"inputs": [
						{
							"indexed": true,
							"internalType": "uint256",
							"name": "taskId",
							"type": "uint256"
						},
						{
							"indexed": true,
							"internalType": "bool",
							"name": "isChanged",
							"type": "bool"
						}
					],
					"name": "ModifyTask",
					"type": "event"
				},
				{
					"inputs": [
						{
							"internalType": "string",
							"name": "_text",
							"type": "string"
						},
						{
							"internalType": "bool",
							"name": "_isDone",
							"type": "bool"
						},
						{
							"internalType": "bool",
							"name": "_isDeleted",
							"type": "bool"
						}
					],
					"name": "addTask",
					"outputs": [],
					"stateMutability": "nonpayable",
					"type": "function"
				},
				{
					"inputs": [],
					"name": "getTask",
					"outputs": [
						{
							"components": [
								{
									"internalType": "uint256",
									"name": "id",
									"type": "uint256"
								},
								{
									"internalType": "string",
									"name": "text",
									"type": "string"
								},
								{
									"internalType": "bool",
									"name": "isDone",
									"type": "bool"
								},
								{
									"internalType": "bool",
									"name": "isDeleted",
									"type": "bool"
								},
								{
									"internalType": "uint256",
									"name": "modifiedCount",
									"type": "uint256"
								}
							],
							"internalType": "struct Todo.Task[]",
							"name": "",
							"type": "tuple[]"
						}
					],
					"stateMutability": "view",
					"type": "function"
				}
			],
			"devdoc": {
				"kind": "dev",
				"methods": {},
				"version": 1
			},
			"evm": {
				"assembly": "    /* \"contracts/Todo.sol\":58:1672  contract Todo {... */\n  mstore(0x40, 0x80)\n  callvalue\n  dup1\n  iszero\n  tag_1\n  jumpi\n  0x00\n  dup1\n  revert\ntag_1:\n  pop\n  dataSize(sub_0)\n  dup1\n  dataOffset(sub_0)\n  0x00\n  codecopy\n  0x00\n  return\nstop\n\nsub_0: assembly {\n        /* \"contracts/Todo.sol\":58:1672  contract Todo {... */\n      mstore(0x40, 0x80)\n      callvalue\n      dup1\n      iszero\n      tag_1\n      jumpi\n      0x00\n      dup1\n      revert\n    tag_1:\n      pop\n      jumpi(tag_2, lt(calldatasize, 0x04))\n      shr(0xe0, calldataload(0x00))\n      dup1\n      0x8a7abe76\n      eq\n      tag_3\n      jumpi\n      dup1\n      0xa31662d2\n      eq\n      tag_4\n      jumpi\n    tag_2:\n      0x00\n      dup1\n      revert\n        /* \"contracts/Todo.sol\":667:979  function addTask(... */\n    tag_3:\n      tag_5\n      0x04\n      dup1\n      calldatasize\n      sub\n      dup2\n      add\n      swap1\n      tag_6\n      swap2\n      swap1\n      tag_7\n      jump\t// in\n    tag_6:\n      tag_8\n      jump\t// in\n    tag_5:\n      stop\n        /* \"contracts/Todo.sol\":1003:1649  function getTask() external view returns (Task[] memory) {... */\n    tag_4:\n      tag_9\n      tag_10\n      jump\t// in\n    tag_9:\n      mload(0x40)\n      tag_11\n      swap2\n      swap1\n      tag_12\n      jump\t// in\n    tag_11:\n      mload(0x40)\n      dup1\n      swap2\n      sub\n      swap1\n      return\n        /* \"contracts/Todo.sol\":667:979  function addTask(... */\n    tag_8:\n        /* \"contracts/Todo.sol\":787:801  uint256 taskId */\n      0x00\n        /* \"contracts/Todo.sol\":804:809  tasks */\n      dup1\n        /* \"contracts/Todo.sol\":804:816  tasks.length */\n      dup1\n      sload\n      swap1\n      pop\n        /* \"contracts/Todo.sol\":787:816  uint256 taskId = tasks.length */\n      swap1\n      pop\n        /* \"contracts/Todo.sol\":826:831  tasks */\n      0x00\n        /* \"contracts/Todo.sol\":837:880  Task(taskId, _text, _isDone, _isDeleted, 0) */\n      mload(0x40)\n      dup1\n      0xa0\n      add\n      0x40\n      mstore\n      dup1\n        /* \"contracts/Todo.sol\":842:848  taskId */\n      dup4\n        /* \"contracts/Todo.sol\":837:880  Task(taskId, _text, _isDone, _isDeleted, 0) */\n      dup2\n      mstore\n      0x20\n      add\n        /* \"contracts/Todo.sol\":850:855  _text */\n      dup8\n      dup8\n        /* \"contracts/Todo.sol\":837:880  Task(taskId, _text, _isDone, _isDeleted, 0) */\n      dup1\n      dup1\n      0x1f\n      add\n      0x20\n      dup1\n      swap2\n      div\n      mul\n      0x20\n      add\n      mload(0x40)\n      swap1\n      dup2\n      add\n      0x40\n      mstore\n      dup1\n      swap4\n      swap3\n      swap2\n      swap1\n      dup2\n      dup2\n      mstore\n      0x20\n      add\n      dup4\n      dup4\n      dup1\n      dup3\n      dup5\n      calldatacopy\n      0x00\n      dup2\n      dup5\n      add\n      mstore\n      not(0x1f)\n      0x1f\n      dup3\n      add\n      and\n      swap1\n      pop\n      dup1\n      dup4\n      add\n      swap3\n      pop\n      pop\n      pop\n      pop\n      pop\n      pop\n      pop\n      dup2\n      mstore\n      0x20\n      add\n        /* \"contracts/Todo.sol\":857:864  _isDone */\n      dup6\n        /* \"contracts/Todo.sol\":837:880  Task(taskId, _text, _isDone, _isDeleted, 0) */\n      iszero\n      iszero\n      dup2\n      mstore\n      0x20\n      add\n        /* \"contracts/Todo.sol\":866:876  _isDeleted */\n      dup5\n        /* \"contracts/Todo.sol\":837:880  Task(taskId, _text, _isDone, _isDeleted, 0) */\n      iszero\n      iszero\n      dup2\n      mstore\n      0x20\n      add\n        /* \"contracts/Todo.sol\":878:879  0 */\n      0x00\n        /* \"contracts/Todo.sol\":837:880  Task(taskId, _text, _isDone, _isDeleted, 0) */\n      dup2\n      mstore\n      pop\n        /* \"contracts/Todo.sol\":826:881  tasks.push(Task(taskId, _text, _isDone, _isDeleted, 0)) */\n      swap1\n      dup1\n      0x01\n      dup2\n      sload\n      add\n      dup1\n      dup3\n      sstore\n      dup1\n      swap2\n      pop\n      pop\n      0x01\n      swap1\n      sub\n      swap1\n      0x00\n      mstore\n      keccak256(0x00, 0x20)\n      swap1\n      0x04\n      mul\n      add\n      0x00\n      swap1\n      swap2\n      swap1\n      swap2\n      swap1\n      swap2\n      pop\n      0x00\n      dup3\n      add\n      mload\n      dup2\n      0x00\n      add\n      sstore\n      0x20\n      dup3\n      add\n      mload\n      dup2\n      0x01\n      add\n      swap1\n      dup2\n      tag_15\n      swap2\n      swap1\n      tag_16\n      jump\t// in\n    tag_15:\n      pop\n      0x40\n      dup3\n      add\n      mload\n      dup2\n      0x02\n      add\n      exp(0x0100, 0x00)\n      dup2\n      sload\n      dup2\n      0xff\n      mul\n      not\n      and\n      swap1\n      dup4\n      iszero\n      iszero\n      mul\n      or\n      swap1\n      sstore\n      pop\n      0x60\n      dup3\n      add\n      mload\n      dup2\n      0x02\n      add\n      exp(0x0100, 0x01)\n      dup2\n      sload\n      dup2\n      0xff\n      mul\n      not\n      and\n      swap1\n      dup4\n      iszero\n      iszero\n      mul\n      or\n      swap1\n      sstore\n      pop\n      0x80\n      dup3\n      add\n      mload\n      dup2\n      0x03\n      add\n      sstore\n      pop\n      pop\n        /* \"contracts/Todo.sol\":919:929  msg.sender */\n      caller\n        /* \"contracts/Todo.sol\":891:908  taskOwnerByTaskId */\n      0x01\n        /* \"contracts/Todo.sol\":891:916  taskOwnerByTaskId[taskId] */\n      0x00\n        /* \"contracts/Todo.sol\":909:915  taskId */\n      dup4\n        /* \"contracts/Todo.sol\":891:916  taskOwnerByTaskId[taskId] */\n      dup2\n      mstore\n      0x20\n      add\n      swap1\n      dup2\n      mstore\n      0x20\n      add\n      0x00\n      keccak256\n      0x00\n        /* \"contracts/Todo.sol\":891:929  taskOwnerByTaskId[taskId] = msg.sender */\n      0x0100\n      exp\n      dup2\n      sload\n      dup2\n      0xffffffffffffffffffffffffffffffffffffffff\n      mul\n      not\n      and\n      swap1\n      dup4\n      0xffffffffffffffffffffffffffffffffffffffff\n      and\n      mul\n      or\n      swap1\n      sstore\n      pop\n        /* \"contracts/Todo.sol\":965:971  taskId */\n      dup1\n        /* \"contracts/Todo.sol\":953:963  msg.sender */\n      caller\n        /* \"contracts/Todo.sol\":945:972  AddTask(msg.sender, taskId) */\n      0xffffffffffffffffffffffffffffffffffffffff\n      and\n      0x1f54e1ba1832d428fbd7e7792beaf62b1fc5a382c207ffd614209c1413e94fda\n      mload(0x40)\n      mload(0x40)\n      dup1\n      swap2\n      sub\n      swap1\n      log3\n        /* \"contracts/Todo.sol\":777:979  {... */\n      pop\n        /* \"contracts/Todo.sol\":667:979  function addTask(... */\n      pop\n      pop\n      pop\n      pop\n      jump\t// out\n        /* \"contracts/Todo.sol\":1003:1649  function getTask() external view returns (Task[] memory) {... */\n    tag_10:\n        /* \"contracts/Todo.sol\":1045:1058  Task[] memory */\n      0x60\n        /* \"contracts/Todo.sol\":1070:1103  Task[] memory pendingTasksOfOwner */\n      0x00\n        /* \"contracts/Todo.sol\":1117:1122  tasks */\n      dup1\n        /* \"contracts/Todo.sol\":1117:1129  tasks.length */\n      dup1\n      sload\n      swap1\n      pop\n        /* \"contracts/Todo.sol\":1106:1130  new Task[](tasks.length) */\n      0xffffffffffffffff\n      dup2\n      gt\n      iszero\n      tag_18\n      jumpi\n      tag_19\n      tag_20\n      jump\t// in\n    tag_19:\n    tag_18:\n      mload(0x40)\n      swap1\n      dup1\n      dup3\n      mstore\n      dup1\n      0x20\n      mul\n      0x20\n      add\n      dup3\n      add\n      0x40\n      mstore\n      dup1\n      iszero\n      tag_21\n      jumpi\n      dup2\n      0x20\n      add\n    tag_22:\n      tag_23\n      tag_24\n      jump\t// in\n    tag_23:\n      dup2\n      mstore\n      0x20\n      add\n      swap1\n      0x01\n      swap1\n      sub\n      swap1\n      dup2\n      tag_22\n      jumpi\n      swap1\n      pop\n    tag_21:\n      pop\n        /* \"contracts/Todo.sol\":1070:1130  Task[] memory pendingTasksOfOwner = new Task[](tasks.length) */\n      swap1\n      pop\n        /* \"contracts/Todo.sol\":1140:1153  uint256 index */\n      0x00\n        /* \"contracts/Todo.sol\":1173:1182  uint256 i */\n      dup1\n        /* \"contracts/Todo.sol\":1168:1447  for (uint256 i = 0; i < tasks.length; i++) {... */\n    tag_25:\n        /* \"contracts/Todo.sol\":1192:1197  tasks */\n      0x00\n        /* \"contracts/Todo.sol\":1192:1204  tasks.length */\n      dup1\n      sload\n      swap1\n      pop\n        /* \"contracts/Todo.sol\":1188:1189  i */\n      dup2\n        /* \"contracts/Todo.sol\":1188:1204  i < tasks.length */\n      lt\n        /* \"contracts/Todo.sol\":1168:1447  for (uint256 i = 0; i < tasks.length; i++) {... */\n      iszero\n      tag_26\n      jumpi\n        /* \"contracts/Todo.sol\":1270:1280  msg.sender */\n      caller\n        /* \"contracts/Todo.sol\":1246:1280  taskOwnerByTaskId[i] == msg.sender */\n      0xffffffffffffffffffffffffffffffffffffffff\n      and\n        /* \"contracts/Todo.sol\":1246:1263  taskOwnerByTaskId */\n      0x01\n        /* \"contracts/Todo.sol\":1246:1266  taskOwnerByTaskId[i] */\n      0x00\n        /* \"contracts/Todo.sol\":1264:1265  i */\n      dup4\n        /* \"contracts/Todo.sol\":1246:1266  taskOwnerByTaskId[i] */\n      dup2\n      mstore\n      0x20\n      add\n      swap1\n      dup2\n      mstore\n      0x20\n      add\n      0x00\n      keccak256\n      0x00\n      swap1\n      sload\n      swap1\n      0x0100\n      exp\n      swap1\n      div\n      0xffffffffffffffffffffffffffffffffffffffff\n      and\n        /* \"contracts/Todo.sol\":1246:1280  taskOwnerByTaskId[i] == msg.sender */\n      0xffffffffffffffffffffffffffffffffffffffff\n      and\n      eq\n        /* \"contracts/Todo.sol\":1246:1327  taskOwnerByTaskId[i] == msg.sender &&... */\n      dup1\n      iszero\n      tag_28\n      jumpi\n      pop\n        /* \"contracts/Todo.sol\":1322:1327  false */\n      0x00\n        /* \"contracts/Todo.sol\":1300:1327  tasks[i].isDeleted == false */\n      iszero\n      iszero\n        /* \"contracts/Todo.sol\":1300:1305  tasks */\n      0x00\n        /* \"contracts/Todo.sol\":1306:1307  i */\n      dup3\n        /* \"contracts/Todo.sol\":1300:1308  tasks[i] */\n      dup2\n      sload\n      dup2\n      lt\n      tag_29\n      jumpi\n      tag_30\n      tag_31\n      jump\t// in\n    tag_30:\n    tag_29:\n      swap1\n      0x00\n      mstore\n      keccak256(0x00, 0x20)\n      swap1\n      0x04\n      mul\n      add\n        /* \"contracts/Todo.sol\":1300:1318  tasks[i].isDeleted */\n      0x02\n      add\n      0x01\n      swap1\n      sload\n      swap1\n      0x0100\n      exp\n      swap1\n      div\n      0xff\n      and\n        /* \"contracts/Todo.sol\":1300:1327  tasks[i].isDeleted == false */\n      iszero\n      iszero\n      eq\n        /* \"contracts/Todo.sol\":1246:1327  taskOwnerByTaskId[i] == msg.sender &&... */\n    tag_28:\n        /* \"contracts/Todo.sol\":1225:1437  if (... */\n      iszero\n      tag_33\n      jumpi\n        /* \"contracts/Todo.sol\":1389:1394  tasks */\n      0x00\n        /* \"contracts/Todo.sol\":1395:1396  i */\n      dup2\n        /* \"contracts/Todo.sol\":1389:1397  tasks[i] */\n      dup2\n      sload\n      dup2\n      lt\n      tag_34\n      jumpi\n      tag_35\n      tag_31\n      jump\t// in\n    tag_35:\n    tag_34:\n      swap1\n      0x00\n      mstore\n      keccak256(0x00, 0x20)\n      swap1\n      0x04\n      mul\n      add\n        /* \"contracts/Todo.sol\":1360:1397  pendingTasksOfOwner[index] = tasks[i] */\n      mload(0x40)\n      dup1\n      0xa0\n      add\n      0x40\n      mstore\n      swap1\n      dup2\n      0x00\n      dup3\n      add\n      sload\n      dup2\n      mstore\n      0x20\n      add\n      0x01\n      dup3\n      add\n      dup1\n      sload\n      tag_37\n      swap1\n      tag_38\n      jump\t// in\n    tag_37:\n      dup1\n      0x1f\n      add\n      0x20\n      dup1\n      swap2\n      div\n      mul\n      0x20\n      add\n      mload(0x40)\n      swap1\n      dup2\n      add\n      0x40\n      mstore\n      dup1\n      swap3\n      swap2\n      swap1\n      dup2\n      dup2\n      mstore\n      0x20\n      add\n      dup3\n      dup1\n      sload\n      tag_39\n      swap1\n      tag_38\n      jump\t// in\n    tag_39:\n      dup1\n      iszero\n      tag_40\n      jumpi\n      dup1\n      0x1f\n      lt\n      tag_41\n      jumpi\n      0x0100\n      dup1\n      dup4\n      sload\n      div\n      mul\n      dup4\n      mstore\n      swap2\n      0x20\n      add\n      swap2\n      jump(tag_40)\n    tag_41:\n      dup3\n      add\n      swap2\n      swap1\n      0x00\n      mstore\n      keccak256(0x00, 0x20)\n      swap1\n    tag_42:\n      dup2\n      sload\n      dup2\n      mstore\n      swap1\n      0x01\n      add\n      swap1\n      0x20\n      add\n      dup1\n      dup4\n      gt\n      tag_42\n      jumpi\n      dup3\n      swap1\n      sub\n      0x1f\n      and\n      dup3\n      add\n      swap2\n    tag_40:\n      pop\n      pop\n      pop\n      pop\n      pop\n      dup2\n      mstore\n      0x20\n      add\n      0x02\n      dup3\n      add\n      0x00\n      swap1\n      sload\n      swap1\n      0x0100\n      exp\n      swap1\n      div\n      0xff\n      and\n      iszero\n      iszero\n      iszero\n      iszero\n      dup2\n      mstore\n      0x20\n      add\n      0x02\n      dup3\n      add\n      0x01\n      swap1\n      sload\n      swap1\n      0x0100\n      exp\n      swap1\n      div\n      0xff\n      and\n      iszero\n      iszero\n      iszero\n      iszero\n      dup2\n      mstore\n      0x20\n      add\n      0x03\n      dup3\n      add\n      sload\n      dup2\n      mstore\n      pop\n      pop\n        /* \"contracts/Todo.sol\":1360:1379  pendingTasksOfOwner */\n      dup4\n        /* \"contracts/Todo.sol\":1380:1385  index */\n      dup4\n        /* \"contracts/Todo.sol\":1360:1386  pendingTasksOfOwner[index] */\n      dup2\n      mload\n      dup2\n      lt\n      tag_43\n      jumpi\n      tag_44\n      tag_31\n      jump\t// in\n    tag_44:\n    tag_43:\n      0x20\n      mul\n      0x20\n      add\n      add\n        /* \"contracts/Todo.sol\":1360:1397  pendingTasksOfOwner[index] = tasks[i] */\n      dup2\n      swap1\n      mstore\n      pop\n        /* \"contracts/Todo.sol\":1415:1422  index++ */\n      dup2\n      dup1\n      tag_45\n      swap1\n      tag_46\n      jump\t// in\n    tag_45:\n      swap3\n      pop\n      pop\n        /* \"contracts/Todo.sol\":1225:1437  if (... */\n    tag_33:\n        /* \"contracts/Todo.sol\":1206:1209  i++ */\n      dup1\n      dup1\n      tag_47\n      swap1\n      tag_46\n      jump\t// in\n    tag_47:\n      swap2\n      pop\n      pop\n        /* \"contracts/Todo.sol\":1168:1447  for (uint256 i = 0; i < tasks.length; i++) {... */\n      jump(tag_25)\n    tag_26:\n      pop\n        /* \"contracts/Todo.sol\":1457:1475  Task[] memory data */\n      0x00\n        /* \"contracts/Todo.sol\":1489:1494  index */\n      dup2\n        /* \"contracts/Todo.sol\":1478:1495  new Task[](index) */\n      0xffffffffffffffff\n      dup2\n      gt\n      iszero\n      tag_48\n      jumpi\n      tag_49\n      tag_20\n      jump\t// in\n    tag_49:\n    tag_48:\n      mload(0x40)\n      swap1\n      dup1\n      dup3\n      mstore\n      dup1\n      0x20\n      mul\n      0x20\n      add\n      dup3\n      add\n      0x40\n      mstore\n      dup1\n      iszero\n      tag_50\n      jumpi\n      dup2\n      0x20\n      add\n    tag_51:\n      tag_52\n      tag_24\n      jump\t// in\n    tag_52:\n      dup2\n      mstore\n      0x20\n      add\n      swap1\n      0x01\n      swap1\n      sub\n      swap1\n      dup2\n      tag_51\n      jumpi\n      swap1\n      pop\n    tag_50:\n      pop\n        /* \"contracts/Todo.sol\":1457:1495  Task[] memory data = new Task[](index) */\n      swap1\n      pop\n        /* \"contracts/Todo.sol\":1510:1519  uint256 i */\n      0x00\n        /* \"contracts/Todo.sol\":1505:1598  for (uint256 i = 0; i < index; i++) {... */\n    tag_53:\n        /* \"contracts/Todo.sol\":1529:1534  index */\n      dup3\n        /* \"contracts/Todo.sol\":1525:1526  i */\n      dup2\n        /* \"contracts/Todo.sol\":1525:1534  i < index */\n      lt\n        /* \"contracts/Todo.sol\":1505:1598  for (uint256 i = 0; i < index; i++) {... */\n      iszero\n      tag_54\n      jumpi\n        /* \"contracts/Todo.sol\":1565:1584  pendingTasksOfOwner */\n      dup4\n        /* \"contracts/Todo.sol\":1585:1586  i */\n      dup2\n        /* \"contracts/Todo.sol\":1565:1587  pendingTasksOfOwner[i] */\n      dup2\n      mload\n      dup2\n      lt\n      tag_56\n      jumpi\n      tag_57\n      tag_31\n      jump\t// in\n    tag_57:\n    tag_56:\n      0x20\n      mul\n      0x20\n      add\n      add\n      mload\n        /* \"contracts/Todo.sol\":1555:1559  data */\n      dup3\n        /* \"contracts/Todo.sol\":1560:1561  i */\n      dup3\n        /* \"contracts/Todo.sol\":1555:1562  data[i] */\n      dup2\n      mload\n      dup2\n      lt\n      tag_58\n      jumpi\n      tag_59\n      tag_31\n      jump\t// in\n    tag_59:\n    tag_58:\n      0x20\n      mul\n      0x20\n      add\n      add\n        /* \"contracts/Todo.sol\":1555:1587  data[i] = pendingTasksOfOwner[i] */\n      dup2\n      swap1\n      mstore\n      pop\n        /* \"contracts/Todo.sol\":1536:1539  i++ */\n      dup1\n      dup1\n      tag_60\n      swap1\n      tag_46\n      jump\t// in\n    tag_60:\n      swap2\n      pop\n      pop\n        /* \"contracts/Todo.sol\":1505:1598  for (uint256 i = 0; i < index; i++) {... */\n      jump(tag_53)\n    tag_54:\n      pop\n        /* \"contracts/Todo.sol\":1623:1642  pendingTasksOfOwner */\n      dup3\n        /* \"contracts/Todo.sol\":1616:1642  return pendingTasksOfOwner */\n      swap4\n      pop\n      pop\n      pop\n      pop\n        /* \"contracts/Todo.sol\":1003:1649  function getTask() external view returns (Task[] memory) {... */\n      swap1\n      jump\t// out\n    tag_24:\n      mload(0x40)\n      dup1\n      0xa0\n      add\n      0x40\n      mstore\n      dup1\n      0x00\n      dup2\n      mstore\n      0x20\n      add\n      0x60\n      dup2\n      mstore\n      0x20\n      add\n      iszero(iszero(0x00))\n      dup2\n      mstore\n      0x20\n      add\n      iszero(iszero(0x00))\n      dup2\n      mstore\n      0x20\n      add\n      0x00\n      dup2\n      mstore\n      pop\n      swap1\n      jump\t// out\n        /* \"#utility.yul\":88:205   */\n    tag_62:\n        /* \"#utility.yul\":197:198   */\n      0x00\n        /* \"#utility.yul\":194:195   */\n      dup1\n        /* \"#utility.yul\":187:199   */\n      revert\n        /* \"#utility.yul\":211:328   */\n    tag_63:\n        /* \"#utility.yul\":320:321   */\n      0x00\n        /* \"#utility.yul\":317:318   */\n      dup1\n        /* \"#utility.yul\":310:322   */\n      revert\n        /* \"#utility.yul\":334:451   */\n    tag_64:\n        /* \"#utility.yul\":443:444   */\n      0x00\n        /* \"#utility.yul\":440:441   */\n      dup1\n        /* \"#utility.yul\":433:445   */\n      revert\n        /* \"#utility.yul\":457:574   */\n    tag_65:\n        /* \"#utility.yul\":566:567   */\n      0x00\n        /* \"#utility.yul\":563:564   */\n      dup1\n        /* \"#utility.yul\":556:568   */\n      revert\n        /* \"#utility.yul\":580:697   */\n    tag_66:\n        /* \"#utility.yul\":689:690   */\n      0x00\n        /* \"#utility.yul\":686:687   */\n      dup1\n        /* \"#utility.yul\":679:691   */\n      revert\n        /* \"#utility.yul\":717:1270   */\n    tag_67:\n        /* \"#utility.yul\":775:783   */\n      0x00\n        /* \"#utility.yul\":785:791   */\n      dup1\n        /* \"#utility.yul\":835:838   */\n      dup4\n        /* \"#utility.yul\":828:832   */\n      0x1f\n        /* \"#utility.yul\":820:826   */\n      dup5\n        /* \"#utility.yul\":816:833   */\n      add\n        /* \"#utility.yul\":812:839   */\n      slt\n        /* \"#utility.yul\":802:924   */\n      tag_111\n      jumpi\n        /* \"#utility.yul\":843:922   */\n      tag_112\n      tag_64\n      jump\t// in\n    tag_112:\n        /* \"#utility.yul\":802:924   */\n    tag_111:\n        /* \"#utility.yul\":956:962   */\n      dup3\n        /* \"#utility.yul\":943:963   */\n      calldataload\n        /* \"#utility.yul\":933:963   */\n      swap1\n      pop\n        /* \"#utility.yul\":986:1004   */\n      0xffffffffffffffff\n        /* \"#utility.yul\":978:984   */\n      dup2\n        /* \"#utility.yul\":975:1005   */\n      gt\n        /* \"#utility.yul\":972:1089   */\n      iszero\n      tag_113\n      jumpi\n        /* \"#utility.yul\":1008:1087   */\n      tag_114\n      tag_65\n      jump\t// in\n    tag_114:\n        /* \"#utility.yul\":972:1089   */\n    tag_113:\n        /* \"#utility.yul\":1122:1126   */\n      0x20\n        /* \"#utility.yul\":1114:1120   */\n      dup4\n        /* \"#utility.yul\":1110:1127   */\n      add\n        /* \"#utility.yul\":1098:1127   */\n      swap2\n      pop\n        /* \"#utility.yul\":1176:1179   */\n      dup4\n        /* \"#utility.yul\":1168:1172   */\n      0x01\n        /* \"#utility.yul\":1160:1166   */\n      dup3\n        /* \"#utility.yul\":1156:1173   */\n      mul\n        /* \"#utility.yul\":1146:1154   */\n      dup4\n        /* \"#utility.yul\":1142:1174   */\n      add\n        /* \"#utility.yul\":1139:1180   */\n      gt\n        /* \"#utility.yul\":1136:1264   */\n      iszero\n      tag_115\n      jumpi\n        /* \"#utility.yul\":1183:1262   */\n      tag_116\n      tag_66\n      jump\t// in\n    tag_116:\n        /* \"#utility.yul\":1136:1264   */\n    tag_115:\n        /* \"#utility.yul\":717:1270   */\n      swap3\n      pop\n      swap3\n      swap1\n      pop\n      jump\t// out\n        /* \"#utility.yul\":1276:1366   */\n    tag_68:\n        /* \"#utility.yul\":1310:1317   */\n      0x00\n        /* \"#utility.yul\":1353:1358   */\n      dup2\n        /* \"#utility.yul\":1346:1359   */\n      iszero\n        /* \"#utility.yul\":1339:1360   */\n      iszero\n        /* \"#utility.yul\":1328:1360   */\n      swap1\n      pop\n        /* \"#utility.yul\":1276:1366   */\n      swap2\n      swap1\n      pop\n      jump\t// out\n        /* \"#utility.yul\":1372:1488   */\n    tag_69:\n        /* \"#utility.yul\":1442:1463   */\n      tag_119\n        /* \"#utility.yul\":1457:1462   */\n      dup2\n        /* \"#utility.yul\":1442:1463   */\n      tag_68\n      jump\t// in\n    tag_119:\n        /* \"#utility.yul\":1435:1440   */\n      dup2\n        /* \"#utility.yul\":1432:1464   */\n      eq\n        /* \"#utility.yul\":1422:1482   */\n      tag_120\n      jumpi\n        /* \"#utility.yul\":1478:1479   */\n      0x00\n        /* \"#utility.yul\":1475:1476   */\n      dup1\n        /* \"#utility.yul\":1468:1480   */\n      revert\n        /* \"#utility.yul\":1422:1482   */\n    tag_120:\n        /* \"#utility.yul\":1372:1488   */\n      pop\n      jump\t// out\n        /* \"#utility.yul\":1494:1627   */\n    tag_70:\n        /* \"#utility.yul\":1537:1542   */\n      0x00\n        /* \"#utility.yul\":1575:1581   */\n      dup2\n        /* \"#utility.yul\":1562:1582   */\n      calldataload\n        /* \"#utility.yul\":1553:1582   */\n      swap1\n      pop\n        /* \"#utility.yul\":1591:1621   */\n      tag_122\n        /* \"#utility.yul\":1615:1620   */\n      dup2\n        /* \"#utility.yul\":1591:1621   */\n      tag_69\n      jump\t// in\n    tag_122:\n        /* \"#utility.yul\":1494:1627   */\n      swap3\n      swap2\n      pop\n      pop\n      jump\t// out\n        /* \"#utility.yul\":1633:2440   */\n    tag_7:\n        /* \"#utility.yul\":1716:1722   */\n      0x00\n        /* \"#utility.yul\":1724:1730   */\n      dup1\n        /* \"#utility.yul\":1732:1738   */\n      0x00\n        /* \"#utility.yul\":1740:1746   */\n      dup1\n        /* \"#utility.yul\":1789:1791   */\n      0x60\n        /* \"#utility.yul\":1777:1786   */\n      dup6\n        /* \"#utility.yul\":1768:1775   */\n      dup8\n        /* \"#utility.yul\":1764:1787   */\n      sub\n        /* \"#utility.yul\":1760:1792   */\n      slt\n        /* \"#utility.yul\":1757:1876   */\n      iszero\n      tag_124\n      jumpi\n        /* \"#utility.yul\":1795:1874   */\n      tag_125\n      tag_62\n      jump\t// in\n    tag_125:\n        /* \"#utility.yul\":1757:1876   */\n    tag_124:\n        /* \"#utility.yul\":1943:1944   */\n      0x00\n        /* \"#utility.yul\":1932:1941   */\n      dup6\n        /* \"#utility.yul\":1928:1945   */\n      add\n        /* \"#utility.yul\":1915:1946   */\n      calldataload\n        /* \"#utility.yul\":1973:1991   */\n      0xffffffffffffffff\n        /* \"#utility.yul\":1965:1971   */\n      dup2\n        /* \"#utility.yul\":1962:1992   */\n      gt\n        /* \"#utility.yul\":1959:2076   */\n      iszero\n      tag_126\n      jumpi\n        /* \"#utility.yul\":1995:2074   */\n      tag_127\n      tag_63\n      jump\t// in\n    tag_127:\n        /* \"#utility.yul\":1959:2076   */\n    tag_126:\n        /* \"#utility.yul\":2108:2173   */\n      tag_128\n        /* \"#utility.yul\":2165:2172   */\n      dup8\n        /* \"#utility.yul\":2156:2162   */\n      dup3\n        /* \"#utility.yul\":2145:2154   */\n      dup9\n        /* \"#utility.yul\":2141:2163   */\n      add\n        /* \"#utility.yul\":2108:2173   */\n      tag_67\n      jump\t// in\n    tag_128:\n        /* \"#utility.yul\":2090:2173   */\n      swap5\n      pop\n      swap5\n      pop\n        /* \"#utility.yul\":1886:2183   */\n      pop\n        /* \"#utility.yul\":2222:2224   */\n      0x20\n        /* \"#utility.yul\":2248:2298   */\n      tag_129\n        /* \"#utility.yul\":2290:2297   */\n      dup8\n        /* \"#utility.yul\":2281:2287   */\n      dup3\n        /* \"#utility.yul\":2270:2279   */\n      dup9\n        /* \"#utility.yul\":2266:2288   */\n      add\n        /* \"#utility.yul\":2248:2298   */\n      tag_70\n      jump\t// in\n    tag_129:\n        /* \"#utility.yul\":2238:2298   */\n      swap3\n      pop\n        /* \"#utility.yul\":2193:2308   */\n      pop\n        /* \"#utility.yul\":2347:2349   */\n      0x40\n        /* \"#utility.yul\":2373:2423   */\n      tag_130\n        /* \"#utility.yul\":2415:2422   */\n      dup8\n        /* \"#utility.yul\":2406:2412   */\n      dup3\n        /* \"#utility.yul\":2395:2404   */\n      dup9\n        /* \"#utility.yul\":2391:2413   */\n      add\n        /* \"#utility.yul\":2373:2423   */\n      tag_70\n      jump\t// in\n    tag_130:\n        /* \"#utility.yul\":2363:2423   */\n      swap2\n      pop\n        /* \"#utility.yul\":2318:2433   */\n      pop\n        /* \"#utility.yul\":1633:2440   */\n      swap3\n      swap6\n      swap2\n      swap5\n      pop\n      swap3\n      pop\n      jump\t// out\n        /* \"#utility.yul\":2446:2580   */\n    tag_71:\n        /* \"#utility.yul\":2533:2539   */\n      0x00\n        /* \"#utility.yul\":2567:2572   */\n      dup2\n        /* \"#utility.yul\":2561:2573   */\n      mload\n        /* \"#utility.yul\":2551:2573   */\n      swap1\n      pop\n        /* \"#utility.yul\":2446:2580   */\n      swap2\n      swap1\n      pop\n      jump\t// out\n        /* \"#utility.yul\":2586:2790   */\n    tag_72:\n        /* \"#utility.yul\":2705:2716   */\n      0x00\n        /* \"#utility.yul\":2739:2745   */\n      dup3\n        /* \"#utility.yul\":2734:2737   */\n      dup3\n        /* \"#utility.yul\":2727:2746   */\n      mstore\n        /* \"#utility.yul\":2779:2783   */\n      0x20\n        /* \"#utility.yul\":2774:2777   */\n      dup3\n        /* \"#utility.yul\":2770:2784   */\n      add\n        /* \"#utility.yul\":2755:2784   */\n      swap1\n      pop\n        /* \"#utility.yul\":2586:2790   */\n      swap3\n      swap2\n      pop\n      pop\n      jump\t// out\n        /* \"#utility.yul\":2796:2948   */\n    tag_73:\n        /* \"#utility.yul\":2883:2887   */\n      0x00\n        /* \"#utility.yul\":2906:2909   */\n      dup2\n        /* \"#utility.yul\":2898:2909   */\n      swap1\n      pop\n        /* \"#utility.yul\":2936:2940   */\n      0x20\n        /* \"#utility.yul\":2931:2934   */\n      dup3\n        /* \"#utility.yul\":2927:2941   */\n      add\n        /* \"#utility.yul\":2919:2941   */\n      swap1\n      pop\n        /* \"#utility.yul\":2796:2948   */\n      swap2\n      swap1\n      pop\n      jump\t// out\n        /* \"#utility.yul\":2954:3031   */\n    tag_74:\n        /* \"#utility.yul\":2991:2998   */\n      0x00\n        /* \"#utility.yul\":3020:3025   */\n      dup2\n        /* \"#utility.yul\":3009:3025   */\n      swap1\n      pop\n        /* \"#utility.yul\":2954:3031   */\n      swap2\n      swap1\n      pop\n      jump\t// out\n        /* \"#utility.yul\":3037:3145   */\n    tag_75:\n        /* \"#utility.yul\":3114:3138   */\n      tag_136\n        /* \"#utility.yul\":3132:3137   */\n      dup2\n        /* \"#utility.yul\":3114:3138   */\n      tag_74\n      jump\t// in\n    tag_136:\n        /* \"#utility.yul\":3109:3112   */\n      dup3\n        /* \"#utility.yul\":3102:3139   */\n      mstore\n        /* \"#utility.yul\":3037:3145   */\n      pop\n      pop\n      jump\t// out\n        /* \"#utility.yul\":3151:3250   */\n    tag_76:\n        /* \"#utility.yul\":3203:3209   */\n      0x00\n        /* \"#utility.yul\":3237:3242   */\n      dup2\n        /* \"#utility.yul\":3231:3243   */\n      mload\n        /* \"#utility.yul\":3221:3243   */\n      swap1\n      pop\n        /* \"#utility.yul\":3151:3250   */\n      swap2\n      swap1\n      pop\n      jump\t// out\n        /* \"#utility.yul\":3256:3415   */\n    tag_77:\n        /* \"#utility.yul\":3330:3341   */\n      0x00\n        /* \"#utility.yul\":3364:3370   */\n      dup3\n        /* \"#utility.yul\":3359:3362   */\n      dup3\n        /* \"#utility.yul\":3352:3371   */\n      mstore\n        /* \"#utility.yul\":3404:3408   */\n      0x20\n        /* \"#utility.yul\":3399:3402   */\n      dup3\n        /* \"#utility.yul\":3395:3409   */\n      add\n        /* \"#utility.yul\":3380:3409   */\n      swap1\n      pop\n        /* \"#utility.yul\":3256:3415   */\n      swap3\n      swap2\n      pop\n      pop\n      jump\t// out\n        /* \"#utility.yul\":3421:3728   */\n    tag_78:\n        /* \"#utility.yul\":3489:3490   */\n      0x00\n        /* \"#utility.yul\":3499:3612   */\n    tag_140:\n        /* \"#utility.yul\":3513:3519   */\n      dup4\n        /* \"#utility.yul\":3510:3511   */\n      dup2\n        /* \"#utility.yul\":3507:3520   */\n      lt\n        /* \"#utility.yul\":3499:3612   */\n      iszero\n      tag_142\n      jumpi\n        /* \"#utility.yul\":3598:3599   */\n      dup1\n        /* \"#utility.yul\":3593:3596   */\n      dup3\n        /* \"#utility.yul\":3589:3600   */\n      add\n        /* \"#utility.yul\":3583:3601   */\n      mload\n        /* \"#utility.yul\":3579:3580   */\n      dup2\n        /* \"#utility.yul\":3574:3577   */\n      dup5\n        /* \"#utility.yul\":3570:3581   */\n      add\n        /* \"#utility.yul\":3563:3602   */\n      mstore\n        /* \"#utility.yul\":3535:3537   */\n      0x20\n        /* \"#utility.yul\":3532:3533   */\n      dup2\n        /* \"#utility.yul\":3528:3538   */\n      add\n        /* \"#utility.yul\":3523:3538   */\n      swap1\n      pop\n        /* \"#utility.yul\":3499:3612   */\n      jump(tag_140)\n    tag_142:\n        /* \"#utility.yul\":3630:3636   */\n      dup4\n        /* \"#utility.yul\":3627:3628   */\n      dup2\n        /* \"#utility.yul\":3624:3637   */\n      gt\n        /* \"#utility.yul\":3621:3722   */\n      iszero\n      tag_143\n      jumpi\n        /* \"#utility.yul\":3710:3711   */\n      0x00\n        /* \"#utility.yul\":3701:3707   */\n      dup5\n        /* \"#utility.yul\":3696:3699   */\n      dup5\n        /* \"#utility.yul\":3692:3708   */\n      add\n        /* \"#utility.yul\":3685:3712   */\n      mstore\n        /* \"#utility.yul\":3621:3722   */\n    tag_143:\n        /* \"#utility.yul\":3470:3728   */\n      pop\n        /* \"#utility.yul\":3421:3728   */\n      pop\n      pop\n      pop\n      jump\t// out\n        /* \"#utility.yul\":3734:3836   */\n    tag_79:\n        /* \"#utility.yul\":3775:3781   */\n      0x00\n        /* \"#utility.yul\":3826:3828   */\n      0x1f\n        /* \"#utility.yul\":3822:3829   */\n      not\n        /* \"#utility.yul\":3817:3819   */\n      0x1f\n        /* \"#utility.yul\":3810:3815   */\n      dup4\n        /* \"#utility.yul\":3806:3820   */\n      add\n        /* \"#utility.yul\":3802:3830   */\n      and\n        /* \"#utility.yul\":3792:3830   */\n      swap1\n      pop\n        /* \"#utility.yul\":3734:3836   */\n      swap2\n      swap1\n      pop\n      jump\t// out\n        /* \"#utility.yul\":3842:4186   */\n    tag_80:\n        /* \"#utility.yul\":3920:3923   */\n      0x00\n        /* \"#utility.yul\":3948:3987   */\n      tag_146\n        /* \"#utility.yul\":3981:3986   */\n      dup3\n        /* \"#utility.yul\":3948:3987   */\n      tag_76\n      jump\t// in\n    tag_146:\n        /* \"#utility.yul\":4003:4064   */\n      tag_147\n        /* \"#utility.yul\":4057:4063   */\n      dup2\n        /* \"#utility.yul\":4052:4055   */\n      dup6\n        /* \"#utility.yul\":4003:4064   */\n      tag_77\n      jump\t// in\n    tag_147:\n        /* \"#utility.yul\":3996:4064   */\n      swap4\n      pop\n        /* \"#utility.yul\":4073:4125   */\n      tag_148\n        /* \"#utility.yul\":4118:4124   */\n      dup2\n        /* \"#utility.yul\":4113:4116   */\n      dup6\n        /* \"#utility.yul\":4106:4110   */\n      0x20\n        /* \"#utility.yul\":4099:4104   */\n      dup7\n        /* \"#utility.yul\":4095:4111   */\n      add\n        /* \"#utility.yul\":4073:4125   */\n      tag_78\n      jump\t// in\n    tag_148:\n        /* \"#utility.yul\":4150:4179   */\n      tag_149\n        /* \"#utility.yul\":4172:4178   */\n      dup2\n        /* \"#utility.yul\":4150:4179   */\n      tag_79\n      jump\t// in\n    tag_149:\n        /* \"#utility.yul\":4145:4148   */\n      dup5\n        /* \"#utility.yul\":4141:4180   */\n      add\n        /* \"#utility.yul\":4134:4180   */\n      swap2\n      pop\n        /* \"#utility.yul\":3924:4186   */\n      pop\n        /* \"#utility.yul\":3842:4186   */\n      swap3\n      swap2\n      pop\n      pop\n      jump\t// out\n        /* \"#utility.yul\":4192:4291   */\n    tag_81:\n        /* \"#utility.yul\":4263:4284   */\n      tag_151\n        /* \"#utility.yul\":4278:4283   */\n      dup2\n        /* \"#utility.yul\":4263:4284   */\n      tag_68\n      jump\t// in\n    tag_151:\n        /* \"#utility.yul\":4258:4261   */\n      dup3\n        /* \"#utility.yul\":4251:4285   */\n      mstore\n        /* \"#utility.yul\":4192:4291   */\n      pop\n      pop\n      jump\t// out\n        /* \"#utility.yul\":4341:5451   */\n    tag_82:\n        /* \"#utility.yul\":4440:4443   */\n      0x00\n        /* \"#utility.yul\":4476:4480   */\n      0xa0\n        /* \"#utility.yul\":4471:4474   */\n      dup4\n        /* \"#utility.yul\":4467:4481   */\n      add\n        /* \"#utility.yul\":4561:4565   */\n      0x00\n        /* \"#utility.yul\":4554:4559   */\n      dup4\n        /* \"#utility.yul\":4550:4566   */\n      add\n        /* \"#utility.yul\":4544:4567   */\n      mload\n        /* \"#utility.yul\":4580:4643   */\n      tag_153\n        /* \"#utility.yul\":4637:4641   */\n      0x00\n        /* \"#utility.yul\":4632:4635   */\n      dup7\n        /* \"#utility.yul\":4628:4642   */\n      add\n        /* \"#utility.yul\":4614:4626   */\n      dup3\n        /* \"#utility.yul\":4580:4643   */\n      tag_75\n      jump\t// in\n    tag_153:\n        /* \"#utility.yul\":4491:4653   */\n      pop\n        /* \"#utility.yul\":4735:4739   */\n      0x20\n        /* \"#utility.yul\":4728:4733   */\n      dup4\n        /* \"#utility.yul\":4724:4740   */\n      add\n        /* \"#utility.yul\":4718:4741   */\n      mload\n        /* \"#utility.yul\":4788:4791   */\n      dup5\n        /* \"#utility.yul\":4782:4786   */\n      dup3\n        /* \"#utility.yul\":4778:4792   */\n      sub\n        /* \"#utility.yul\":4771:4775   */\n      0x20\n        /* \"#utility.yul\":4766:4769   */\n      dup7\n        /* \"#utility.yul\":4762:4776   */\n      add\n        /* \"#utility.yul\":4755:4793   */\n      mstore\n        /* \"#utility.yul\":4814:4887   */\n      tag_154\n        /* \"#utility.yul\":4882:4886   */\n      dup3\n        /* \"#utility.yul\":4868:4880   */\n      dup3\n        /* \"#utility.yul\":4814:4887   */\n      tag_80\n      jump\t// in\n    tag_154:\n        /* \"#utility.yul\":4806:4887   */\n      swap2\n      pop\n        /* \"#utility.yul\":4663:4898   */\n      pop\n        /* \"#utility.yul\":4982:4986   */\n      0x40\n        /* \"#utility.yul\":4975:4980   */\n      dup4\n        /* \"#utility.yul\":4971:4987   */\n      add\n        /* \"#utility.yul\":4965:4988   */\n      mload\n        /* \"#utility.yul\":5001:5058   */\n      tag_155\n        /* \"#utility.yul\":5052:5056   */\n      0x40\n        /* \"#utility.yul\":5047:5050   */\n      dup7\n        /* \"#utility.yul\":5043:5057   */\n      add\n        /* \"#utility.yul\":5029:5041   */\n      dup3\n        /* \"#utility.yul\":5001:5058   */\n      tag_81\n      jump\t// in\n    tag_155:\n        /* \"#utility.yul\":4908:5068   */\n      pop\n        /* \"#utility.yul\":5155:5159   */\n      0x60\n        /* \"#utility.yul\":5148:5153   */\n      dup4\n        /* \"#utility.yul\":5144:5160   */\n      add\n        /* \"#utility.yul\":5138:5161   */\n      mload\n        /* \"#utility.yul\":5174:5231   */\n      tag_156\n        /* \"#utility.yul\":5225:5229   */\n      0x60\n        /* \"#utility.yul\":5220:5223   */\n      dup7\n        /* \"#utility.yul\":5216:5230   */\n      add\n        /* \"#utility.yul\":5202:5214   */\n      dup3\n        /* \"#utility.yul\":5174:5231   */\n      tag_81\n      jump\t// in\n    tag_156:\n        /* \"#utility.yul\":5078:5241   */\n      pop\n        /* \"#utility.yul\":5332:5336   */\n      0x80\n        /* \"#utility.yul\":5325:5330   */\n      dup4\n        /* \"#utility.yul\":5321:5337   */\n      add\n        /* \"#utility.yul\":5315:5338   */\n      mload\n        /* \"#utility.yul\":5351:5414   */\n      tag_157\n        /* \"#utility.yul\":5408:5412   */\n      0x80\n        /* \"#utility.yul\":5403:5406   */\n      dup7\n        /* \"#utility.yul\":5399:5413   */\n      add\n        /* \"#utility.yul\":5385:5397   */\n      dup3\n        /* \"#utility.yul\":5351:5414   */\n      tag_75\n      jump\t// in\n    tag_157:\n        /* \"#utility.yul\":5251:5424   */\n      pop\n        /* \"#utility.yul\":5441:5445   */\n      dup1\n        /* \"#utility.yul\":5434:5445   */\n      swap2\n      pop\n        /* \"#utility.yul\":4445:5451   */\n      pop\n        /* \"#utility.yul\":4341:5451   */\n      swap3\n      swap2\n      pop\n      pop\n      jump\t// out\n        /* \"#utility.yul\":5457:5693   */\n    tag_83:\n        /* \"#utility.yul\":5566:5576   */\n      0x00\n        /* \"#utility.yul\":5601:5687   */\n      tag_159\n        /* \"#utility.yul\":5683:5686   */\n      dup4\n        /* \"#utility.yul\":5675:5681   */\n      dup4\n        /* \"#utility.yul\":5601:5687   */\n      tag_82\n      jump\t// in\n    tag_159:\n        /* \"#utility.yul\":5587:5687   */\n      swap1\n      pop\n        /* \"#utility.yul\":5457:5693   */\n      swap3\n      swap2\n      pop\n      pop\n      jump\t// out\n        /* \"#utility.yul\":5699:5832   */\n    tag_84:\n        /* \"#utility.yul\":5789:5793   */\n      0x00\n        /* \"#utility.yul\":5821:5825   */\n      0x20\n        /* \"#utility.yul\":5816:5819   */\n      dup3\n        /* \"#utility.yul\":5812:5826   */\n      add\n        /* \"#utility.yul\":5804:5826   */\n      swap1\n      pop\n        /* \"#utility.yul\":5699:5832   */\n      swap2\n      swap1\n      pop\n      jump\t// out\n        /* \"#utility.yul\":5886:6957   */\n    tag_85:\n        /* \"#utility.yul\":6045:6048   */\n      0x00\n        /* \"#utility.yul\":6074:6148   */\n      tag_162\n        /* \"#utility.yul\":6142:6147   */\n      dup3\n        /* \"#utility.yul\":6074:6148   */\n      tag_71\n      jump\t// in\n    tag_162:\n        /* \"#utility.yul\":6164:6270   */\n      tag_163\n        /* \"#utility.yul\":6263:6269   */\n      dup2\n        /* \"#utility.yul\":6258:6261   */\n      dup6\n        /* \"#utility.yul\":6164:6270   */\n      tag_72\n      jump\t// in\n    tag_163:\n        /* \"#utility.yul\":6157:6270   */\n      swap4\n      pop\n        /* \"#utility.yul\":6296:6299   */\n      dup4\n        /* \"#utility.yul\":6341:6345   */\n      0x20\n        /* \"#utility.yul\":6333:6339   */\n      dup3\n        /* \"#utility.yul\":6329:6346   */\n      mul\n        /* \"#utility.yul\":6324:6327   */\n      dup6\n        /* \"#utility.yul\":6320:6347   */\n      add\n        /* \"#utility.yul\":6371:6447   */\n      tag_164\n        /* \"#utility.yul\":6441:6446   */\n      dup6\n        /* \"#utility.yul\":6371:6447   */\n      tag_73\n      jump\t// in\n    tag_164:\n        /* \"#utility.yul\":6470:6477   */\n      dup1\n        /* \"#utility.yul\":6501:6502   */\n      0x00\n        /* \"#utility.yul\":6486:6912   */\n    tag_165:\n        /* \"#utility.yul\":6511:6517   */\n      dup6\n        /* \"#utility.yul\":6508:6509   */\n      dup2\n        /* \"#utility.yul\":6505:6518   */\n      lt\n        /* \"#utility.yul\":6486:6912   */\n      iszero\n      tag_167\n      jumpi\n        /* \"#utility.yul\":6582:6591   */\n      dup5\n        /* \"#utility.yul\":6576:6580   */\n      dup5\n        /* \"#utility.yul\":6572:6592   */\n      sub\n        /* \"#utility.yul\":6567:6570   */\n      dup10\n        /* \"#utility.yul\":6560:6593   */\n      mstore\n        /* \"#utility.yul\":6633:6639   */\n      dup2\n        /* \"#utility.yul\":6627:6640   */\n      mload\n        /* \"#utility.yul\":6661:6765   */\n      tag_168\n        /* \"#utility.yul\":6760:6764   */\n      dup6\n        /* \"#utility.yul\":6745:6758   */\n      dup3\n        /* \"#utility.yul\":6661:6765   */\n      tag_83\n      jump\t// in\n    tag_168:\n        /* \"#utility.yul\":6653:6765   */\n      swap5\n      pop\n        /* \"#utility.yul\":6788:6868   */\n      tag_169\n        /* \"#utility.yul\":6861:6867   */\n      dup4\n        /* \"#utility.yul\":6788:6868   */\n      tag_84\n      jump\t// in\n    tag_169:\n        /* \"#utility.yul\":6778:6868   */\n      swap3\n      pop\n        /* \"#utility.yul\":6897:6901   */\n      0x20\n        /* \"#utility.yul\":6892:6895   */\n      dup11\n        /* \"#utility.yul\":6888:6902   */\n      add\n        /* \"#utility.yul\":6881:6902   */\n      swap10\n      pop\n        /* \"#utility.yul\":6546:6912   */\n      pop\n        /* \"#utility.yul\":6533:6534   */\n      0x01\n        /* \"#utility.yul\":6530:6531   */\n      dup2\n        /* \"#utility.yul\":6526:6535   */\n      add\n        /* \"#utility.yul\":6521:6535   */\n      swap1\n      pop\n        /* \"#utility.yul\":6486:6912   */\n      jump(tag_165)\n    tag_167:\n        /* \"#utility.yul\":6490:6504   */\n      pop\n        /* \"#utility.yul\":6928:6932   */\n      dup3\n        /* \"#utility.yul\":6921:6932   */\n      swap8\n      pop\n        /* \"#utility.yul\":6948:6951   */\n      dup8\n        /* \"#utility.yul\":6941:6951   */\n      swap6\n      pop\n        /* \"#utility.yul\":6050:6957   */\n      pop\n      pop\n      pop\n      pop\n      pop\n        /* \"#utility.yul\":5886:6957   */\n      swap3\n      swap2\n      pop\n      pop\n      jump\t// out\n        /* \"#utility.yul\":6963:7416   */\n    tag_12:\n        /* \"#utility.yul\":7146:7150   */\n      0x00\n        /* \"#utility.yul\":7184:7186   */\n      0x20\n        /* \"#utility.yul\":7173:7182   */\n      dup3\n        /* \"#utility.yul\":7169:7187   */\n      add\n        /* \"#utility.yul\":7161:7187   */\n      swap1\n      pop\n        /* \"#utility.yul\":7233:7242   */\n      dup2\n        /* \"#utility.yul\":7227:7231   */\n      dup2\n        /* \"#utility.yul\":7223:7243   */\n      sub\n        /* \"#utility.yul\":7219:7220   */\n      0x00\n        /* \"#utility.yul\":7208:7217   */\n      dup4\n        /* \"#utility.yul\":7204:7221   */\n      add\n        /* \"#utility.yul\":7197:7244   */\n      mstore\n        /* \"#utility.yul\":7261:7409   */\n      tag_171\n        /* \"#utility.yul\":7404:7408   */\n      dup2\n        /* \"#utility.yul\":7395:7401   */\n      dup5\n        /* \"#utility.yul\":7261:7409   */\n      tag_85\n      jump\t// in\n    tag_171:\n        /* \"#utility.yul\":7253:7409   */\n      swap1\n      pop\n        /* \"#utility.yul\":6963:7416   */\n      swap3\n      swap2\n      pop\n      pop\n      jump\t// out\n        /* \"#utility.yul\":7422:7602   */\n    tag_20:\n        /* \"#utility.yul\":7470:7547   */\n      0x4e487b7100000000000000000000000000000000000000000000000000000000\n        /* \"#utility.yul\":7467:7468   */\n      0x00\n        /* \"#utility.yul\":7460:7548   */\n      mstore\n        /* \"#utility.yul\":7567:7571   */\n      0x41\n        /* \"#utility.yul\":7564:7565   */\n      0x04\n        /* \"#utility.yul\":7557:7572   */\n      mstore\n        /* \"#utility.yul\":7591:7595   */\n      0x24\n        /* \"#utility.yul\":7588:7589   */\n      0x00\n        /* \"#utility.yul\":7581:7596   */\n      revert\n        /* \"#utility.yul\":7608:7788   */\n    tag_86:\n        /* \"#utility.yul\":7656:7733   */\n      0x4e487b7100000000000000000000000000000000000000000000000000000000\n        /* \"#utility.yul\":7653:7654   */\n      0x00\n        /* \"#utility.yul\":7646:7734   */\n      mstore\n        /* \"#utility.yul\":7753:7757   */\n      0x22\n        /* \"#utility.yul\":7750:7751   */\n      0x04\n        /* \"#utility.yul\":7743:7758   */\n      mstore\n        /* \"#utility.yul\":7777:7781   */\n      0x24\n        /* \"#utility.yul\":7774:7775   */\n      0x00\n        /* \"#utility.yul\":7767:7782   */\n      revert\n        /* \"#utility.yul\":7794:8114   */\n    tag_38:\n        /* \"#utility.yul\":7838:7844   */\n      0x00\n        /* \"#utility.yul\":7875:7876   */\n      0x02\n        /* \"#utility.yul\":7869:7873   */\n      dup3\n        /* \"#utility.yul\":7865:7877   */\n      div\n        /* \"#utility.yul\":7855:7877   */\n      swap1\n      pop\n        /* \"#utility.yul\":7922:7923   */\n      0x01\n        /* \"#utility.yul\":7916:7920   */\n      dup3\n        /* \"#utility.yul\":7912:7924   */\n      and\n        /* \"#utility.yul\":7943:7961   */\n      dup1\n        /* \"#utility.yul\":7933:8014   */\n      tag_175\n      jumpi\n        /* \"#utility.yul\":7999:8003   */\n      0x7f\n        /* \"#utility.yul\":7991:7997   */\n      dup3\n        /* \"#utility.yul\":7987:8004   */\n      and\n        /* \"#utility.yul\":7977:8004   */\n      swap2\n      pop\n        /* \"#utility.yul\":7933:8014   */\n    tag_175:\n        /* \"#utility.yul\":8061:8063   */\n      0x20\n        /* \"#utility.yul\":8053:8059   */\n      dup3\n        /* \"#utility.yul\":8050:8064   */\n      lt\n        /* \"#utility.yul\":8030:8048   */\n      dup2\n        /* \"#utility.yul\":8027:8065   */\n      sub\n        /* \"#utility.yul\":8024:8108   */\n      tag_176\n      jumpi\n        /* \"#utility.yul\":8080:8098   */\n      tag_177\n      tag_86\n      jump\t// in\n    tag_177:\n        /* \"#utility.yul\":8024:8108   */\n    tag_176:\n        /* \"#utility.yul\":7845:8114   */\n      pop\n        /* \"#utility.yul\":7794:8114   */\n      swap2\n      swap1\n      pop\n      jump\t// out\n        /* \"#utility.yul\":8120:8261   */\n    tag_87:\n        /* \"#utility.yul\":8169:8173   */\n      0x00\n        /* \"#utility.yul\":8192:8195   */\n      dup2\n        /* \"#utility.yul\":8184:8195   */\n      swap1\n      pop\n        /* \"#utility.yul\":8215:8218   */\n      dup2\n        /* \"#utility.yul\":8212:8213   */\n      0x00\n        /* \"#utility.yul\":8205:8219   */\n      mstore\n        /* \"#utility.yul\":8249:8253   */\n      0x20\n        /* \"#utility.yul\":8246:8247   */\n      0x00\n        /* \"#utility.yul\":8236:8254   */\n      keccak256\n        /* \"#utility.yul\":8228:8254   */\n      swap1\n      pop\n        /* \"#utility.yul\":8120:8261   */\n      swap2\n      swap1\n      pop\n      jump\t// out\n        /* \"#utility.yul\":8267:8360   */\n    tag_88:\n        /* \"#utility.yul\":8304:8310   */\n      0x00\n        /* \"#utility.yul\":8351:8353   */\n      0x20\n        /* \"#utility.yul\":8346:8348   */\n      0x1f\n        /* \"#utility.yul\":8339:8344   */\n      dup4\n        /* \"#utility.yul\":8335:8349   */\n      add\n        /* \"#utility.yul\":8331:8354   */\n      div\n        /* \"#utility.yul\":8321:8354   */\n      swap1\n      pop\n        /* \"#utility.yul\":8267:8360   */\n      swap2\n      swap1\n      pop\n      jump\t// out\n        /* \"#utility.yul\":8366:8473   */\n    tag_89:\n        /* \"#utility.yul\":8410:8418   */\n      0x00\n        /* \"#utility.yul\":8460:8465   */\n      dup3\n        /* \"#utility.yul\":8454:8458   */\n      dup3\n        /* \"#utility.yul\":8450:8466   */\n      shl\n        /* \"#utility.yul\":8429:8466   */\n      swap1\n      pop\n        /* \"#utility.yul\":8366:8473   */\n      swap3\n      swap2\n      pop\n      pop\n      jump\t// out\n        /* \"#utility.yul\":8479:8872   */\n    tag_90:\n        /* \"#utility.yul\":8548:8554   */\n      0x00\n        /* \"#utility.yul\":8598:8599   */\n      0x08\n        /* \"#utility.yul\":8586:8596   */\n      dup4\n        /* \"#utility.yul\":8582:8600   */\n      mul\n        /* \"#utility.yul\":8621:8718   */\n      tag_182\n        /* \"#utility.yul\":8651:8717   */\n      0xffffffffffffffffffffffffffffffffffffffffffffffffffffffffffffffff\n        /* \"#utility.yul\":8640:8649   */\n      dup3\n        /* \"#utility.yul\":8621:8718   */\n      tag_89\n      jump\t// in\n    tag_182:\n        /* \"#utility.yul\":8739:8778   */\n      tag_183\n        /* \"#utility.yul\":8769:8777   */\n      dup7\n        /* \"#utility.yul\":8758:8767   */\n      dup4\n        /* \"#utility.yul\":8739:8778   */\n      tag_89\n      jump\t// in\n    tag_183:\n        /* \"#utility.yul\":8727:8778   */\n      swap6\n      pop\n        /* \"#utility.yul\":8811:8815   */\n      dup1\n        /* \"#utility.yul\":8807:8816   */\n      not\n        /* \"#utility.yul\":8800:8805   */\n      dup5\n        /* \"#utility.yul\":8796:8817   */\n      and\n        /* \"#utility.yul\":8787:8817   */\n      swap4\n      pop\n        /* \"#utility.yul\":8860:8864   */\n      dup1\n        /* \"#utility.yul\":8850:8858   */\n      dup7\n        /* \"#utility.yul\":8846:8865   */\n      and\n        /* \"#utility.yul\":8839:8844   */\n      dup5\n        /* \"#utility.yul\":8836:8866   */\n      or\n        /* \"#utility.yul\":8826:8866   */\n      swap3\n      pop\n        /* \"#utility.yul\":8555:8872   */\n      pop\n      pop\n        /* \"#utility.yul\":8479:8872   */\n      swap4\n      swap3\n      pop\n      pop\n      pop\n      jump\t// out\n        /* \"#utility.yul\":8878:8938   */\n    tag_91:\n        /* \"#utility.yul\":8906:8909   */\n      0x00\n        /* \"#utility.yul\":8927:8932   */\n      dup2\n        /* \"#utility.yul\":8920:8932   */\n      swap1\n      pop\n        /* \"#utility.yul\":8878:8938   */\n      swap2\n      swap1\n      pop\n      jump\t// out\n        /* \"#utility.yul\":8944:9086   */\n    tag_92:\n        /* \"#utility.yul\":8994:9003   */\n      0x00\n        /* \"#utility.yul\":9027:9080   */\n      tag_186\n        /* \"#utility.yul\":9045:9079   */\n      tag_187\n        /* \"#utility.yul\":9054:9078   */\n      tag_188\n        /* \"#utility.yul\":9072:9077   */\n      dup5\n        /* \"#utility.yul\":9054:9078   */\n      tag_74\n      jump\t// in\n    tag_188:\n        /* \"#utility.yul\":9045:9079   */\n      tag_91\n      jump\t// in\n    tag_187:\n        /* \"#utility.yul\":9027:9080   */\n      tag_74\n      jump\t// in\n    tag_186:\n        /* \"#utility.yul\":9014:9080   */\n      swap1\n      pop\n        /* \"#utility.yul\":8944:9086   */\n      swap2\n      swap1\n      pop\n      jump\t// out\n        /* \"#utility.yul\":9092:9167   */\n    tag_93:\n        /* \"#utility.yul\":9135:9138   */\n      0x00\n        /* \"#utility.yul\":9156:9161   */\n      dup2\n        /* \"#utility.yul\":9149:9161   */\n      swap1\n      pop\n        /* \"#utility.yul\":9092:9167   */\n      swap2\n      swap1\n      pop\n      jump\t// out\n        /* \"#utility.yul\":9173:9442   */\n    tag_94:\n        /* \"#utility.yul\":9283:9322   */\n      tag_191\n        /* \"#utility.yul\":9314:9321   */\n      dup4\n        /* \"#utility.yul\":9283:9322   */\n      tag_92\n      jump\t// in\n    tag_191:\n        /* \"#utility.yul\":9344:9435   */\n      tag_192\n        /* \"#utility.yul\":9393:9434   */\n      tag_193\n        /* \"#utility.yul\":9417:9433   */\n      dup3\n        /* \"#utility.yul\":9393:9434   */\n      tag_93\n      jump\t// in\n    tag_193:\n        /* \"#utility.yul\":9385:9391   */\n      dup5\n        /* \"#utility.yul\":9378:9382   */\n      dup5\n        /* \"#utility.yul\":9372:9383   */\n      sload\n        /* \"#utility.yul\":9344:9435   */\n      tag_90\n      jump\t// in\n    tag_192:\n        /* \"#utility.yul\":9338:9342   */\n      dup3\n        /* \"#utility.yul\":9331:9436   */\n      sstore\n        /* \"#utility.yul\":9249:9442   */\n      pop\n        /* \"#utility.yul\":9173:9442   */\n      pop\n      pop\n      pop\n      jump\t// out\n        /* \"#utility.yul\":9448:9521   */\n    tag_95:\n        /* \"#utility.yul\":9493:9496   */\n      0x00\n        /* \"#utility.yul\":9448:9521   */\n      swap1\n      jump\t// out\n        /* \"#utility.yul\":9527:9716   */\n    tag_96:\n        /* \"#utility.yul\":9604:9636   */\n      tag_196\n      tag_95\n      jump\t// in\n    tag_196:\n        /* \"#utility.yul\":9645:9710   */\n      tag_197\n        /* \"#utility.yul\":9703:9709   */\n      dup2\n        /* \"#utility.yul\":9695:9701   */\n      dup5\n        /* \"#utility.yul\":9689:9693   */\n      dup5\n        /* \"#utility.yul\":9645:9710   */\n      tag_94\n      jump\t// in\n    tag_197:\n        /* \"#utility.yul\":9580:9716   */\n      pop\n        /* \"#utility.yul\":9527:9716   */\n      pop\n      pop\n      jump\t// out\n        /* \"#utility.yul\":9722:9908   */\n    tag_97:\n        /* \"#utility.yul\":9782:9902   */\n    tag_199:\n        /* \"#utility.yul\":9799:9802   */\n      dup2\n        /* \"#utility.yul\":9792:9797   */\n      dup2\n        /* \"#utility.yul\":9789:9803   */\n      lt\n        /* \"#utility.yul\":9782:9902   */\n      iszero\n      tag_201\n      jumpi\n        /* \"#utility.yul\":9853:9892   */\n      tag_202\n        /* \"#utility.yul\":9890:9891   */\n      0x00\n        /* \"#utility.yul\":9883:9888   */\n      dup3\n        /* \"#utility.yul\":9853:9892   */\n      tag_96\n      jump\t// in\n    tag_202:\n        /* \"#utility.yul\":9826:9827   */\n      0x01\n        /* \"#utility.yul\":9819:9824   */\n      dup2\n        /* \"#utility.yul\":9815:9828   */\n      add\n        /* \"#utility.yul\":9806:9828   */\n      swap1\n      pop\n        /* \"#utility.yul\":9782:9902   */\n      jump(tag_199)\n    tag_201:\n        /* \"#utility.yul\":9722:9908   */\n      pop\n      pop\n      jump\t// out\n        /* \"#utility.yul\":9914:10457   */\n    tag_98:\n        /* \"#utility.yul\":10015:10017   */\n      0x1f\n        /* \"#utility.yul\":10010:10013   */\n      dup3\n        /* \"#utility.yul\":10007:10018   */\n      gt\n        /* \"#utility.yul\":10004:10450   */\n      iszero\n      tag_204\n      jumpi\n        /* \"#utility.yul\":10049:10087   */\n      tag_205\n        /* \"#utility.yul\":10081:10086   */\n      dup2\n        /* \"#utility.yul\":10049:10087   */\n      tag_87\n      jump\t// in\n    tag_205:\n        /* \"#utility.yul\":10133:10162   */\n      tag_206\n        /* \"#utility.yul\":10151:10161   */\n      dup5\n        /* \"#utility.yul\":10133:10162   */\n      tag_88\n      jump\t// in\n    tag_206:\n        /* \"#utility.yul\":10123:10131   */\n      dup2\n        /* \"#utility.yul\":10119:10163   */\n      add\n        /* \"#utility.yul\":10316:10318   */\n      0x20\n        /* \"#utility.yul\":10304:10314   */\n      dup6\n        /* \"#utility.yul\":10301:10319   */\n      lt\n        /* \"#utility.yul\":10298:10347   */\n      iszero\n      tag_207\n      jumpi\n        /* \"#utility.yul\":10337:10345   */\n      dup2\n        /* \"#utility.yul\":10322:10345   */\n      swap1\n      pop\n        /* \"#utility.yul\":10298:10347   */\n    tag_207:\n        /* \"#utility.yul\":10360:10440   */\n      tag_208\n        /* \"#utility.yul\":10416:10438   */\n      tag_209\n        /* \"#utility.yul\":10434:10437   */\n      dup6\n        /* \"#utility.yul\":10416:10438   */\n      tag_88\n      jump\t// in\n    tag_209:\n        /* \"#utility.yul\":10406:10414   */\n      dup4\n        /* \"#utility.yul\":10402:10439   */\n      add\n        /* \"#utility.yul\":10389:10400   */\n      dup3\n        /* \"#utility.yul\":10360:10440   */\n      tag_97\n      jump\t// in\n    tag_208:\n        /* \"#utility.yul\":10019:10450   */\n      pop\n      pop\n        /* \"#utility.yul\":10004:10450   */\n    tag_204:\n        /* \"#utility.yul\":9914:10457   */\n      pop\n      pop\n      pop\n      jump\t// out\n        /* \"#utility.yul\":10463:10580   */\n    tag_99:\n        /* \"#utility.yul\":10517:10525   */\n      0x00\n        /* \"#utility.yul\":10567:10572   */\n      dup3\n        /* \"#utility.yul\":10561:10565   */\n      dup3\n        /* \"#utility.yul\":10557:10573   */\n      shr\n        /* \"#utility.yul\":10536:10573   */\n      swap1\n      pop\n        /* \"#utility.yul\":10463:10580   */\n      swap3\n      swap2\n      pop\n      pop\n      jump\t// out\n        /* \"#utility.yul\":10586:10755   */\n    tag_100:\n        /* \"#utility.yul\":10630:10636   */\n      0x00\n        /* \"#utility.yul\":10663:10714   */\n      tag_212\n        /* \"#utility.yul\":10711:10712   */\n      0x00\n        /* \"#utility.yul\":10707:10713   */\n      not\n        /* \"#utility.yul\":10699:10704   */\n      dup5\n        /* \"#utility.yul\":10696:10697   */\n      0x08\n        /* \"#utility.yul\":10692:10705   */\n      mul\n        /* \"#utility.yul\":10663:10714   */\n      tag_99\n      jump\t// in\n    tag_212:\n        /* \"#utility.yul\":10659:10715   */\n      not\n        /* \"#utility.yul\":10744:10748   */\n      dup1\n        /* \"#utility.yul\":10738:10742   */\n      dup4\n        /* \"#utility.yul\":10734:10749   */\n      and\n        /* \"#utility.yul\":10724:10749   */\n      swap2\n      pop\n        /* \"#utility.yul\":10637:10755   */\n      pop\n        /* \"#utility.yul\":10586:10755   */\n      swap3\n      swap2\n      pop\n      pop\n      jump\t// out\n        /* \"#utility.yul\":10760:11055   */\n    tag_101:\n        /* \"#utility.yul\":10836:10840   */\n      0x00\n        /* \"#utility.yul\":10982:11011   */\n      tag_214\n        /* \"#utility.yul\":11007:11010   */\n      dup4\n        /* \"#utility.yul\":11001:11005   */\n      dup4\n        /* \"#utility.yul\":10982:11011   */\n      tag_100\n      jump\t// in\n    tag_214:\n        /* \"#utility.yul\":10974:11011   */\n      swap2\n      pop\n        /* \"#utility.yul\":11044:11047   */\n      dup3\n        /* \"#utility.yul\":11041:11042   */\n      0x02\n        /* \"#utility.yul\":11037:11048   */\n      mul\n        /* \"#utility.yul\":11031:11035   */\n      dup3\n        /* \"#utility.yul\":11028:11049   */\n      or\n        /* \"#utility.yul\":11020:11049   */\n      swap1\n      pop\n        /* \"#utility.yul\":10760:11055   */\n      swap3\n      swap2\n      pop\n      pop\n      jump\t// out\n        /* \"#utility.yul\":11060:12455   */\n    tag_16:\n        /* \"#utility.yul\":11177:11214   */\n      tag_216\n        /* \"#utility.yul\":11210:11213   */\n      dup3\n        /* \"#utility.yul\":11177:11214   */\n      tag_76\n      jump\t// in\n    tag_216:\n        /* \"#utility.yul\":11279:11297   */\n      0xffffffffffffffff\n        /* \"#utility.yul\":11271:11277   */\n      dup2\n        /* \"#utility.yul\":11268:11298   */\n      gt\n        /* \"#utility.yul\":11265:11321   */\n      iszero\n      tag_217\n      jumpi\n        /* \"#utility.yul\":11301:11319   */\n      tag_218\n      tag_20\n      jump\t// in\n    tag_218:\n        /* \"#utility.yul\":11265:11321   */\n    tag_217:\n        /* \"#utility.yul\":11345:11383   */\n      tag_219\n        /* \"#utility.yul\":11377:11381   */\n      dup3\n        /* \"#utility.yul\":11371:11382   */\n      sload\n        /* \"#utility.yul\":11345:11383   */\n      tag_38\n      jump\t// in\n    tag_219:\n        /* \"#utility.yul\":11430:11497   */\n      tag_220\n        /* \"#utility.yul\":11490:11496   */\n      dup3\n        /* \"#utility.yul\":11482:11488   */\n      dup3\n        /* \"#utility.yul\":11476:11480   */\n      dup6\n        /* \"#utility.yul\":11430:11497   */\n      tag_98\n      jump\t// in\n    tag_220:\n        /* \"#utility.yul\":11524:11525   */\n      0x00\n        /* \"#utility.yul\":11548:11552   */\n      0x20\n        /* \"#utility.yul\":11535:11552   */\n      swap1\n      pop\n        /* \"#utility.yul\":11580:11582   */\n      0x1f\n        /* \"#utility.yul\":11572:11578   */\n      dup4\n        /* \"#utility.yul\":11569:11583   */\n      gt\n        /* \"#utility.yul\":11597:11598   */\n      0x01\n        /* \"#utility.yul\":11592:12210   */\n      dup2\n      eq\n      tag_222\n      jumpi\n        /* \"#utility.yul\":12254:12255   */\n      0x00\n        /* \"#utility.yul\":12271:12277   */\n      dup5\n        /* \"#utility.yul\":12268:12345   */\n      iszero\n      tag_223\n      jumpi\n        /* \"#utility.yul\":12320:12329   */\n      dup3\n        /* \"#utility.yul\":12315:12318   */\n      dup8\n        /* \"#utility.yul\":12311:12330   */\n      add\n        /* \"#utility.yul\":12305:12331   */\n      mload\n        /* \"#utility.yul\":12296:12331   */\n      swap1\n      pop\n        /* \"#utility.yul\":12268:12345   */\n    tag_223:\n        /* \"#utility.yul\":12371:12438   */\n      tag_224\n        /* \"#utility.yul\":12431:12437   */\n      dup6\n        /* \"#utility.yul\":12424:12429   */\n      dup3\n        /* \"#utility.yul\":12371:12438   */\n      tag_101\n      jump\t// in\n    tag_224:\n        /* \"#utility.yul\":12365:12369   */\n      dup7\n        /* \"#utility.yul\":12358:12439   */\n      sstore\n        /* \"#utility.yul\":12227:12449   */\n      pop\n        /* \"#utility.yul\":11562:12449   */\n      jump(tag_221)\n        /* \"#utility.yul\":11592:12210   */\n    tag_222:\n        /* \"#utility.yul\":11644:11648   */\n      0x1f\n        /* \"#utility.yul\":11640:11649   */\n      not\n        /* \"#utility.yul\":11632:11638   */\n      dup5\n        /* \"#utility.yul\":11628:11650   */\n      and\n        /* \"#utility.yul\":11678:11715   */\n      tag_225\n        /* \"#utility.yul\":11710:11714   */\n      dup7\n        /* \"#utility.yul\":11678:11715   */\n      tag_87\n      jump\t// in\n    tag_225:\n        /* \"#utility.yul\":11737:11738   */\n      0x00\n        /* \"#utility.yul\":11751:11959   */\n    tag_226:\n        /* \"#utility.yul\":11765:11772   */\n      dup3\n        /* \"#utility.yul\":11762:11763   */\n      dup2\n        /* \"#utility.yul\":11759:11773   */\n      lt\n        /* \"#utility.yul\":11751:11959   */\n      iszero\n      tag_228\n      jumpi\n        /* \"#utility.yul\":11844:11853   */\n      dup5\n        /* \"#utility.yul\":11839:11842   */\n      dup10\n        /* \"#utility.yul\":11835:11854   */\n      add\n        /* \"#utility.yul\":11829:11855   */\n      mload\n        /* \"#utility.yul\":11821:11827   */\n      dup3\n        /* \"#utility.yul\":11814:11856   */\n      sstore\n        /* \"#utility.yul\":11895:11896   */\n      0x01\n        /* \"#utility.yul\":11887:11893   */\n      dup3\n        /* \"#utility.yul\":11883:11897   */\n      add\n        /* \"#utility.yul\":11873:11897   */\n      swap2\n      pop\n        /* \"#utility.yul\":11942:11944   */\n      0x20\n        /* \"#utility.yul\":11931:11940   */\n      dup6\n        /* \"#utility.yul\":11927:11945   */\n      add\n        /* \"#utility.yul\":11914:11945   */\n      swap5\n      pop\n        /* \"#utility.yul\":11788:11792   */\n      0x20\n        /* \"#utility.yul\":11785:11786   */\n      dup2\n        /* \"#utility.yul\":11781:11793   */\n      add\n        /* \"#utility.yul\":11776:11793   */\n      swap1\n      pop\n        /* \"#utility.yul\":11751:11959   */\n      jump(tag_226)\n    tag_228:\n        /* \"#utility.yul\":11987:11993   */\n      dup7\n        /* \"#utility.yul\":11978:11985   */\n      dup4\n        /* \"#utility.yul\":11975:11994   */\n      lt\n        /* \"#utility.yul\":11972:12151   */\n      iszero\n      tag_229\n      jumpi\n        /* \"#utility.yul\":12045:12054   */\n      dup5\n        /* \"#utility.yul\":12040:12043   */\n      dup10\n        /* \"#utility.yul\":12036:12055   */\n      add\n        /* \"#utility.yul\":12030:12056   */\n      mload\n        /* \"#utility.yul\":12088:12136   */\n      tag_230\n        /* \"#utility.yul\":12130:12134   */\n      0x1f\n        /* \"#utility.yul\":12122:12128   */\n      dup10\n        /* \"#utility.yul\":12118:12135   */\n      and\n        /* \"#utility.yul\":12107:12116   */\n      dup3\n        /* \"#utility.yul\":12088:12136   */\n      tag_100\n      jump\t// in\n    tag_230:\n        /* \"#utility.yul\":12080:12086   */\n      dup4\n        /* \"#utility.yul\":12073:12137   */\n      sstore\n        /* \"#utility.yul\":11995:12151   */\n      pop\n        /* \"#utility.yul\":11972:12151   */\n    tag_229:\n        /* \"#utility.yul\":12197:12198   */\n      0x01\n        /* \"#utility.yul\":12193:12194   */\n      0x02\n        /* \"#utility.yul\":12185:12191   */\n      dup9\n        /* \"#utility.yul\":12181:12195   */\n      mul\n        /* \"#utility.yul\":12177:12199   */\n      add\n        /* \"#utility.yul\":12171:12175   */\n      dup9\n        /* \"#utility.yul\":12164:12200   */\n      sstore\n        /* \"#utility.yul\":11599:12210   */\n      pop\n      pop\n      pop\n        /* \"#utility.yul\":11562:12449   */\n    tag_221:\n      pop\n        /* \"#utility.yul\":11152:12455   */\n      pop\n      pop\n      pop\n        /* \"#utility.yul\":11060:12455   */\n      pop\n      pop\n      jump\t// out\n        /* \"#utility.yul\":12461:12641   */\n    tag_31:\n        /* \"#utility.yul\":12509:12586   */\n      0x4e487b7100000000000000000000000000000000000000000000000000000000\n        /* \"#utility.yul\":12506:12507   */\n      0x00\n        /* \"#utility.yul\":12499:12587   */\n      mstore\n        /* \"#utility.yul\":12606:12610   */\n      0x32\n        /* \"#utility.yul\":12603:12604   */\n      0x04\n        /* \"#utility.yul\":12596:12611   */\n      mstore\n        /* \"#utility.yul\":12630:12634   */\n      0x24\n        /* \"#utility.yul\":12627:12628   */\n      0x00\n        /* \"#utility.yul\":12620:12635   */\n      revert\n        /* \"#utility.yul\":12647:12827   */\n    tag_102:\n        /* \"#utility.yul\":12695:12772   */\n      0x4e487b7100000000000000000000000000000000000000000000000000000000\n        /* \"#utility.yul\":12692:12693   */\n      0x00\n        /* \"#utility.yul\":12685:12773   */\n      mstore\n        /* \"#utility.yul\":12792:12796   */\n      0x11\n        /* \"#utility.yul\":12789:12790   */\n      0x04\n        /* \"#utility.yul\":12782:12797   */\n      mstore\n        /* \"#utility.yul\":12816:12820   */\n      0x24\n        /* \"#utility.yul\":12813:12814   */\n      0x00\n        /* \"#utility.yul\":12806:12821   */\n      revert\n        /* \"#utility.yul\":12833:13066   */\n    tag_46:\n        /* \"#utility.yul\":12872:12875   */\n      0x00\n        /* \"#utility.yul\":12895:12919   */\n      tag_234\n        /* \"#utility.yul\":12913:12918   */\n      dup3\n        /* \"#utility.yul\":12895:12919   */\n      tag_74\n      jump\t// in\n    tag_234:\n        /* \"#utility.yul\":12886:12919   */\n      swap2\n      pop\n        /* \"#utility.yul\":12941:13007   */\n      0xffffffffffffffffffffffffffffffffffffffffffffffffffffffffffffffff\n        /* \"#utility.yul\":12934:12939   */\n      dup3\n        /* \"#utility.yul\":12931:13008   */\n      sub\n        /* \"#utility.yul\":12928:13031   */\n      tag_235\n      jumpi\n        /* \"#utility.yul\":13011:13029   */\n      tag_236\n      tag_102\n      jump\t// in\n    tag_236:\n        /* \"#utility.yul\":12928:13031   */\n    tag_235:\n        /* \"#utility.yul\":13058:13059   */\n      0x01\n        /* \"#utility.yul\":13051:13056   */\n      dup3\n        /* \"#utility.yul\":13047:13060   */\n      add\n        /* \"#utility.yul\":13040:13060   */\n      swap1\n      pop\n        /* \"#utility.yul\":12833:13066   */\n      swap2\n      swap1\n      pop\n      jump\t// out\n\n    auxdata: 0xa2646970667358221220800306a2d0ba95daadd0a06f35f040fec85d47f9774f4ac8f6dad33cd092ab4264736f6c634300080f0033\n}\n",
				"bytecode": {
					"linkReferences": {},
					"object": "608060405234801561001057600080fd5b50610c8f806100206000396000f3fe608060405234801561001057600080fd5b50600436106100365760003560e01c80638a7abe761461003b578063a31662d214610057575b600080fd5b61005560048036038101906100509190610617565b610075565b005b61005f610222565b60405161006c9190610884565b60405180910390f35b60008080549050905060006040518060a0016040528083815260200187878080601f016020809104026020016040519081016040528093929190818152602001838380828437600081840152601f19601f82011690508083019250505050505050815260200185151581526020018415158152602001600081525090806001815401808255809150506001900390600052602060002090600402016000909190919091506000820151816000015560208201518160010190816101389190610ae1565b5060408201518160020160006101000a81548160ff02191690831515021790555060608201518160020160016101000a81548160ff021916908315150217905550608082015181600301555050336001600083815260200190815260200160002060006101000a81548173ffffffffffffffffffffffffffffffffffffffff021916908373ffffffffffffffffffffffffffffffffffffffff160217905550803373ffffffffffffffffffffffffffffffffffffffff167f1f54e1ba1832d428fbd7e7792beaf62b1fc5a382c207ffd614209c1413e94fda60405160405180910390a35050505050565b60606000808054905067ffffffffffffffff811115610244576102436108a6565b5b60405190808252806020026020018201604052801561027d57816020015b61026a61053d565b8152602001906001900390816102625790505b5090506000805b600080549050811015610483573373ffffffffffffffffffffffffffffffffffffffff166001600083815260200190815260200160002060009054906101000a900473ffffffffffffffffffffffffffffffffffffffff1673ffffffffffffffffffffffffffffffffffffffff161480156103355750600015156000828154811061031257610311610bb3565b5b906000526020600020906004020160020160019054906101000a900460ff161515145b15610470576000818154811061034e5761034d610bb3565b5b90600052602060002090600402016040518060a00160405290816000820154815260200160018201805461038190610904565b80601f01602080910402602001604051908101604052809291908181526020018280546103ad90610904565b80156103fa5780601f106103cf576101008083540402835291602001916103fa565b820191906000526020600020905b8154815290600101906020018083116103dd57829003601f168201915b505050505081526020016002820160009054906101000a900460ff161515151581526020016002820160019054906101000a900460ff1615151515815260200160038201548152505083838151811061045657610455610bb3565b5b6020026020010181905250818061046c90610c11565b9250505b808061047b90610c11565b915050610284565b5060008167ffffffffffffffff8111156104a05761049f6108a6565b5b6040519080825280602002602001820160405280156104d957816020015b6104c661053d565b8152602001906001900390816104be5790505b50905060005b82811015610533578381815181106104fa576104f9610bb3565b5b602002602001015182828151811061051557610514610bb3565b5b6020026020010181905250808061052b90610c11565b9150506104df565b5082935050505090565b6040518060a001604052806000815260200160608152602001600015158152602001600015158152602001600081525090565b600080fd5b600080fd5b600080fd5b600080fd5b600080fd5b60008083601f84011261059f5761059e61057a565b5b8235905067ffffffffffffffff8111156105bc576105bb61057f565b5b6020830191508360018202830111156105d8576105d7610584565b5b9250929050565b60008115159050919050565b6105f4816105df565b81146105ff57600080fd5b50565b600081359050610611816105eb565b92915050565b6000806000806060858703121561063157610630610570565b5b600085013567ffffffffffffffff81111561064f5761064e610575565b5b61065b87828801610589565b9450945050602061066e87828801610602565b925050604061067f87828801610602565b91505092959194509250565b600081519050919050565b600082825260208201905092915050565b6000819050602082019050919050565b6000819050919050565b6106ca816106b7565b82525050565b600081519050919050565b600082825260208201905092915050565b60005b8381101561070a5780820151818401526020810190506106ef565b83811115610719576000848401525b50505050565b6000601f19601f8301169050919050565b600061073b826106d0565b61074581856106db565b93506107558185602086016106ec565b61075e8161071f565b840191505092915050565b610772816105df565b82525050565b600060a08301600083015161079060008601826106c1565b50602083015184820360208601526107a88282610730565b91505060408301516107bd6040860182610769565b5060608301516107d06060860182610769565b5060808301516107e360808601826106c1565b508091505092915050565b60006107fa8383610778565b905092915050565b6000602082019050919050565b600061081a8261068b565b6108248185610696565b935083602082028501610836856106a7565b8060005b85811015610872578484038952815161085385826107ee565b945061085e83610802565b925060208a0199505060018101905061083a565b50829750879550505050505092915050565b6000602082019050818103600083015261089e818461080f565b905092915050565b7f4e487b7100000000000000000000000000000000000000000000000000000000600052604160045260246000fd5b7f4e487b7100000000000000000000000000000000000000000000000000000000600052602260045260246000fd5b6000600282049050600182168061091c57607f821691505b60208210810361092f5761092e6108d5565b5b50919050565b60008190508160005260206000209050919050565b60006020601f8301049050919050565b600082821b905092915050565b6000600883026109977fffffffffffffffffffffffffffffffffffffffffffffffffffffffffffffffff8261095a565b6109a1868361095a565b95508019841693508086168417925050509392505050565b6000819050919050565b60006109de6109d96109d4846106b7565b6109b9565b6106b7565b9050919050565b6000819050919050565b6109f8836109c3565b610a0c610a04826109e5565b848454610967565b825550505050565b600090565b610a21610a14565b610a2c8184846109ef565b505050565b5b81811015610a5057610a45600082610a19565b600181019050610a32565b5050565b601f821115610a9557610a6681610935565b610a6f8461094a565b81016020851015610a7e578190505b610a92610a8a8561094a565b830182610a31565b50505b505050565b600082821c905092915050565b6000610ab860001984600802610a9a565b1980831691505092915050565b6000610ad18383610aa7565b9150826002028217905092915050565b610aea826106d0565b67ffffffffffffffff811115610b0357610b026108a6565b5b610b0d8254610904565b610b18828285610a54565b600060209050601f831160018114610b4b5760008415610b39578287015190505b610b438582610ac5565b865550610bab565b601f198416610b5986610935565b60005b82811015610b8157848901518255600182019150602085019450602081019050610b5c565b86831015610b9e5784890151610b9a601f891682610aa7565b8355505b6001600288020188555050505b505050505050565b7f4e487b7100000000000000000000000000000000000000000000000000000000600052603260045260246000fd5b7f4e487b7100000000000000000000000000000000000000000000000000000000600052601160045260246000fd5b6000610c1c826106b7565b91507fffffffffffffffffffffffffffffffffffffffffffffffffffffffffffffffff8203610c4e57610c4d610be2565b5b60018201905091905056fea2646970667358221220800306a2d0ba95daadd0a06f35f040fec85d47f9774f4ac8f6dad33cd092ab4264736f6c634300080f0033",
					"opcodes": "PUSH1 0x80 PUSH1 0x40 MSTORE CALLVALUE DUP1 ISZERO PUSH2 0x10 JUMPI PUSH1 0x0 DUP1 REVERT JUMPDEST POP PUSH2 0xC8F DUP1 PUSH2 0x20 PUSH1 0x0 CODECOPY PUSH1 0x0 RETURN INVALID PUSH1 0x80 PUSH1 0x40 MSTORE CALLVALUE DUP1 ISZERO PUSH2 0x10 JUMPI PUSH1 0x0 DUP1 REVERT JUMPDEST POP PUSH1 0x4 CALLDATASIZE LT PUSH2 0x36 JUMPI PUSH1 0x0 CALLDATALOAD PUSH1 0xE0 SHR DUP1 PUSH4 0x8A7ABE76 EQ PUSH2 0x3B JUMPI DUP1 PUSH4 0xA31662D2 EQ PUSH2 0x57 JUMPI JUMPDEST PUSH1 0x0 DUP1 REVERT JUMPDEST PUSH2 0x55 PUSH1 0x4 DUP1 CALLDATASIZE SUB DUP2 ADD SWAP1 PUSH2 0x50 SWAP2 SWAP1 PUSH2 0x617 JUMP JUMPDEST PUSH2 0x75 JUMP JUMPDEST STOP JUMPDEST PUSH2 0x5F PUSH2 0x222 JUMP JUMPDEST PUSH1 0x40 MLOAD PUSH2 0x6C SWAP2 SWAP1 PUSH2 0x884 JUMP JUMPDEST PUSH1 0x40 MLOAD DUP1 SWAP2 SUB SWAP1 RETURN JUMPDEST PUSH1 0x0 DUP1 DUP1 SLOAD SWAP1 POP SWAP1 POP PUSH1 0x0 PUSH1 0x40 MLOAD DUP1 PUSH1 0xA0 ADD PUSH1 0x40 MSTORE DUP1 DUP4 DUP2 MSTORE PUSH1 0x20 ADD DUP8 DUP8 DUP1 DUP1 PUSH1 0x1F ADD PUSH1 0x20 DUP1 SWAP2 DIV MUL PUSH1 0x20 ADD PUSH1 0x40 MLOAD SWAP1 DUP2 ADD PUSH1 0x40 MSTORE DUP1 SWAP4 SWAP3 SWAP2 SWAP1 DUP2 DUP2 MSTORE PUSH1 0x20 ADD DUP4 DUP4 DUP1 DUP3 DUP5 CALLDATACOPY PUSH1 0x0 DUP2 DUP5 ADD MSTORE PUSH1 0x1F NOT PUSH1 0x1F DUP3 ADD AND SWAP1 POP DUP1 DUP4 ADD SWAP3 POP POP POP POP POP POP POP DUP2 MSTORE PUSH1 0x20 ADD DUP6 ISZERO ISZERO DUP2 MSTORE PUSH1 0x20 ADD DUP5 ISZERO ISZERO DUP2 MSTORE PUSH1 0x20 ADD PUSH1 0x0 DUP2 MSTORE POP SWAP1 DUP1 PUSH1 0x1 DUP2 SLOAD ADD DUP1 DUP3 SSTORE DUP1 SWAP2 POP POP PUSH1 0x1 SWAP1 SUB SWAP1 PUSH1 0x0 MSTORE PUSH1 0x20 PUSH1 0x0 KECCAK256 SWAP1 PUSH1 0x4 MUL ADD PUSH1 0x0 SWAP1 SWAP2 SWAP1 SWAP2 SWAP1 SWAP2 POP PUSH1 0x0 DUP3 ADD MLOAD DUP2 PUSH1 0x0 ADD SSTORE PUSH1 0x20 DUP3 ADD MLOAD DUP2 PUSH1 0x1 ADD SWAP1 DUP2 PUSH2 0x138 SWAP2 SWAP1 PUSH2 0xAE1 JUMP JUMPDEST POP PUSH1 0x40 DUP3 ADD MLOAD DUP2 PUSH1 0x2 ADD PUSH1 0x0 PUSH2 0x100 EXP DUP2 SLOAD DUP2 PUSH1 0xFF MUL NOT AND SWAP1 DUP4 ISZERO ISZERO MUL OR SWAP1 SSTORE POP PUSH1 0x60 DUP3 ADD MLOAD DUP2 PUSH1 0x2 ADD PUSH1 0x1 PUSH2 0x100 EXP DUP2 SLOAD DUP2 PUSH1 0xFF MUL NOT AND SWAP1 DUP4 ISZERO ISZERO MUL OR SWAP1 SSTORE POP PUSH1 0x80 DUP3 ADD MLOAD DUP2 PUSH1 0x3 ADD SSTORE POP POP CALLER PUSH1 0x1 PUSH1 0x0 DUP4 DUP2 MSTORE PUSH1 0x20 ADD SWAP1 DUP2 MSTORE PUSH1 0x20 ADD PUSH1 0x0 KECCAK256 PUSH1 0x0 PUSH2 0x100 EXP DUP2 SLOAD DUP2 PUSH20 0xFFFFFFFFFFFFFFFFFFFFFFFFFFFFFFFFFFFFFFFF MUL NOT AND SWAP1 DUP4 PUSH20 0xFFFFFFFFFFFFFFFFFFFFFFFFFFFFFFFFFFFFFFFF AND MUL OR SWAP1 SSTORE POP DUP1 CALLER PUSH20 0xFFFFFFFFFFFFFFFFFFFFFFFFFFFFFFFFFFFFFFFF AND PUSH32 0x1F54E1BA1832D428FBD7E7792BEAF62B1FC5A382C207FFD614209C1413E94FDA PUSH1 0x40 MLOAD PUSH1 0x40 MLOAD DUP1 SWAP2 SUB SWAP1 LOG3 POP POP POP POP POP JUMP JUMPDEST PUSH1 0x60 PUSH1 0x0 DUP1 DUP1 SLOAD SWAP1 POP PUSH8 0xFFFFFFFFFFFFFFFF DUP2 GT ISZERO PUSH2 0x244 JUMPI PUSH2 0x243 PUSH2 0x8A6 JUMP JUMPDEST JUMPDEST PUSH1 0x40 MLOAD SWAP1 DUP1 DUP3 MSTORE DUP1 PUSH1 0x20 MUL PUSH1 0x20 ADD DUP3 ADD PUSH1 0x40 MSTORE DUP1 ISZERO PUSH2 0x27D JUMPI DUP2 PUSH1 0x20 ADD JUMPDEST PUSH2 0x26A PUSH2 0x53D JUMP JUMPDEST DUP2 MSTORE PUSH1 0x20 ADD SWAP1 PUSH1 0x1 SWAP1 SUB SWAP1 DUP2 PUSH2 0x262 JUMPI SWAP1 POP JUMPDEST POP SWAP1 POP PUSH1 0x0 DUP1 JUMPDEST PUSH1 0x0 DUP1 SLOAD SWAP1 POP DUP2 LT ISZERO PUSH2 0x483 JUMPI CALLER PUSH20 0xFFFFFFFFFFFFFFFFFFFFFFFFFFFFFFFFFFFFFFFF AND PUSH1 0x1 PUSH1 0x0 DUP4 DUP2 MSTORE PUSH1 0x20 ADD SWAP1 DUP2 MSTORE PUSH1 0x20 ADD PUSH1 0x0 KECCAK256 PUSH1 0x0 SWAP1 SLOAD SWAP1 PUSH2 0x100 EXP SWAP1 DIV PUSH20 0xFFFFFFFFFFFFFFFFFFFFFFFFFFFFFFFFFFFFFFFF AND PUSH20 0xFFFFFFFFFFFFFFFFFFFFFFFFFFFFFFFFFFFFFFFF AND EQ DUP1 ISZERO PUSH2 0x335 JUMPI POP PUSH1 0x0 ISZERO ISZERO PUSH1 0x0 DUP3 DUP2 SLOAD DUP2 LT PUSH2 0x312 JUMPI PUSH2 0x311 PUSH2 0xBB3 JUMP JUMPDEST JUMPDEST SWAP1 PUSH1 0x0 MSTORE PUSH1 0x20 PUSH1 0x0 KECCAK256 SWAP1 PUSH1 0x4 MUL ADD PUSH1 0x2 ADD PUSH1 0x1 SWAP1 SLOAD SWAP1 PUSH2 0x100 EXP SWAP1 DIV PUSH1 0xFF AND ISZERO ISZERO EQ JUMPDEST ISZERO PUSH2 0x470 JUMPI PUSH1 0x0 DUP2 DUP2 SLOAD DUP2 LT PUSH2 0x34E JUMPI PUSH2 0x34D PUSH2 0xBB3 JUMP JUMPDEST JUMPDEST SWAP1 PUSH1 0x0 MSTORE PUSH1 0x20 PUSH1 0x0 KECCAK256 SWAP1 PUSH1 0x4 MUL ADD PUSH1 0x40 MLOAD DUP1 PUSH1 0xA0 ADD PUSH1 0x40 MSTORE SWAP1 DUP2 PUSH1 0x0 DUP3 ADD SLOAD DUP2 MSTORE PUSH1 0x20 ADD PUSH1 0x1 DUP3 ADD DUP1 SLOAD PUSH2 0x381 SWAP1 PUSH2 0x904 JUMP JUMPDEST DUP1 PUSH1 0x1F ADD PUSH1 0x20 DUP1 SWAP2 DIV MUL PUSH1 0x20 ADD PUSH1 0x40 MLOAD SWAP1 DUP2 ADD PUSH1 0x40 MSTORE DUP1 SWAP3 SWAP2 SWAP1 DUP2 DUP2 MSTORE PUSH1 0x20 ADD DUP3 DUP1 SLOAD PUSH2 0x3AD SWAP1 PUSH2 0x904 JUMP JUMPDEST DUP1 ISZERO PUSH2 0x3FA JUMPI DUP1 PUSH1 0x1F LT PUSH2 0x3CF JUMPI PUSH2 0x100 DUP1 DUP4 SLOAD DIV MUL DUP4 MSTORE SWAP2 PUSH1 0x20 ADD SWAP2 PUSH2 0x3FA JUMP JUMPDEST DUP3 ADD SWAP2 SWAP1 PUSH1 0x0 MSTORE PUSH1 0x20 PUSH1 0x0 KECCAK256 SWAP1 JUMPDEST DUP2 SLOAD DUP2 MSTORE SWAP1 PUSH1 0x1 ADD SWAP1 PUSH1 0x20 ADD DUP1 DUP4 GT PUSH2 0x3DD JUMPI DUP3 SWAP1 SUB PUSH1 0x1F AND DUP3 ADD SWAP2 JUMPDEST POP POP POP POP POP DUP2 MSTORE PUSH1 0x20 ADD PUSH1 0x2 DUP3 ADD PUSH1 0x0 SWAP1 SLOAD SWAP1 PUSH2 0x100 EXP SWAP1 DIV PUSH1 0xFF AND ISZERO ISZERO ISZERO ISZERO DUP2 MSTORE PUSH1 0x20 ADD PUSH1 0x2 DUP3 ADD PUSH1 0x1 SWAP1 SLOAD SWAP1 PUSH2 0x100 EXP SWAP1 DIV PUSH1 0xFF AND ISZERO ISZERO ISZERO ISZERO DUP2 MSTORE PUSH1 0x20 ADD PUSH1 0x3 DUP3 ADD SLOAD DUP2 MSTORE POP POP DUP4 DUP4 DUP2 MLOAD DUP2 LT PUSH2 0x456 JUMPI PUSH2 0x455 PUSH2 0xBB3 JUMP JUMPDEST JUMPDEST PUSH1 0x20 MUL PUSH1 0x20 ADD ADD DUP2 SWAP1 MSTORE POP DUP2 DUP1 PUSH2 0x46C SWAP1 PUSH2 0xC11 JUMP JUMPDEST SWAP3 POP POP JUMPDEST DUP1 DUP1 PUSH2 0x47B SWAP1 PUSH2 0xC11 JUMP JUMPDEST SWAP2 POP POP PUSH2 0x284 JUMP JUMPDEST POP PUSH1 0x0 DUP2 PUSH8 0xFFFFFFFFFFFFFFFF DUP2 GT ISZERO PUSH2 0x4A0 JUMPI PUSH2 0x49F PUSH2 0x8A6 JUMP JUMPDEST JUMPDEST PUSH1 0x40 MLOAD SWAP1 DUP1 DUP3 MSTORE DUP1 PUSH1 0x20 MUL PUSH1 0x20 ADD DUP3 ADD PUSH1 0x40 MSTORE DUP1 ISZERO PUSH2 0x4D9 JUMPI DUP2 PUSH1 0x20 ADD JUMPDEST PUSH2 0x4C6 PUSH2 0x53D JUMP JUMPDEST DUP2 MSTORE PUSH1 0x20 ADD SWAP1 PUSH1 0x1 SWAP1 SUB SWAP1 DUP2 PUSH2 0x4BE JUMPI SWAP1 POP JUMPDEST POP SWAP1 POP PUSH1 0x0 JUMPDEST DUP3 DUP2 LT ISZERO PUSH2 0x533 JUMPI DUP4 DUP2 DUP2 MLOAD DUP2 LT PUSH2 0x4FA JUMPI PUSH2 0x4F9 PUSH2 0xBB3 JUMP JUMPDEST JUMPDEST PUSH1 0x20 MUL PUSH1 0x20 ADD ADD MLOAD DUP3 DUP3 DUP2 MLOAD DUP2 LT PUSH2 0x515 JUMPI PUSH2 0x514 PUSH2 0xBB3 JUMP JUMPDEST JUMPDEST PUSH1 0x20 MUL PUSH1 0x20 ADD ADD DUP2 SWAP1 MSTORE POP DUP1 DUP1 PUSH2 0x52B SWAP1 PUSH2 0xC11 JUMP JUMPDEST SWAP2 POP POP PUSH2 0x4DF JUMP JUMPDEST POP DUP3 SWAP4 POP POP POP POP SWAP1 JUMP JUMPDEST PUSH1 0x40 MLOAD DUP1 PUSH1 0xA0 ADD PUSH1 0x40 MSTORE DUP1 PUSH1 0x0 DUP2 MSTORE PUSH1 0x20 ADD PUSH1 0x60 DUP2 MSTORE PUSH1 0x20 ADD PUSH1 0x0 ISZERO ISZERO DUP2 MSTORE PUSH1 0x20 ADD PUSH1 0x0 ISZERO ISZERO DUP2 MSTORE PUSH1 0x20 ADD PUSH1 0x0 DUP2 MSTORE POP SWAP1 JUMP JUMPDEST PUSH1 0x0 DUP1 REVERT JUMPDEST PUSH1 0x0 DUP1 REVERT JUMPDEST PUSH1 0x0 DUP1 REVERT JUMPDEST PUSH1 0x0 DUP1 REVERT JUMPDEST PUSH1 0x0 DUP1 REVERT JUMPDEST PUSH1 0x0 DUP1 DUP4 PUSH1 0x1F DUP5 ADD SLT PUSH2 0x59F JUMPI PUSH2 0x59E PUSH2 0x57A JUMP JUMPDEST JUMPDEST DUP3 CALLDATALOAD SWAP1 POP PUSH8 0xFFFFFFFFFFFFFFFF DUP2 GT ISZERO PUSH2 0x5BC JUMPI PUSH2 0x5BB PUSH2 0x57F JUMP JUMPDEST JUMPDEST PUSH1 0x20 DUP4 ADD SWAP2 POP DUP4 PUSH1 0x1 DUP3 MUL DUP4 ADD GT ISZERO PUSH2 0x5D8 JUMPI PUSH2 0x5D7 PUSH2 0x584 JUMP JUMPDEST JUMPDEST SWAP3 POP SWAP3 SWAP1 POP JUMP JUMPDEST PUSH1 0x0 DUP2 ISZERO ISZERO SWAP1 POP SWAP2 SWAP1 POP JUMP JUMPDEST PUSH2 0x5F4 DUP2 PUSH2 0x5DF JUMP JUMPDEST DUP2 EQ PUSH2 0x5FF JUMPI PUSH1 0x0 DUP1 REVERT JUMPDEST POP JUMP JUMPDEST PUSH1 0x0 DUP2 CALLDATALOAD SWAP1 POP PUSH2 0x611 DUP2 PUSH2 0x5EB JUMP JUMPDEST SWAP3 SWAP2 POP POP JUMP JUMPDEST PUSH1 0x0 DUP1 PUSH1 0x0 DUP1 PUSH1 0x60 DUP6 DUP8 SUB SLT ISZERO PUSH2 0x631 JUMPI PUSH2 0x630 PUSH2 0x570 JUMP JUMPDEST JUMPDEST PUSH1 0x0 DUP6 ADD CALLDATALOAD PUSH8 0xFFFFFFFFFFFFFFFF DUP2 GT ISZERO PUSH2 0x64F JUMPI PUSH2 0x64E PUSH2 0x575 JUMP JUMPDEST JUMPDEST PUSH2 0x65B DUP8 DUP3 DUP9 ADD PUSH2 0x589 JUMP JUMPDEST SWAP5 POP SWAP5 POP POP PUSH1 0x20 PUSH2 0x66E DUP8 DUP3 DUP9 ADD PUSH2 0x602 JUMP JUMPDEST SWAP3 POP POP PUSH1 0x40 PUSH2 0x67F DUP8 DUP3 DUP9 ADD PUSH2 0x602 JUMP JUMPDEST SWAP2 POP POP SWAP3 SWAP6 SWAP2 SWAP5 POP SWAP3 POP JUMP JUMPDEST PUSH1 0x0 DUP2 MLOAD SWAP1 POP SWAP2 SWAP1 POP JUMP JUMPDEST PUSH1 0x0 DUP3 DUP3 MSTORE PUSH1 0x20 DUP3 ADD SWAP1 POP SWAP3 SWAP2 POP POP JUMP JUMPDEST PUSH1 0x0 DUP2 SWAP1 POP PUSH1 0x20 DUP3 ADD SWAP1 POP SWAP2 SWAP1 POP JUMP JUMPDEST PUSH1 0x0 DUP2 SWAP1 POP SWAP2 SWAP1 POP JUMP JUMPDEST PUSH2 0x6CA DUP2 PUSH2 0x6B7 JUMP JUMPDEST DUP3 MSTORE POP POP JUMP JUMPDEST PUSH1 0x0 DUP2 MLOAD SWAP1 POP SWAP2 SWAP1 POP JUMP JUMPDEST PUSH1 0x0 DUP3 DUP3 MSTORE PUSH1 0x20 DUP3 ADD SWAP1 POP SWAP3 SWAP2 POP POP JUMP JUMPDEST PUSH1 0x0 JUMPDEST DUP4 DUP2 LT ISZERO PUSH2 0x70A JUMPI DUP1 DUP3 ADD MLOAD DUP2 DUP5 ADD MSTORE PUSH1 0x20 DUP2 ADD SWAP1 POP PUSH2 0x6EF JUMP JUMPDEST DUP4 DUP2 GT ISZERO PUSH2 0x719 JUMPI PUSH1 0x0 DUP5 DUP5 ADD MSTORE JUMPDEST POP POP POP POP JUMP JUMPDEST PUSH1 0x0 PUSH1 0x1F NOT PUSH1 0x1F DUP4 ADD AND SWAP1 POP SWAP2 SWAP1 POP JUMP JUMPDEST PUSH1 0x0 PUSH2 0x73B DUP3 PUSH2 0x6D0 JUMP JUMPDEST PUSH2 0x745 DUP2 DUP6 PUSH2 0x6DB JUMP JUMPDEST SWAP4 POP PUSH2 0x755 DUP2 DUP6 PUSH1 0x20 DUP7 ADD PUSH2 0x6EC JUMP JUMPDEST PUSH2 0x75E DUP2 PUSH2 0x71F JUMP JUMPDEST DUP5 ADD SWAP2 POP POP SWAP3 SWAP2 POP POP JUMP JUMPDEST PUSH2 0x772 DUP2 PUSH2 0x5DF JUMP JUMPDEST DUP3 MSTORE POP POP JUMP JUMPDEST PUSH1 0x0 PUSH1 0xA0 DUP4 ADD PUSH1 0x0 DUP4 ADD MLOAD PUSH2 0x790 PUSH1 0x0 DUP7 ADD DUP3 PUSH2 0x6C1 JUMP JUMPDEST POP PUSH1 0x20 DUP4 ADD MLOAD DUP5 DUP3 SUB PUSH1 0x20 DUP7 ADD MSTORE PUSH2 0x7A8 DUP3 DUP3 PUSH2 0x730 JUMP JUMPDEST SWAP2 POP POP PUSH1 0x40 DUP4 ADD MLOAD PUSH2 0x7BD PUSH1 0x40 DUP7 ADD DUP3 PUSH2 0x769 JUMP JUMPDEST POP PUSH1 0x60 DUP4 ADD MLOAD PUSH2 0x7D0 PUSH1 0x60 DUP7 ADD DUP3 PUSH2 0x769 JUMP JUMPDEST POP PUSH1 0x80 DUP4 ADD MLOAD PUSH2 0x7E3 PUSH1 0x80 DUP7 ADD DUP3 PUSH2 0x6C1 JUMP JUMPDEST POP DUP1 SWAP2 POP POP SWAP3 SWAP2 POP POP JUMP JUMPDEST PUSH1 0x0 PUSH2 0x7FA DUP4 DUP4 PUSH2 0x778 JUMP JUMPDEST SWAP1 POP SWAP3 SWAP2 POP POP JUMP JUMPDEST PUSH1 0x0 PUSH1 0x20 DUP3 ADD SWAP1 POP SWAP2 SWAP1 POP JUMP JUMPDEST PUSH1 0x0 PUSH2 0x81A DUP3 PUSH2 0x68B JUMP JUMPDEST PUSH2 0x824 DUP2 DUP6 PUSH2 0x696 JUMP JUMPDEST SWAP4 POP DUP4 PUSH1 0x20 DUP3 MUL DUP6 ADD PUSH2 0x836 DUP6 PUSH2 0x6A7 JUMP JUMPDEST DUP1 PUSH1 0x0 JUMPDEST DUP6 DUP2 LT ISZERO PUSH2 0x872 JUMPI DUP5 DUP5 SUB DUP10 MSTORE DUP2 MLOAD PUSH2 0x853 DUP6 DUP3 PUSH2 0x7EE JUMP JUMPDEST SWAP5 POP PUSH2 0x85E DUP4 PUSH2 0x802 JUMP JUMPDEST SWAP3 POP PUSH1 0x20 DUP11 ADD SWAP10 POP POP PUSH1 0x1 DUP2 ADD SWAP1 POP PUSH2 0x83A JUMP JUMPDEST POP DUP3 SWAP8 POP DUP8 SWAP6 POP POP POP POP POP POP SWAP3 SWAP2 POP POP JUMP JUMPDEST PUSH1 0x0 PUSH1 0x20 DUP3 ADD SWAP1 POP DUP2 DUP2 SUB PUSH1 0x0 DUP4 ADD MSTORE PUSH2 0x89E DUP2 DUP5 PUSH2 0x80F JUMP JUMPDEST SWAP1 POP SWAP3 SWAP2 POP POP JUMP JUMPDEST PUSH32 0x4E487B7100000000000000000000000000000000000000000000000000000000 PUSH1 0x0 MSTORE PUSH1 0x41 PUSH1 0x4 MSTORE PUSH1 0x24 PUSH1 0x0 REVERT JUMPDEST PUSH32 0x4E487B7100000000000000000000000000000000000000000000000000000000 PUSH1 0x0 MSTORE PUSH1 0x22 PUSH1 0x4 MSTORE PUSH1 0x24 PUSH1 0x0 REVERT JUMPDEST PUSH1 0x0 PUSH1 0x2 DUP3 DIV SWAP1 POP PUSH1 0x1 DUP3 AND DUP1 PUSH2 0x91C JUMPI PUSH1 0x7F DUP3 AND SWAP2 POP JUMPDEST PUSH1 0x20 DUP3 LT DUP2 SUB PUSH2 0x92F JUMPI PUSH2 0x92E PUSH2 0x8D5 JUMP JUMPDEST JUMPDEST POP SWAP2 SWAP1 POP JUMP JUMPDEST PUSH1 0x0 DUP2 SWAP1 POP DUP2 PUSH1 0x0 MSTORE PUSH1 0x20 PUSH1 0x0 KECCAK256 SWAP1 POP SWAP2 SWAP1 POP JUMP JUMPDEST PUSH1 0x0 PUSH1 0x20 PUSH1 0x1F DUP4 ADD DIV SWAP1 POP SWAP2 SWAP1 POP JUMP JUMPDEST PUSH1 0x0 DUP3 DUP3 SHL SWAP1 POP SWAP3 SWAP2 POP POP JUMP JUMPDEST PUSH1 0x0 PUSH1 0x8 DUP4 MUL PUSH2 0x997 PUSH32 0xFFFFFFFFFFFFFFFFFFFFFFFFFFFFFFFFFFFFFFFFFFFFFFFFFFFFFFFFFFFFFFFF DUP3 PUSH2 0x95A JUMP JUMPDEST PUSH2 0x9A1 DUP7 DUP4 PUSH2 0x95A JUMP JUMPDEST SWAP6 POP DUP1 NOT DUP5 AND SWAP4 POP DUP1 DUP7 AND DUP5 OR SWAP3 POP POP POP SWAP4 SWAP3 POP POP POP JUMP JUMPDEST PUSH1 0x0 DUP2 SWAP1 POP SWAP2 SWAP1 POP JUMP JUMPDEST PUSH1 0x0 PUSH2 0x9DE PUSH2 0x9D9 PUSH2 0x9D4 DUP5 PUSH2 0x6B7 JUMP JUMPDEST PUSH2 0x9B9 JUMP JUMPDEST PUSH2 0x6B7 JUMP JUMPDEST SWAP1 POP SWAP2 SWAP1 POP JUMP JUMPDEST PUSH1 0x0 DUP2 SWAP1 POP SWAP2 SWAP1 POP JUMP JUMPDEST PUSH2 0x9F8 DUP4 PUSH2 0x9C3 JUMP JUMPDEST PUSH2 0xA0C PUSH2 0xA04 DUP3 PUSH2 0x9E5 JUMP JUMPDEST DUP5 DUP5 SLOAD PUSH2 0x967 JUMP JUMPDEST DUP3 SSTORE POP POP POP POP JUMP JUMPDEST PUSH1 0x0 SWAP1 JUMP JUMPDEST PUSH2 0xA21 PUSH2 0xA14 JUMP JUMPDEST PUSH2 0xA2C DUP2 DUP5 DUP5 PUSH2 0x9EF JUMP JUMPDEST POP POP POP JUMP JUMPDEST JUMPDEST DUP2 DUP2 LT ISZERO PUSH2 0xA50 JUMPI PUSH2 0xA45 PUSH1 0x0 DUP3 PUSH2 0xA19 JUMP JUMPDEST PUSH1 0x1 DUP2 ADD SWAP1 POP PUSH2 0xA32 JUMP JUMPDEST POP POP JUMP JUMPDEST PUSH1 0x1F DUP3 GT ISZERO PUSH2 0xA95 JUMPI PUSH2 0xA66 DUP2 PUSH2 0x935 JUMP JUMPDEST PUSH2 0xA6F DUP5 PUSH2 0x94A JUMP JUMPDEST DUP2 ADD PUSH1 0x20 DUP6 LT ISZERO PUSH2 0xA7E JUMPI DUP2 SWAP1 POP JUMPDEST PUSH2 0xA92 PUSH2 0xA8A DUP6 PUSH2 0x94A JUMP JUMPDEST DUP4 ADD DUP3 PUSH2 0xA31 JUMP JUMPDEST POP POP JUMPDEST POP POP POP JUMP JUMPDEST PUSH1 0x0 DUP3 DUP3 SHR SWAP1 POP SWAP3 SWAP2 POP POP JUMP JUMPDEST PUSH1 0x0 PUSH2 0xAB8 PUSH1 0x0 NOT DUP5 PUSH1 0x8 MUL PUSH2 0xA9A JUMP JUMPDEST NOT DUP1 DUP4 AND SWAP2 POP POP SWAP3 SWAP2 POP POP JUMP JUMPDEST PUSH1 0x0 PUSH2 0xAD1 DUP4 DUP4 PUSH2 0xAA7 JUMP JUMPDEST SWAP2 POP DUP3 PUSH1 0x2 MUL DUP3 OR SWAP1 POP SWAP3 SWAP2 POP POP JUMP JUMPDEST PUSH2 0xAEA DUP3 PUSH2 0x6D0 JUMP JUMPDEST PUSH8 0xFFFFFFFFFFFFFFFF DUP2 GT ISZERO PUSH2 0xB03 JUMPI PUSH2 0xB02 PUSH2 0x8A6 JUMP JUMPDEST JUMPDEST PUSH2 0xB0D DUP3 SLOAD PUSH2 0x904 JUMP JUMPDEST PUSH2 0xB18 DUP3 DUP3 DUP6 PUSH2 0xA54 JUMP JUMPDEST PUSH1 0x0 PUSH1 0x20 SWAP1 POP PUSH1 0x1F DUP4 GT PUSH1 0x1 DUP2 EQ PUSH2 0xB4B JUMPI PUSH1 0x0 DUP5 ISZERO PUSH2 0xB39 JUMPI DUP3 DUP8 ADD MLOAD SWAP1 POP JUMPDEST PUSH2 0xB43 DUP6 DUP3 PUSH2 0xAC5 JUMP JUMPDEST DUP7 SSTORE POP PUSH2 0xBAB JUMP JUMPDEST PUSH1 0x1F NOT DUP5 AND PUSH2 0xB59 DUP7 PUSH2 0x935 JUMP JUMPDEST PUSH1 0x0 JUMPDEST DUP3 DUP2 LT ISZERO PUSH2 0xB81 JUMPI DUP5 DUP10 ADD MLOAD DUP3 SSTORE PUSH1 0x1 DUP3 ADD SWAP2 POP PUSH1 0x20 DUP6 ADD SWAP5 POP PUSH1 0x20 DUP2 ADD SWAP1 POP PUSH2 0xB5C JUMP JUMPDEST DUP7 DUP4 LT ISZERO PUSH2 0xB9E JUMPI DUP5 DUP10 ADD MLOAD PUSH2 0xB9A PUSH1 0x1F DUP10 AND DUP3 PUSH2 0xAA7 JUMP JUMPDEST DUP4 SSTORE POP JUMPDEST PUSH1 0x1 PUSH1 0x2 DUP9 MUL ADD DUP9 SSTORE POP POP POP JUMPDEST POP POP POP POP POP POP JUMP JUMPDEST PUSH32 0x4E487B7100000000000000000000000000000000000000000000000000000000 PUSH1 0x0 MSTORE PUSH1 0x32 PUSH1 0x4 MSTORE PUSH1 0x24 PUSH1 0x0 REVERT JUMPDEST PUSH32 0x4E487B7100000000000000000000000000000000000000000000000000000000 PUSH1 0x0 MSTORE PUSH1 0x11 PUSH1 0x4 MSTORE PUSH1 0x24 PUSH1 0x0 REVERT JUMPDEST PUSH1 0x0 PUSH2 0xC1C DUP3 PUSH2 0x6B7 JUMP JUMPDEST SWAP2 POP PUSH32 0xFFFFFFFFFFFFFFFFFFFFFFFFFFFFFFFFFFFFFFFFFFFFFFFFFFFFFFFFFFFFFFFF DUP3 SUB PUSH2 0xC4E JUMPI PUSH2 0xC4D PUSH2 0xBE2 JUMP JUMPDEST JUMPDEST PUSH1 0x1 DUP3 ADD SWAP1 POP SWAP2 SWAP1 POP JUMP INVALID LOG2 PUSH5 0x6970667358 0x22 SLT KECCAK256 DUP1 SUB MOD LOG2 0xD0 0xBA SWAP6 0xDA 0xAD 0xD0 LOG0 PUSH16 0x35F040FEC85D47F9774F4AC8F6DAD33C 0xD0 SWAP3 0xAB TIMESTAMP PUSH5 0x736F6C6343 STOP ADDMOD 0xF STOP CALLER "
				},
				"gasEstimates": {
					"creation": {
						"codeDepositCost": "643000",
						"executionCost": "676",
						"totalCost": "643676"
					},
					"external": {
						"addTask(string,bool,bool)": "infinite",
						"getTask()": "infinite"
					}
				},
				"methodIdentifiers": {
					"addTask(string,bool,bool)": "8a7abe76",
					"getTask()": "a31662d2"
				}
			},
			"storageLayout": {
				"storage": [
					{
						"astId": 16,
						"contract": "contracts/Todo.sol:Todo",
						"label": "tasks",
						"offset": 0,
						"slot": "0",
						"type": "t_array(t_struct(Task)12_storage)dyn_storage"
					},
					{
						"astId": 20,
						"contract": "contracts/Todo.sol:Todo",
						"label": "taskOwnerByTaskId",
						"offset": 0,
						"slot": "1",
						"type": "t_mapping(t_uint256,t_address)"
					}
				],
				"types": {
					"t_address": {
						"encoding": "inplace",
						"label": "address",
						"numberOfBytes": "20"
					},
					"t_array(t_struct(Task)12_storage)dyn_storage": {
						"base": "t_struct(Task)12_storage",
						"encoding": "dynamic_array",
						"label": "struct Todo.Task[]",
						"numberOfBytes": "32"
					},
					"t_bool": {
						"encoding": "inplace",
						"label": "bool",
						"numberOfBytes": "1"
					},
					"t_mapping(t_uint256,t_address)": {
						"encoding": "mapping",
						"key": "t_uint256",
						"label": "mapping(uint256 => address)",
						"numberOfBytes": "32",
						"value": "t_address"
					},
					"t_string_storage": {
						"encoding": "bytes",
						"label": "string",
						"numberOfBytes": "32"
					},
					"t_struct(Task)12_storage": {
						"encoding": "inplace",
						"label": "struct Todo.Task",
						"members": [
							{
								"astId": 3,
								"contract": "contracts/Todo.sol:Todo",
								"label": "id",
								"offset": 0,
								"slot": "0",
								"type": "t_uint256"
							},
							{
								"astId": 5,
								"contract": "contracts/Todo.sol:Todo",
								"label": "text",
								"offset": 0,
								"slot": "1",
								"type": "t_string_storage"
							},
							{
								"astId": 7,
								"contract": "contracts/Todo.sol:Todo",
								"label": "isDone",
								"offset": 0,
								"slot": "2",
								"type": "t_bool"
							},
							{
								"astId": 9,
								"contract": "contracts/Todo.sol:Todo",
								"label": "isDeleted",
								"offset": 1,
								"slot": "2",
								"type": "t_bool"
							},
							{
								"astId": 11,
								"contract": "contracts/Todo.sol:Todo",
								"label": "modifiedCount",
								"offset": 0,
								"slot": "3",
								"type": "t_uint256"
							}
						],
						"numberOfBytes": "128"
					},
					"t_uint256": {
						"encoding": "inplace",
						"label": "uint256",
						"numberOfBytes": "32"
					}
				}
			},
			"userdoc": {
				"kind": "user",
				"methods": {},
				"version": 1
			}
		}
	}
}