{
	"contracts/Todo.sol": {
		"Todo": {
			"abi": [
				{
					"inputs": [],
					"name": "Todo__NotAuthorized",
					"type": "error"
				},
				{
					"anonymous": false,
					"inputs": [
						{
							"indexed": true,
							"internalType": "address",
							"name": "wallet",
							"type": "address"
						},
						{
							"indexed": true,
							"internalType": "uint256",
							"name": "taskId",
							"type": "uint256"
						}
					],
					"name": "AddTask",
					"type": "event"
				},
				{
					"anonymous": false,
					"inputs": [
						{
							"indexed": true,
							"internalType": "uint256",
							"name": "taskId",
							"type": "uint256"
						},
						{
							"indexed": true,
							"internalType": "bool",
							"name": "isDone",
							"type": "bool"
						}
					],
					"name": "CompleteTask",
					"type": "event"
				},
				{
					"anonymous": false,
					"inputs": [
						{
							"indexed": true,
							"internalType": "uint256",
							"name": "taskId",
							"type": "uint256"
						},
						{
							"indexed": true,
							"internalType": "bool",
							"name": "isDeleted",
							"type": "bool"
						}
					],
					"name": "DeleteTask",
					"type": "event"
				},
				{
					"anonymous": false,
					"inputs": [
						{
							"indexed": true,
							"internalType": "uint256",
							"name": "taskId",
							"type": "uint256"
						},
						{
							"indexed": true,
							"internalType": "bool",
							"name": "isChanged",
							"type": "bool"
						}
					],
					"name": "ModifyTask",
					"type": "event"
				},
				{
					"inputs": [
						{
							"internalType": "string",
							"name": "_text",
							"type": "string"
						},
						{
							"internalType": "bool",
							"name": "_isDone",
							"type": "bool"
						}
					],
					"name": "addTask",
					"outputs": [],
					"stateMutability": "nonpayable",
					"type": "function"
				},
				{
					"inputs": [
						{
							"internalType": "uint256",
							"name": "_taskId",
							"type": "uint256"
						},
						{
							"internalType": "bool",
							"name": "_isDone",
							"type": "bool"
						}
					],
					"name": "deleteTask",
					"outputs": [],
					"stateMutability": "nonpayable",
					"type": "function"
				},
				{
					"inputs": [],
					"name": "getTask",
					"outputs": [
						{
							"components": [
								{
									"internalType": "uint256",
									"name": "id",
									"type": "uint256"
								},
								{
									"internalType": "string",
									"name": "text",
									"type": "string"
								},
								{
									"internalType": "bool",
									"name": "isDone",
									"type": "bool"
								},
								{
									"internalType": "uint256",
									"name": "modifiedCount",
									"type": "uint256"
								}
							],
							"internalType": "struct Todo.Task[]",
							"name": "",
							"type": "tuple[]"
						}
					],
					"stateMutability": "view",
					"type": "function"
				}
			],
			"devdoc": {
				"kind": "dev",
				"methods": {},
				"version": 1
			},
			"evm": {
				"assembly": "    /* \"contracts/Todo.sol\":88:1815  contract Todo {... */\n  mstore(0x40, 0x80)\n  callvalue\n  dup1\n  iszero\n  tag_1\n  jumpi\n  0x00\n  dup1\n  revert\ntag_1:\n  pop\n  dataSize(sub_0)\n  dup1\n  dataOffset(sub_0)\n  0x00\n  codecopy\n  0x00\n  return\nstop\n\nsub_0: assembly {\n        /* \"contracts/Todo.sol\":88:1815  contract Todo {... */\n      mstore(0x40, 0x80)\n      callvalue\n      dup1\n      iszero\n      tag_1\n      jumpi\n      0x00\n      dup1\n      revert\n    tag_1:\n      pop\n      jumpi(tag_2, lt(calldatasize, 0x04))\n      shr(0xe0, calldataload(0x00))\n      dup1\n      0x20df4581\n      eq\n      tag_3\n      jumpi\n      dup1\n      0xa31662d2\n      eq\n      tag_4\n      jumpi\n      dup1\n      0xaaba2907\n      eq\n      tag_5\n      jumpi\n    tag_2:\n      0x00\n      dup1\n      revert\n        /* \"contracts/Todo.sol\":673:926  function addTask(string calldata _text, bool _isDone) external {... */\n    tag_3:\n      tag_6\n      0x04\n      dup1\n      calldatasize\n      sub\n      dup2\n      add\n      swap1\n      tag_7\n      swap2\n      swap1\n      tag_8\n      jump\t// in\n    tag_7:\n      tag_9\n      jump\t// in\n    tag_6:\n      stop\n        /* \"contracts/Todo.sol\":1173:1792  function getTask() external view returns (Task[] memory) {... */\n    tag_4:\n      tag_10\n      tag_11\n      jump\t// in\n    tag_10:\n      mload(0x40)\n      tag_12\n      swap2\n      swap1\n      tag_13\n      jump\t// in\n    tag_12:\n      mload(0x40)\n      dup1\n      swap2\n      sub\n      swap1\n      return\n        /* \"contracts/Todo.sol\":932:1149  function deleteTask(uint256 _taskId, bool _isDone) external {... */\n    tag_5:\n      tag_14\n      0x04\n      dup1\n      calldatasize\n      sub\n      dup2\n      add\n      swap1\n      tag_15\n      swap2\n      swap1\n      tag_16\n      jump\t// in\n    tag_15:\n      tag_17\n      jump\t// in\n    tag_14:\n      stop\n        /* \"contracts/Todo.sol\":673:926  function addTask(string calldata _text, bool _isDone) external {... */\n    tag_9:\n        /* \"contracts/Todo.sol\":746:760  uint256 taskId */\n      0x00\n        /* \"contracts/Todo.sol\":763:768  tasks */\n      dup1\n        /* \"contracts/Todo.sol\":763:775  tasks.length */\n      dup1\n      sload\n      swap1\n      pop\n        /* \"contracts/Todo.sol\":746:775  uint256 taskId = tasks.length */\n      swap1\n      pop\n        /* \"contracts/Todo.sol\":785:790  tasks */\n      0x00\n        /* \"contracts/Todo.sol\":796:827  Task(taskId, _text, _isDone, 0) */\n      mload(0x40)\n      dup1\n      0x80\n      add\n      0x40\n      mstore\n      dup1\n        /* \"contracts/Todo.sol\":801:807  taskId */\n      dup4\n        /* \"contracts/Todo.sol\":796:827  Task(taskId, _text, _isDone, 0) */\n      dup2\n      mstore\n      0x20\n      add\n        /* \"contracts/Todo.sol\":809:814  _text */\n      dup7\n      dup7\n        /* \"contracts/Todo.sol\":796:827  Task(taskId, _text, _isDone, 0) */\n      dup1\n      dup1\n      0x1f\n      add\n      0x20\n      dup1\n      swap2\n      div\n      mul\n      0x20\n      add\n      mload(0x40)\n      swap1\n      dup2\n      add\n      0x40\n      mstore\n      dup1\n      swap4\n      swap3\n      swap2\n      swap1\n      dup2\n      dup2\n      mstore\n      0x20\n      add\n      dup4\n      dup4\n      dup1\n      dup3\n      dup5\n      calldatacopy\n      0x00\n      dup2\n      dup5\n      add\n      mstore\n      not(0x1f)\n      0x1f\n      dup3\n      add\n      and\n      swap1\n      pop\n      dup1\n      dup4\n      add\n      swap3\n      pop\n      pop\n      pop\n      pop\n      pop\n      pop\n      pop\n      dup2\n      mstore\n      0x20\n      add\n        /* \"contracts/Todo.sol\":816:823  _isDone */\n      dup5\n        /* \"contracts/Todo.sol\":796:827  Task(taskId, _text, _isDone, 0) */\n      iszero\n      iszero\n      dup2\n      mstore\n      0x20\n      add\n        /* \"contracts/Todo.sol\":825:826  0 */\n      0x00\n        /* \"contracts/Todo.sol\":796:827  Task(taskId, _text, _isDone, 0) */\n      dup2\n      mstore\n      pop\n        /* \"contracts/Todo.sol\":785:828  tasks.push(Task(taskId, _text, _isDone, 0)) */\n      swap1\n      dup1\n      0x01\n      dup2\n      sload\n      add\n      dup1\n      dup3\n      sstore\n      dup1\n      swap2\n      pop\n      pop\n      0x01\n      swap1\n      sub\n      swap1\n      0x00\n      mstore\n      keccak256(0x00, 0x20)\n      swap1\n      0x04\n      mul\n      add\n      0x00\n      swap1\n      swap2\n      swap1\n      swap2\n      swap1\n      swap2\n      pop\n      0x00\n      dup3\n      add\n      mload\n      dup2\n      0x00\n      add\n      sstore\n      0x20\n      dup3\n      add\n      mload\n      dup2\n      0x01\n      add\n      swap1\n      dup2\n      tag_20\n      swap2\n      swap1\n      tag_21\n      jump\t// in\n    tag_20:\n      pop\n      0x40\n      dup3\n      add\n      mload\n      dup2\n      0x02\n      add\n      exp(0x0100, 0x00)\n      dup2\n      sload\n      dup2\n      0xff\n      mul\n      not\n      and\n      swap1\n      dup4\n      iszero\n      iszero\n      mul\n      or\n      swap1\n      sstore\n      pop\n      0x60\n      dup3\n      add\n      mload\n      dup2\n      0x03\n      add\n      sstore\n      pop\n      pop\n        /* \"contracts/Todo.sol\":866:876  msg.sender */\n      caller\n        /* \"contracts/Todo.sol\":838:855  taskOwnerByTaskId */\n      0x01\n        /* \"contracts/Todo.sol\":838:863  taskOwnerByTaskId[taskId] */\n      0x00\n        /* \"contracts/Todo.sol\":856:862  taskId */\n      dup4\n        /* \"contracts/Todo.sol\":838:863  taskOwnerByTaskId[taskId] */\n      dup2\n      mstore\n      0x20\n      add\n      swap1\n      dup2\n      mstore\n      0x20\n      add\n      0x00\n      keccak256\n      0x00\n        /* \"contracts/Todo.sol\":838:876  taskOwnerByTaskId[taskId] = msg.sender */\n      0x0100\n      exp\n      dup2\n      sload\n      dup2\n      0xffffffffffffffffffffffffffffffffffffffff\n      mul\n      not\n      and\n      swap1\n      dup4\n      0xffffffffffffffffffffffffffffffffffffffff\n      and\n      mul\n      or\n      swap1\n      sstore\n      pop\n        /* \"contracts/Todo.sol\":912:918  taskId */\n      dup1\n        /* \"contracts/Todo.sol\":900:910  msg.sender */\n      caller\n        /* \"contracts/Todo.sol\":892:919  AddTask(msg.sender, taskId) */\n      0xffffffffffffffffffffffffffffffffffffffff\n      and\n      0x1f54e1ba1832d428fbd7e7792beaf62b1fc5a382c207ffd614209c1413e94fda\n      mload(0x40)\n      mload(0x40)\n      dup1\n      swap2\n      sub\n      swap1\n      log3\n        /* \"contracts/Todo.sol\":736:926  {... */\n      pop\n        /* \"contracts/Todo.sol\":673:926  function addTask(string calldata _text, bool _isDone) external {... */\n      pop\n      pop\n      pop\n      jump\t// out\n        /* \"contracts/Todo.sol\":1173:1792  function getTask() external view returns (Task[] memory) {... */\n    tag_11:\n        /* \"contracts/Todo.sol\":1215:1228  Task[] memory */\n      0x60\n        /* \"contracts/Todo.sol\":1240:1273  Task[] memory pendingTasksOfOwner */\n      0x00\n        /* \"contracts/Todo.sol\":1287:1292  tasks */\n      dup1\n        /* \"contracts/Todo.sol\":1287:1299  tasks.length */\n      dup1\n      sload\n      swap1\n      pop\n        /* \"contracts/Todo.sol\":1276:1300  new Task[](tasks.length) */\n      0xffffffffffffffff\n      dup2\n      gt\n      iszero\n      tag_23\n      jumpi\n      tag_24\n      tag_25\n      jump\t// in\n    tag_24:\n    tag_23:\n      mload(0x40)\n      swap1\n      dup1\n      dup3\n      mstore\n      dup1\n      0x20\n      mul\n      0x20\n      add\n      dup3\n      add\n      0x40\n      mstore\n      dup1\n      iszero\n      tag_26\n      jumpi\n      dup2\n      0x20\n      add\n    tag_27:\n      tag_28\n      tag_29\n      jump\t// in\n    tag_28:\n      dup2\n      mstore\n      0x20\n      add\n      swap1\n      0x01\n      swap1\n      sub\n      swap1\n      dup2\n      tag_27\n      jumpi\n      swap1\n      pop\n    tag_26:\n      pop\n        /* \"contracts/Todo.sol\":1240:1300  Task[] memory pendingTasksOfOwner = new Task[](tasks.length) */\n      swap1\n      pop\n        /* \"contracts/Todo.sol\":1310:1323  uint256 index */\n      0x00\n        /* \"contracts/Todo.sol\":1343:1352  uint256 i */\n      dup1\n        /* \"contracts/Todo.sol\":1338:1598  for (uint256 i = 0; i < tasks.length; i++) {... */\n    tag_30:\n        /* \"contracts/Todo.sol\":1362:1367  tasks */\n      0x00\n        /* \"contracts/Todo.sol\":1362:1374  tasks.length */\n      dup1\n      sload\n      swap1\n      pop\n        /* \"contracts/Todo.sol\":1358:1359  i */\n      dup2\n        /* \"contracts/Todo.sol\":1358:1374  i < tasks.length */\n      lt\n        /* \"contracts/Todo.sol\":1338:1598  for (uint256 i = 0; i < tasks.length; i++) {... */\n      iszero\n      tag_31\n      jumpi\n        /* \"contracts/Todo.sol\":1440:1450  msg.sender */\n      caller\n        /* \"contracts/Todo.sol\":1416:1450  taskOwnerByTaskId[i] == msg.sender */\n      0xffffffffffffffffffffffffffffffffffffffff\n      and\n        /* \"contracts/Todo.sol\":1416:1433  taskOwnerByTaskId */\n      0x01\n        /* \"contracts/Todo.sol\":1416:1436  taskOwnerByTaskId[i] */\n      0x00\n        /* \"contracts/Todo.sol\":1434:1435  i */\n      dup4\n        /* \"contracts/Todo.sol\":1416:1436  taskOwnerByTaskId[i] */\n      dup2\n      mstore\n      0x20\n      add\n      swap1\n      dup2\n      mstore\n      0x20\n      add\n      0x00\n      keccak256\n      0x00\n      swap1\n      sload\n      swap1\n      0x0100\n      exp\n      swap1\n      div\n      0xffffffffffffffffffffffffffffffffffffffff\n      and\n        /* \"contracts/Todo.sol\":1416:1450  taskOwnerByTaskId[i] == msg.sender */\n      0xffffffffffffffffffffffffffffffffffffffff\n      and\n      eq\n        /* \"contracts/Todo.sol\":1416:1478  taskOwnerByTaskId[i] == msg.sender && tasks[i].isDone == false */\n      dup1\n      iszero\n      tag_33\n      jumpi\n      pop\n        /* \"contracts/Todo.sol\":1473:1478  false */\n      0x00\n        /* \"contracts/Todo.sol\":1454:1478  tasks[i].isDone == false */\n      iszero\n      iszero\n        /* \"contracts/Todo.sol\":1454:1459  tasks */\n      0x00\n        /* \"contracts/Todo.sol\":1460:1461  i */\n      dup3\n        /* \"contracts/Todo.sol\":1454:1462  tasks[i] */\n      dup2\n      sload\n      dup2\n      lt\n      tag_34\n      jumpi\n      tag_35\n      tag_36\n      jump\t// in\n    tag_35:\n    tag_34:\n      swap1\n      0x00\n      mstore\n      keccak256(0x00, 0x20)\n      swap1\n      0x04\n      mul\n      add\n        /* \"contracts/Todo.sol\":1454:1469  tasks[i].isDone */\n      0x02\n      add\n      0x00\n      swap1\n      sload\n      swap1\n      0x0100\n      exp\n      swap1\n      div\n      0xff\n      and\n        /* \"contracts/Todo.sol\":1454:1478  tasks[i].isDone == false */\n      iszero\n      iszero\n      eq\n        /* \"contracts/Todo.sol\":1416:1478  taskOwnerByTaskId[i] == msg.sender && tasks[i].isDone == false */\n    tag_33:\n        /* \"contracts/Todo.sol\":1395:1588  if (... */\n      iszero\n      tag_38\n      jumpi\n        /* \"contracts/Todo.sol\":1540:1545  tasks */\n      0x00\n        /* \"contracts/Todo.sol\":1546:1547  i */\n      dup2\n        /* \"contracts/Todo.sol\":1540:1548  tasks[i] */\n      dup2\n      sload\n      dup2\n      lt\n      tag_39\n      jumpi\n      tag_40\n      tag_36\n      jump\t// in\n    tag_40:\n    tag_39:\n      swap1\n      0x00\n      mstore\n      keccak256(0x00, 0x20)\n      swap1\n      0x04\n      mul\n      add\n        /* \"contracts/Todo.sol\":1511:1548  pendingTasksOfOwner[index] = tasks[i] */\n      mload(0x40)\n      dup1\n      0x80\n      add\n      0x40\n      mstore\n      swap1\n      dup2\n      0x00\n      dup3\n      add\n      sload\n      dup2\n      mstore\n      0x20\n      add\n      0x01\n      dup3\n      add\n      dup1\n      sload\n      tag_42\n      swap1\n      tag_43\n      jump\t// in\n    tag_42:\n      dup1\n      0x1f\n      add\n      0x20\n      dup1\n      swap2\n      div\n      mul\n      0x20\n      add\n      mload(0x40)\n      swap1\n      dup2\n      add\n      0x40\n      mstore\n      dup1\n      swap3\n      swap2\n      swap1\n      dup2\n      dup2\n      mstore\n      0x20\n      add\n      dup3\n      dup1\n      sload\n      tag_44\n      swap1\n      tag_43\n      jump\t// in\n    tag_44:\n      dup1\n      iszero\n      tag_45\n      jumpi\n      dup1\n      0x1f\n      lt\n      tag_46\n      jumpi\n      0x0100\n      dup1\n      dup4\n      sload\n      div\n      mul\n      dup4\n      mstore\n      swap2\n      0x20\n      add\n      swap2\n      jump(tag_45)\n    tag_46:\n      dup3\n      add\n      swap2\n      swap1\n      0x00\n      mstore\n      keccak256(0x00, 0x20)\n      swap1\n    tag_47:\n      dup2\n      sload\n      dup2\n      mstore\n      swap1\n      0x01\n      add\n      swap1\n      0x20\n      add\n      dup1\n      dup4\n      gt\n      tag_47\n      jumpi\n      dup3\n      swap1\n      sub\n      0x1f\n      and\n      dup3\n      add\n      swap2\n    tag_45:\n      pop\n      pop\n      pop\n      pop\n      pop\n      dup2\n      mstore\n      0x20\n      add\n      0x02\n      dup3\n      add\n      0x00\n      swap1\n      sload\n      swap1\n      0x0100\n      exp\n      swap1\n      div\n      0xff\n      and\n      iszero\n      iszero\n      iszero\n      iszero\n      dup2\n      mstore\n      0x20\n      add\n      0x03\n      dup3\n      add\n      sload\n      dup2\n      mstore\n      pop\n      pop\n        /* \"contracts/Todo.sol\":1511:1530  pendingTasksOfOwner */\n      dup4\n        /* \"contracts/Todo.sol\":1531:1536  index */\n      dup4\n        /* \"contracts/Todo.sol\":1511:1537  pendingTasksOfOwner[index] */\n      dup2\n      mload\n      dup2\n      lt\n      tag_48\n      jumpi\n      tag_49\n      tag_36\n      jump\t// in\n    tag_49:\n    tag_48:\n      0x20\n      mul\n      0x20\n      add\n      add\n        /* \"contracts/Todo.sol\":1511:1548  pendingTasksOfOwner[index] = tasks[i] */\n      dup2\n      swap1\n      mstore\n      pop\n        /* \"contracts/Todo.sol\":1566:1573  index++ */\n      dup2\n      dup1\n      tag_50\n      swap1\n      tag_51\n      jump\t// in\n    tag_50:\n      swap3\n      pop\n      pop\n        /* \"contracts/Todo.sol\":1395:1588  if (... */\n    tag_38:\n        /* \"contracts/Todo.sol\":1376:1379  i++ */\n      dup1\n      dup1\n      tag_52\n      swap1\n      tag_51\n      jump\t// in\n    tag_52:\n      swap2\n      pop\n      pop\n        /* \"contracts/Todo.sol\":1338:1598  for (uint256 i = 0; i < tasks.length; i++) {... */\n      jump(tag_30)\n    tag_31:\n      pop\n        /* \"contracts/Todo.sol\":1608:1626  Task[] memory data */\n      0x00\n        /* \"contracts/Todo.sol\":1640:1645  index */\n      dup2\n        /* \"contracts/Todo.sol\":1629:1646  new Task[](index) */\n      0xffffffffffffffff\n      dup2\n      gt\n      iszero\n      tag_53\n      jumpi\n      tag_54\n      tag_25\n      jump\t// in\n    tag_54:\n    tag_53:\n      mload(0x40)\n      swap1\n      dup1\n      dup3\n      mstore\n      dup1\n      0x20\n      mul\n      0x20\n      add\n      dup3\n      add\n      0x40\n      mstore\n      dup1\n      iszero\n      tag_55\n      jumpi\n      dup2\n      0x20\n      add\n    tag_56:\n      tag_57\n      tag_29\n      jump\t// in\n    tag_57:\n      dup2\n      mstore\n      0x20\n      add\n      swap1\n      0x01\n      swap1\n      sub\n      swap1\n      dup2\n      tag_56\n      jumpi\n      swap1\n      pop\n    tag_55:\n      pop\n        /* \"contracts/Todo.sol\":1608:1646  Task[] memory data = new Task[](index) */\n      swap1\n      pop\n        /* \"contracts/Todo.sol\":1661:1670  uint256 i */\n      0x00\n        /* \"contracts/Todo.sol\":1656:1749  for (uint256 i = 0; i < index; i++) {... */\n    tag_58:\n        /* \"contracts/Todo.sol\":1680:1685  index */\n      dup3\n        /* \"contracts/Todo.sol\":1676:1677  i */\n      dup2\n        /* \"contracts/Todo.sol\":1676:1685  i < index */\n      lt\n        /* \"contracts/Todo.sol\":1656:1749  for (uint256 i = 0; i < index; i++) {... */\n      iszero\n      tag_59\n      jumpi\n        /* \"contracts/Todo.sol\":1716:1735  pendingTasksOfOwner */\n      dup4\n        /* \"contracts/Todo.sol\":1736:1737  i */\n      dup2\n        /* \"contracts/Todo.sol\":1716:1738  pendingTasksOfOwner[i] */\n      dup2\n      mload\n      dup2\n      lt\n      tag_61\n      jumpi\n      tag_62\n      tag_36\n      jump\t// in\n    tag_62:\n    tag_61:\n      0x20\n      mul\n      0x20\n      add\n      add\n      mload\n        /* \"contracts/Todo.sol\":1706:1710  data */\n      dup3\n        /* \"contracts/Todo.sol\":1711:1712  i */\n      dup3\n        /* \"contracts/Todo.sol\":1706:1713  data[i] */\n      dup2\n      mload\n      dup2\n      lt\n      tag_63\n      jumpi\n      tag_64\n      tag_36\n      jump\t// in\n    tag_64:\n    tag_63:\n      0x20\n      mul\n      0x20\n      add\n      add\n        /* \"contracts/Todo.sol\":1706:1738  data[i] = pendingTasksOfOwner[i] */\n      dup2\n      swap1\n      mstore\n      pop\n        /* \"contracts/Todo.sol\":1687:1690  i++ */\n      dup1\n      dup1\n      tag_65\n      swap1\n      tag_51\n      jump\t// in\n    tag_65:\n      swap2\n      pop\n      pop\n        /* \"contracts/Todo.sol\":1656:1749  for (uint256 i = 0; i < index; i++) {... */\n      jump(tag_58)\n    tag_59:\n      pop\n        /* \"contracts/Todo.sol\":1766:1785  pendingTasksOfOwner */\n      dup3\n        /* \"contracts/Todo.sol\":1759:1785  return pendingTasksOfOwner */\n      swap4\n      pop\n      pop\n      pop\n      pop\n        /* \"contracts/Todo.sol\":1173:1792  function getTask() external view returns (Task[] memory) {... */\n      swap1\n      jump\t// out\n        /* \"contracts/Todo.sol\":932:1149  function deleteTask(uint256 _taskId, bool _isDone) external {... */\n    tag_17:\n        /* \"contracts/Todo.sol\":1036:1046  msg.sender */\n      caller\n        /* \"contracts/Todo.sol\":1006:1046  taskOwnerByTaskId[_taskId] != msg.sender */\n      0xffffffffffffffffffffffffffffffffffffffff\n      and\n        /* \"contracts/Todo.sol\":1006:1023  taskOwnerByTaskId */\n      0x01\n        /* \"contracts/Todo.sol\":1006:1032  taskOwnerByTaskId[_taskId] */\n      0x00\n        /* \"contracts/Todo.sol\":1024:1031  _taskId */\n      dup5\n        /* \"contracts/Todo.sol\":1006:1032  taskOwnerByTaskId[_taskId] */\n      dup2\n      mstore\n      0x20\n      add\n      swap1\n      dup2\n      mstore\n      0x20\n      add\n      0x00\n      keccak256\n      0x00\n      swap1\n      sload\n      swap1\n      0x0100\n      exp\n      swap1\n      div\n      0xffffffffffffffffffffffffffffffffffffffff\n      and\n        /* \"contracts/Todo.sol\":1006:1046  taskOwnerByTaskId[_taskId] != msg.sender */\n      0xffffffffffffffffffffffffffffffffffffffff\n      and\n      eq\n        /* \"contracts/Todo.sol\":1002:1101  if (taskOwnerByTaskId[_taskId] != msg.sender) {... */\n      tag_67\n      jumpi\n        /* \"contracts/Todo.sol\":1069:1090  Todo__NotAuthorized() */\n      mload(0x40)\n      0x42f9ad2a00000000000000000000000000000000000000000000000000000000\n      dup2\n      mstore\n      0x04\n      add\n      mload(0x40)\n      dup1\n      swap2\n      sub\n      swap1\n      revert\n        /* \"contracts/Todo.sol\":1002:1101  if (taskOwnerByTaskId[_taskId] != msg.sender) {... */\n    tag_67:\n        /* \"contracts/Todo.sol\":1135:1142  _isDone */\n      dup1\n        /* \"contracts/Todo.sol\":1111:1116  tasks */\n      0x00\n        /* \"contracts/Todo.sol\":1117:1124  _taskId */\n      dup4\n        /* \"contracts/Todo.sol\":1111:1125  tasks[_taskId] */\n      dup2\n      sload\n      dup2\n      lt\n      tag_68\n      jumpi\n      tag_69\n      tag_36\n      jump\t// in\n    tag_69:\n    tag_68:\n      swap1\n      0x00\n      mstore\n      keccak256(0x00, 0x20)\n      swap1\n      0x04\n      mul\n      add\n        /* \"contracts/Todo.sol\":1111:1132  tasks[_taskId].isDone */\n      0x02\n      add\n      0x00\n        /* \"contracts/Todo.sol\":1111:1142  tasks[_taskId].isDone = _isDone */\n      0x0100\n      exp\n      dup2\n      sload\n      dup2\n      0xff\n      mul\n      not\n      and\n      swap1\n      dup4\n      iszero\n      iszero\n      mul\n      or\n      swap1\n      sstore\n      pop\n        /* \"contracts/Todo.sol\":932:1149  function deleteTask(uint256 _taskId, bool _isDone) external {... */\n      pop\n      pop\n      jump\t// out\n    tag_29:\n      mload(0x40)\n      dup1\n      0x80\n      add\n      0x40\n      mstore\n      dup1\n      0x00\n      dup2\n      mstore\n      0x20\n      add\n      0x60\n      dup2\n      mstore\n      0x20\n      add\n      iszero(iszero(0x00))\n      dup2\n      mstore\n      0x20\n      add\n      0x00\n      dup2\n      mstore\n      pop\n      swap1\n      jump\t// out\n        /* \"#utility.yul\":88:205   */\n    tag_72:\n        /* \"#utility.yul\":197:198   */\n      0x00\n        /* \"#utility.yul\":194:195   */\n      dup1\n        /* \"#utility.yul\":187:199   */\n      revert\n        /* \"#utility.yul\":211:328   */\n    tag_73:\n        /* \"#utility.yul\":320:321   */\n      0x00\n        /* \"#utility.yul\":317:318   */\n      dup1\n        /* \"#utility.yul\":310:322   */\n      revert\n        /* \"#utility.yul\":334:451   */\n    tag_74:\n        /* \"#utility.yul\":443:444   */\n      0x00\n        /* \"#utility.yul\":440:441   */\n      dup1\n        /* \"#utility.yul\":433:445   */\n      revert\n        /* \"#utility.yul\":457:574   */\n    tag_75:\n        /* \"#utility.yul\":566:567   */\n      0x00\n        /* \"#utility.yul\":563:564   */\n      dup1\n        /* \"#utility.yul\":556:568   */\n      revert\n        /* \"#utility.yul\":580:697   */\n    tag_76:\n        /* \"#utility.yul\":689:690   */\n      0x00\n        /* \"#utility.yul\":686:687   */\n      dup1\n        /* \"#utility.yul\":679:691   */\n      revert\n        /* \"#utility.yul\":717:1270   */\n    tag_77:\n        /* \"#utility.yul\":775:783   */\n      0x00\n        /* \"#utility.yul\":785:791   */\n      dup1\n        /* \"#utility.yul\":835:838   */\n      dup4\n        /* \"#utility.yul\":828:832   */\n      0x1f\n        /* \"#utility.yul\":820:826   */\n      dup5\n        /* \"#utility.yul\":816:833   */\n      add\n        /* \"#utility.yul\":812:839   */\n      slt\n        /* \"#utility.yul\":802:924   */\n      tag_123\n      jumpi\n        /* \"#utility.yul\":843:922   */\n      tag_124\n      tag_74\n      jump\t// in\n    tag_124:\n        /* \"#utility.yul\":802:924   */\n    tag_123:\n        /* \"#utility.yul\":956:962   */\n      dup3\n        /* \"#utility.yul\":943:963   */\n      calldataload\n        /* \"#utility.yul\":933:963   */\n      swap1\n      pop\n        /* \"#utility.yul\":986:1004   */\n      0xffffffffffffffff\n        /* \"#utility.yul\":978:984   */\n      dup2\n        /* \"#utility.yul\":975:1005   */\n      gt\n        /* \"#utility.yul\":972:1089   */\n      iszero\n      tag_125\n      jumpi\n        /* \"#utility.yul\":1008:1087   */\n      tag_126\n      tag_75\n      jump\t// in\n    tag_126:\n        /* \"#utility.yul\":972:1089   */\n    tag_125:\n        /* \"#utility.yul\":1122:1126   */\n      0x20\n        /* \"#utility.yul\":1114:1120   */\n      dup4\n        /* \"#utility.yul\":1110:1127   */\n      add\n        /* \"#utility.yul\":1098:1127   */\n      swap2\n      pop\n        /* \"#utility.yul\":1176:1179   */\n      dup4\n        /* \"#utility.yul\":1168:1172   */\n      0x01\n        /* \"#utility.yul\":1160:1166   */\n      dup3\n        /* \"#utility.yul\":1156:1173   */\n      mul\n        /* \"#utility.yul\":1146:1154   */\n      dup4\n        /* \"#utility.yul\":1142:1174   */\n      add\n        /* \"#utility.yul\":1139:1180   */\n      gt\n        /* \"#utility.yul\":1136:1264   */\n      iszero\n      tag_127\n      jumpi\n        /* \"#utility.yul\":1183:1262   */\n      tag_128\n      tag_76\n      jump\t// in\n    tag_128:\n        /* \"#utility.yul\":1136:1264   */\n    tag_127:\n        /* \"#utility.yul\":717:1270   */\n      swap3\n      pop\n      swap3\n      swap1\n      pop\n      jump\t// out\n        /* \"#utility.yul\":1276:1366   */\n    tag_78:\n        /* \"#utility.yul\":1310:1317   */\n      0x00\n        /* \"#utility.yul\":1353:1358   */\n      dup2\n        /* \"#utility.yul\":1346:1359   */\n      iszero\n        /* \"#utility.yul\":1339:1360   */\n      iszero\n        /* \"#utility.yul\":1328:1360   */\n      swap1\n      pop\n        /* \"#utility.yul\":1276:1366   */\n      swap2\n      swap1\n      pop\n      jump\t// out\n        /* \"#utility.yul\":1372:1488   */\n    tag_79:\n        /* \"#utility.yul\":1442:1463   */\n      tag_131\n        /* \"#utility.yul\":1457:1462   */\n      dup2\n        /* \"#utility.yul\":1442:1463   */\n      tag_78\n      jump\t// in\n    tag_131:\n        /* \"#utility.yul\":1435:1440   */\n      dup2\n        /* \"#utility.yul\":1432:1464   */\n      eq\n        /* \"#utility.yul\":1422:1482   */\n      tag_132\n      jumpi\n        /* \"#utility.yul\":1478:1479   */\n      0x00\n        /* \"#utility.yul\":1475:1476   */\n      dup1\n        /* \"#utility.yul\":1468:1480   */\n      revert\n        /* \"#utility.yul\":1422:1482   */\n    tag_132:\n        /* \"#utility.yul\":1372:1488   */\n      pop\n      jump\t// out\n        /* \"#utility.yul\":1494:1627   */\n    tag_80:\n        /* \"#utility.yul\":1537:1542   */\n      0x00\n        /* \"#utility.yul\":1575:1581   */\n      dup2\n        /* \"#utility.yul\":1562:1582   */\n      calldataload\n        /* \"#utility.yul\":1553:1582   */\n      swap1\n      pop\n        /* \"#utility.yul\":1591:1621   */\n      tag_134\n        /* \"#utility.yul\":1615:1620   */\n      dup2\n        /* \"#utility.yul\":1591:1621   */\n      tag_79\n      jump\t// in\n    tag_134:\n        /* \"#utility.yul\":1494:1627   */\n      swap3\n      swap2\n      pop\n      pop\n      jump\t// out\n        /* \"#utility.yul\":1633:2301   */\n    tag_8:\n        /* \"#utility.yul\":1710:1716   */\n      0x00\n        /* \"#utility.yul\":1718:1724   */\n      dup1\n        /* \"#utility.yul\":1726:1732   */\n      0x00\n        /* \"#utility.yul\":1775:1777   */\n      0x40\n        /* \"#utility.yul\":1763:1772   */\n      dup5\n        /* \"#utility.yul\":1754:1761   */\n      dup7\n        /* \"#utility.yul\":1750:1773   */\n      sub\n        /* \"#utility.yul\":1746:1778   */\n      slt\n        /* \"#utility.yul\":1743:1862   */\n      iszero\n      tag_136\n      jumpi\n        /* \"#utility.yul\":1781:1860   */\n      tag_137\n      tag_72\n      jump\t// in\n    tag_137:\n        /* \"#utility.yul\":1743:1862   */\n    tag_136:\n        /* \"#utility.yul\":1929:1930   */\n      0x00\n        /* \"#utility.yul\":1918:1927   */\n      dup5\n        /* \"#utility.yul\":1914:1931   */\n      add\n        /* \"#utility.yul\":1901:1932   */\n      calldataload\n        /* \"#utility.yul\":1959:1977   */\n      0xffffffffffffffff\n        /* \"#utility.yul\":1951:1957   */\n      dup2\n        /* \"#utility.yul\":1948:1978   */\n      gt\n        /* \"#utility.yul\":1945:2062   */\n      iszero\n      tag_138\n      jumpi\n        /* \"#utility.yul\":1981:2060   */\n      tag_139\n      tag_73\n      jump\t// in\n    tag_139:\n        /* \"#utility.yul\":1945:2062   */\n    tag_138:\n        /* \"#utility.yul\":2094:2159   */\n      tag_140\n        /* \"#utility.yul\":2151:2158   */\n      dup7\n        /* \"#utility.yul\":2142:2148   */\n      dup3\n        /* \"#utility.yul\":2131:2140   */\n      dup8\n        /* \"#utility.yul\":2127:2149   */\n      add\n        /* \"#utility.yul\":2094:2159   */\n      tag_77\n      jump\t// in\n    tag_140:\n        /* \"#utility.yul\":2076:2159   */\n      swap4\n      pop\n      swap4\n      pop\n        /* \"#utility.yul\":1872:2169   */\n      pop\n        /* \"#utility.yul\":2208:2210   */\n      0x20\n        /* \"#utility.yul\":2234:2284   */\n      tag_141\n        /* \"#utility.yul\":2276:2283   */\n      dup7\n        /* \"#utility.yul\":2267:2273   */\n      dup3\n        /* \"#utility.yul\":2256:2265   */\n      dup8\n        /* \"#utility.yul\":2252:2274   */\n      add\n        /* \"#utility.yul\":2234:2284   */\n      tag_80\n      jump\t// in\n    tag_141:\n        /* \"#utility.yul\":2224:2284   */\n      swap2\n      pop\n        /* \"#utility.yul\":2179:2294   */\n      pop\n        /* \"#utility.yul\":1633:2301   */\n      swap3\n      pop\n      swap3\n      pop\n      swap3\n      jump\t// out\n        /* \"#utility.yul\":2307:2441   */\n    tag_81:\n        /* \"#utility.yul\":2394:2400   */\n      0x00\n        /* \"#utility.yul\":2428:2433   */\n      dup2\n        /* \"#utility.yul\":2422:2434   */\n      mload\n        /* \"#utility.yul\":2412:2434   */\n      swap1\n      pop\n        /* \"#utility.yul\":2307:2441   */\n      swap2\n      swap1\n      pop\n      jump\t// out\n        /* \"#utility.yul\":2447:2651   */\n    tag_82:\n        /* \"#utility.yul\":2566:2577   */\n      0x00\n        /* \"#utility.yul\":2600:2606   */\n      dup3\n        /* \"#utility.yul\":2595:2598   */\n      dup3\n        /* \"#utility.yul\":2588:2607   */\n      mstore\n        /* \"#utility.yul\":2640:2644   */\n      0x20\n        /* \"#utility.yul\":2635:2638   */\n      dup3\n        /* \"#utility.yul\":2631:2645   */\n      add\n        /* \"#utility.yul\":2616:2645   */\n      swap1\n      pop\n        /* \"#utility.yul\":2447:2651   */\n      swap3\n      swap2\n      pop\n      pop\n      jump\t// out\n        /* \"#utility.yul\":2657:2809   */\n    tag_83:\n        /* \"#utility.yul\":2744:2748   */\n      0x00\n        /* \"#utility.yul\":2767:2770   */\n      dup2\n        /* \"#utility.yul\":2759:2770   */\n      swap1\n      pop\n        /* \"#utility.yul\":2797:2801   */\n      0x20\n        /* \"#utility.yul\":2792:2795   */\n      dup3\n        /* \"#utility.yul\":2788:2802   */\n      add\n        /* \"#utility.yul\":2780:2802   */\n      swap1\n      pop\n        /* \"#utility.yul\":2657:2809   */\n      swap2\n      swap1\n      pop\n      jump\t// out\n        /* \"#utility.yul\":2815:2892   */\n    tag_84:\n        /* \"#utility.yul\":2852:2859   */\n      0x00\n        /* \"#utility.yul\":2881:2886   */\n      dup2\n        /* \"#utility.yul\":2870:2886   */\n      swap1\n      pop\n        /* \"#utility.yul\":2815:2892   */\n      swap2\n      swap1\n      pop\n      jump\t// out\n        /* \"#utility.yul\":2898:3006   */\n    tag_85:\n        /* \"#utility.yul\":2975:2999   */\n      tag_147\n        /* \"#utility.yul\":2993:2998   */\n      dup2\n        /* \"#utility.yul\":2975:2999   */\n      tag_84\n      jump\t// in\n    tag_147:\n        /* \"#utility.yul\":2970:2973   */\n      dup3\n        /* \"#utility.yul\":2963:3000   */\n      mstore\n        /* \"#utility.yul\":2898:3006   */\n      pop\n      pop\n      jump\t// out\n        /* \"#utility.yul\":3012:3111   */\n    tag_86:\n        /* \"#utility.yul\":3064:3070   */\n      0x00\n        /* \"#utility.yul\":3098:3103   */\n      dup2\n        /* \"#utility.yul\":3092:3104   */\n      mload\n        /* \"#utility.yul\":3082:3104   */\n      swap1\n      pop\n        /* \"#utility.yul\":3012:3111   */\n      swap2\n      swap1\n      pop\n      jump\t// out\n        /* \"#utility.yul\":3117:3276   */\n    tag_87:\n        /* \"#utility.yul\":3191:3202   */\n      0x00\n        /* \"#utility.yul\":3225:3231   */\n      dup3\n        /* \"#utility.yul\":3220:3223   */\n      dup3\n        /* \"#utility.yul\":3213:3232   */\n      mstore\n        /* \"#utility.yul\":3265:3269   */\n      0x20\n        /* \"#utility.yul\":3260:3263   */\n      dup3\n        /* \"#utility.yul\":3256:3270   */\n      add\n        /* \"#utility.yul\":3241:3270   */\n      swap1\n      pop\n        /* \"#utility.yul\":3117:3276   */\n      swap3\n      swap2\n      pop\n      pop\n      jump\t// out\n        /* \"#utility.yul\":3282:3589   */\n    tag_88:\n        /* \"#utility.yul\":3350:3351   */\n      0x00\n        /* \"#utility.yul\":3360:3473   */\n    tag_151:\n        /* \"#utility.yul\":3374:3380   */\n      dup4\n        /* \"#utility.yul\":3371:3372   */\n      dup2\n        /* \"#utility.yul\":3368:3381   */\n      lt\n        /* \"#utility.yul\":3360:3473   */\n      iszero\n      tag_153\n      jumpi\n        /* \"#utility.yul\":3459:3460   */\n      dup1\n        /* \"#utility.yul\":3454:3457   */\n      dup3\n        /* \"#utility.yul\":3450:3461   */\n      add\n        /* \"#utility.yul\":3444:3462   */\n      mload\n        /* \"#utility.yul\":3440:3441   */\n      dup2\n        /* \"#utility.yul\":3435:3438   */\n      dup5\n        /* \"#utility.yul\":3431:3442   */\n      add\n        /* \"#utility.yul\":3424:3463   */\n      mstore\n        /* \"#utility.yul\":3396:3398   */\n      0x20\n        /* \"#utility.yul\":3393:3394   */\n      dup2\n        /* \"#utility.yul\":3389:3399   */\n      add\n        /* \"#utility.yul\":3384:3399   */\n      swap1\n      pop\n        /* \"#utility.yul\":3360:3473   */\n      jump(tag_151)\n    tag_153:\n        /* \"#utility.yul\":3491:3497   */\n      dup4\n        /* \"#utility.yul\":3488:3489   */\n      dup2\n        /* \"#utility.yul\":3485:3498   */\n      gt\n        /* \"#utility.yul\":3482:3583   */\n      iszero\n      tag_154\n      jumpi\n        /* \"#utility.yul\":3571:3572   */\n      0x00\n        /* \"#utility.yul\":3562:3568   */\n      dup5\n        /* \"#utility.yul\":3557:3560   */\n      dup5\n        /* \"#utility.yul\":3553:3569   */\n      add\n        /* \"#utility.yul\":3546:3573   */\n      mstore\n        /* \"#utility.yul\":3482:3583   */\n    tag_154:\n        /* \"#utility.yul\":3331:3589   */\n      pop\n        /* \"#utility.yul\":3282:3589   */\n      pop\n      pop\n      pop\n      jump\t// out\n        /* \"#utility.yul\":3595:3697   */\n    tag_89:\n        /* \"#utility.yul\":3636:3642   */\n      0x00\n        /* \"#utility.yul\":3687:3689   */\n      0x1f\n        /* \"#utility.yul\":3683:3690   */\n      not\n        /* \"#utility.yul\":3678:3680   */\n      0x1f\n        /* \"#utility.yul\":3671:3676   */\n      dup4\n        /* \"#utility.yul\":3667:3681   */\n      add\n        /* \"#utility.yul\":3663:3691   */\n      and\n        /* \"#utility.yul\":3653:3691   */\n      swap1\n      pop\n        /* \"#utility.yul\":3595:3697   */\n      swap2\n      swap1\n      pop\n      jump\t// out\n        /* \"#utility.yul\":3703:4047   */\n    tag_90:\n        /* \"#utility.yul\":3781:3784   */\n      0x00\n        /* \"#utility.yul\":3809:3848   */\n      tag_157\n        /* \"#utility.yul\":3842:3847   */\n      dup3\n        /* \"#utility.yul\":3809:3848   */\n      tag_86\n      jump\t// in\n    tag_157:\n        /* \"#utility.yul\":3864:3925   */\n      tag_158\n        /* \"#utility.yul\":3918:3924   */\n      dup2\n        /* \"#utility.yul\":3913:3916   */\n      dup6\n        /* \"#utility.yul\":3864:3925   */\n      tag_87\n      jump\t// in\n    tag_158:\n        /* \"#utility.yul\":3857:3925   */\n      swap4\n      pop\n        /* \"#utility.yul\":3934:3986   */\n      tag_159\n        /* \"#utility.yul\":3979:3985   */\n      dup2\n        /* \"#utility.yul\":3974:3977   */\n      dup6\n        /* \"#utility.yul\":3967:3971   */\n      0x20\n        /* \"#utility.yul\":3960:3965   */\n      dup7\n        /* \"#utility.yul\":3956:3972   */\n      add\n        /* \"#utility.yul\":3934:3986   */\n      tag_88\n      jump\t// in\n    tag_159:\n        /* \"#utility.yul\":4011:4040   */\n      tag_160\n        /* \"#utility.yul\":4033:4039   */\n      dup2\n        /* \"#utility.yul\":4011:4040   */\n      tag_89\n      jump\t// in\n    tag_160:\n        /* \"#utility.yul\":4006:4009   */\n      dup5\n        /* \"#utility.yul\":4002:4041   */\n      add\n        /* \"#utility.yul\":3995:4041   */\n      swap2\n      pop\n        /* \"#utility.yul\":3785:4047   */\n      pop\n        /* \"#utility.yul\":3703:4047   */\n      swap3\n      swap2\n      pop\n      pop\n      jump\t// out\n        /* \"#utility.yul\":4053:4152   */\n    tag_91:\n        /* \"#utility.yul\":4124:4145   */\n      tag_162\n        /* \"#utility.yul\":4139:4144   */\n      dup2\n        /* \"#utility.yul\":4124:4145   */\n      tag_78\n      jump\t// in\n    tag_162:\n        /* \"#utility.yul\":4119:4122   */\n      dup3\n        /* \"#utility.yul\":4112:4146   */\n      mstore\n        /* \"#utility.yul\":4053:4152   */\n      pop\n      pop\n      jump\t// out\n        /* \"#utility.yul\":4202:5139   */\n    tag_92:\n        /* \"#utility.yul\":4301:4304   */\n      0x00\n        /* \"#utility.yul\":4337:4341   */\n      0x80\n        /* \"#utility.yul\":4332:4335   */\n      dup4\n        /* \"#utility.yul\":4328:4342   */\n      add\n        /* \"#utility.yul\":4422:4426   */\n      0x00\n        /* \"#utility.yul\":4415:4420   */\n      dup4\n        /* \"#utility.yul\":4411:4427   */\n      add\n        /* \"#utility.yul\":4405:4428   */\n      mload\n        /* \"#utility.yul\":4441:4504   */\n      tag_164\n        /* \"#utility.yul\":4498:4502   */\n      0x00\n        /* \"#utility.yul\":4493:4496   */\n      dup7\n        /* \"#utility.yul\":4489:4503   */\n      add\n        /* \"#utility.yul\":4475:4487   */\n      dup3\n        /* \"#utility.yul\":4441:4504   */\n      tag_85\n      jump\t// in\n    tag_164:\n        /* \"#utility.yul\":4352:4514   */\n      pop\n        /* \"#utility.yul\":4596:4600   */\n      0x20\n        /* \"#utility.yul\":4589:4594   */\n      dup4\n        /* \"#utility.yul\":4585:4601   */\n      add\n        /* \"#utility.yul\":4579:4602   */\n      mload\n        /* \"#utility.yul\":4649:4652   */\n      dup5\n        /* \"#utility.yul\":4643:4647   */\n      dup3\n        /* \"#utility.yul\":4639:4653   */\n      sub\n        /* \"#utility.yul\":4632:4636   */\n      0x20\n        /* \"#utility.yul\":4627:4630   */\n      dup7\n        /* \"#utility.yul\":4623:4637   */\n      add\n        /* \"#utility.yul\":4616:4654   */\n      mstore\n        /* \"#utility.yul\":4675:4748   */\n      tag_165\n        /* \"#utility.yul\":4743:4747   */\n      dup3\n        /* \"#utility.yul\":4729:4741   */\n      dup3\n        /* \"#utility.yul\":4675:4748   */\n      tag_90\n      jump\t// in\n    tag_165:\n        /* \"#utility.yul\":4667:4748   */\n      swap2\n      pop\n        /* \"#utility.yul\":4524:4759   */\n      pop\n        /* \"#utility.yul\":4843:4847   */\n      0x40\n        /* \"#utility.yul\":4836:4841   */\n      dup4\n        /* \"#utility.yul\":4832:4848   */\n      add\n        /* \"#utility.yul\":4826:4849   */\n      mload\n        /* \"#utility.yul\":4862:4919   */\n      tag_166\n        /* \"#utility.yul\":4913:4917   */\n      0x40\n        /* \"#utility.yul\":4908:4911   */\n      dup7\n        /* \"#utility.yul\":4904:4918   */\n      add\n        /* \"#utility.yul\":4890:4902   */\n      dup3\n        /* \"#utility.yul\":4862:4919   */\n      tag_91\n      jump\t// in\n    tag_166:\n        /* \"#utility.yul\":4769:4929   */\n      pop\n        /* \"#utility.yul\":5020:5024   */\n      0x60\n        /* \"#utility.yul\":5013:5018   */\n      dup4\n        /* \"#utility.yul\":5009:5025   */\n      add\n        /* \"#utility.yul\":5003:5026   */\n      mload\n        /* \"#utility.yul\":5039:5102   */\n      tag_167\n        /* \"#utility.yul\":5096:5100   */\n      0x60\n        /* \"#utility.yul\":5091:5094   */\n      dup7\n        /* \"#utility.yul\":5087:5101   */\n      add\n        /* \"#utility.yul\":5073:5085   */\n      dup3\n        /* \"#utility.yul\":5039:5102   */\n      tag_85\n      jump\t// in\n    tag_167:\n        /* \"#utility.yul\":4939:5112   */\n      pop\n        /* \"#utility.yul\":5129:5133   */\n      dup1\n        /* \"#utility.yul\":5122:5133   */\n      swap2\n      pop\n        /* \"#utility.yul\":4306:5139   */\n      pop\n        /* \"#utility.yul\":4202:5139   */\n      swap3\n      swap2\n      pop\n      pop\n      jump\t// out\n        /* \"#utility.yul\":5145:5381   */\n    tag_93:\n        /* \"#utility.yul\":5254:5264   */\n      0x00\n        /* \"#utility.yul\":5289:5375   */\n      tag_169\n        /* \"#utility.yul\":5371:5374   */\n      dup4\n        /* \"#utility.yul\":5363:5369   */\n      dup4\n        /* \"#utility.yul\":5289:5375   */\n      tag_92\n      jump\t// in\n    tag_169:\n        /* \"#utility.yul\":5275:5375   */\n      swap1\n      pop\n        /* \"#utility.yul\":5145:5381   */\n      swap3\n      swap2\n      pop\n      pop\n      jump\t// out\n        /* \"#utility.yul\":5387:5520   */\n    tag_94:\n        /* \"#utility.yul\":5477:5481   */\n      0x00\n        /* \"#utility.yul\":5509:5513   */\n      0x20\n        /* \"#utility.yul\":5504:5507   */\n      dup3\n        /* \"#utility.yul\":5500:5514   */\n      add\n        /* \"#utility.yul\":5492:5514   */\n      swap1\n      pop\n        /* \"#utility.yul\":5387:5520   */\n      swap2\n      swap1\n      pop\n      jump\t// out\n        /* \"#utility.yul\":5574:6645   */\n    tag_95:\n        /* \"#utility.yul\":5733:5736   */\n      0x00\n        /* \"#utility.yul\":5762:5836   */\n      tag_172\n        /* \"#utility.yul\":5830:5835   */\n      dup3\n        /* \"#utility.yul\":5762:5836   */\n      tag_81\n      jump\t// in\n    tag_172:\n        /* \"#utility.yul\":5852:5958   */\n      tag_173\n        /* \"#utility.yul\":5951:5957   */\n      dup2\n        /* \"#utility.yul\":5946:5949   */\n      dup6\n        /* \"#utility.yul\":5852:5958   */\n      tag_82\n      jump\t// in\n    tag_173:\n        /* \"#utility.yul\":5845:5958   */\n      swap4\n      pop\n        /* \"#utility.yul\":5984:5987   */\n      dup4\n        /* \"#utility.yul\":6029:6033   */\n      0x20\n        /* \"#utility.yul\":6021:6027   */\n      dup3\n        /* \"#utility.yul\":6017:6034   */\n      mul\n        /* \"#utility.yul\":6012:6015   */\n      dup6\n        /* \"#utility.yul\":6008:6035   */\n      add\n        /* \"#utility.yul\":6059:6135   */\n      tag_174\n        /* \"#utility.yul\":6129:6134   */\n      dup6\n        /* \"#utility.yul\":6059:6135   */\n      tag_83\n      jump\t// in\n    tag_174:\n        /* \"#utility.yul\":6158:6165   */\n      dup1\n        /* \"#utility.yul\":6189:6190   */\n      0x00\n        /* \"#utility.yul\":6174:6600   */\n    tag_175:\n        /* \"#utility.yul\":6199:6205   */\n      dup6\n        /* \"#utility.yul\":6196:6197   */\n      dup2\n        /* \"#utility.yul\":6193:6206   */\n      lt\n        /* \"#utility.yul\":6174:6600   */\n      iszero\n      tag_177\n      jumpi\n        /* \"#utility.yul\":6270:6279   */\n      dup5\n        /* \"#utility.yul\":6264:6268   */\n      dup5\n        /* \"#utility.yul\":6260:6280   */\n      sub\n        /* \"#utility.yul\":6255:6258   */\n      dup10\n        /* \"#utility.yul\":6248:6281   */\n      mstore\n        /* \"#utility.yul\":6321:6327   */\n      dup2\n        /* \"#utility.yul\":6315:6328   */\n      mload\n        /* \"#utility.yul\":6349:6453   */\n      tag_178\n        /* \"#utility.yul\":6448:6452   */\n      dup6\n        /* \"#utility.yul\":6433:6446   */\n      dup3\n        /* \"#utility.yul\":6349:6453   */\n      tag_93\n      jump\t// in\n    tag_178:\n        /* \"#utility.yul\":6341:6453   */\n      swap5\n      pop\n        /* \"#utility.yul\":6476:6556   */\n      tag_179\n        /* \"#utility.yul\":6549:6555   */\n      dup4\n        /* \"#utility.yul\":6476:6556   */\n      tag_94\n      jump\t// in\n    tag_179:\n        /* \"#utility.yul\":6466:6556   */\n      swap3\n      pop\n        /* \"#utility.yul\":6585:6589   */\n      0x20\n        /* \"#utility.yul\":6580:6583   */\n      dup11\n        /* \"#utility.yul\":6576:6590   */\n      add\n        /* \"#utility.yul\":6569:6590   */\n      swap10\n      pop\n        /* \"#utility.yul\":6234:6600   */\n      pop\n        /* \"#utility.yul\":6221:6222   */\n      0x01\n        /* \"#utility.yul\":6218:6219   */\n      dup2\n        /* \"#utility.yul\":6214:6223   */\n      add\n        /* \"#utility.yul\":6209:6223   */\n      swap1\n      pop\n        /* \"#utility.yul\":6174:6600   */\n      jump(tag_175)\n    tag_177:\n        /* \"#utility.yul\":6178:6192   */\n      pop\n        /* \"#utility.yul\":6616:6620   */\n      dup3\n        /* \"#utility.yul\":6609:6620   */\n      swap8\n      pop\n        /* \"#utility.yul\":6636:6639   */\n      dup8\n        /* \"#utility.yul\":6629:6639   */\n      swap6\n      pop\n        /* \"#utility.yul\":5738:6645   */\n      pop\n      pop\n      pop\n      pop\n      pop\n        /* \"#utility.yul\":5574:6645   */\n      swap3\n      swap2\n      pop\n      pop\n      jump\t// out\n        /* \"#utility.yul\":6651:7104   */\n    tag_13:\n        /* \"#utility.yul\":6834:6838   */\n      0x00\n        /* \"#utility.yul\":6872:6874   */\n      0x20\n        /* \"#utility.yul\":6861:6870   */\n      dup3\n        /* \"#utility.yul\":6857:6875   */\n      add\n        /* \"#utility.yul\":6849:6875   */\n      swap1\n      pop\n        /* \"#utility.yul\":6921:6930   */\n      dup2\n        /* \"#utility.yul\":6915:6919   */\n      dup2\n        /* \"#utility.yul\":6911:6931   */\n      sub\n        /* \"#utility.yul\":6907:6908   */\n      0x00\n        /* \"#utility.yul\":6896:6905   */\n      dup4\n        /* \"#utility.yul\":6892:6909   */\n      add\n        /* \"#utility.yul\":6885:6932   */\n      mstore\n        /* \"#utility.yul\":6949:7097   */\n      tag_181\n        /* \"#utility.yul\":7092:7096   */\n      dup2\n        /* \"#utility.yul\":7083:7089   */\n      dup5\n        /* \"#utility.yul\":6949:7097   */\n      tag_95\n      jump\t// in\n    tag_181:\n        /* \"#utility.yul\":6941:7097   */\n      swap1\n      pop\n        /* \"#utility.yul\":6651:7104   */\n      swap3\n      swap2\n      pop\n      pop\n      jump\t// out\n        /* \"#utility.yul\":7110:7232   */\n    tag_96:\n        /* \"#utility.yul\":7183:7207   */\n      tag_183\n        /* \"#utility.yul\":7201:7206   */\n      dup2\n        /* \"#utility.yul\":7183:7207   */\n      tag_84\n      jump\t// in\n    tag_183:\n        /* \"#utility.yul\":7176:7181   */\n      dup2\n        /* \"#utility.yul\":7173:7208   */\n      eq\n        /* \"#utility.yul\":7163:7226   */\n      tag_184\n      jumpi\n        /* \"#utility.yul\":7222:7223   */\n      0x00\n        /* \"#utility.yul\":7219:7220   */\n      dup1\n        /* \"#utility.yul\":7212:7224   */\n      revert\n        /* \"#utility.yul\":7163:7226   */\n    tag_184:\n        /* \"#utility.yul\":7110:7232   */\n      pop\n      jump\t// out\n        /* \"#utility.yul\":7238:7377   */\n    tag_97:\n        /* \"#utility.yul\":7284:7289   */\n      0x00\n        /* \"#utility.yul\":7322:7328   */\n      dup2\n        /* \"#utility.yul\":7309:7329   */\n      calldataload\n        /* \"#utility.yul\":7300:7329   */\n      swap1\n      pop\n        /* \"#utility.yul\":7338:7371   */\n      tag_186\n        /* \"#utility.yul\":7365:7370   */\n      dup2\n        /* \"#utility.yul\":7338:7371   */\n      tag_96\n      jump\t// in\n    tag_186:\n        /* \"#utility.yul\":7238:7377   */\n      swap3\n      swap2\n      pop\n      pop\n      jump\t// out\n        /* \"#utility.yul\":7383:7851   */\n    tag_16:\n        /* \"#utility.yul\":7448:7454   */\n      0x00\n        /* \"#utility.yul\":7456:7462   */\n      dup1\n        /* \"#utility.yul\":7505:7507   */\n      0x40\n        /* \"#utility.yul\":7493:7502   */\n      dup4\n        /* \"#utility.yul\":7484:7491   */\n      dup6\n        /* \"#utility.yul\":7480:7503   */\n      sub\n        /* \"#utility.yul\":7476:7508   */\n      slt\n        /* \"#utility.yul\":7473:7592   */\n      iszero\n      tag_188\n      jumpi\n        /* \"#utility.yul\":7511:7590   */\n      tag_189\n      tag_72\n      jump\t// in\n    tag_189:\n        /* \"#utility.yul\":7473:7592   */\n    tag_188:\n        /* \"#utility.yul\":7631:7632   */\n      0x00\n        /* \"#utility.yul\":7656:7709   */\n      tag_190\n        /* \"#utility.yul\":7701:7708   */\n      dup6\n        /* \"#utility.yul\":7692:7698   */\n      dup3\n        /* \"#utility.yul\":7681:7690   */\n      dup7\n        /* \"#utility.yul\":7677:7699   */\n      add\n        /* \"#utility.yul\":7656:7709   */\n      tag_97\n      jump\t// in\n    tag_190:\n        /* \"#utility.yul\":7646:7709   */\n      swap3\n      pop\n        /* \"#utility.yul\":7602:7719   */\n      pop\n        /* \"#utility.yul\":7758:7760   */\n      0x20\n        /* \"#utility.yul\":7784:7834   */\n      tag_191\n        /* \"#utility.yul\":7826:7833   */\n      dup6\n        /* \"#utility.yul\":7817:7823   */\n      dup3\n        /* \"#utility.yul\":7806:7815   */\n      dup7\n        /* \"#utility.yul\":7802:7824   */\n      add\n        /* \"#utility.yul\":7784:7834   */\n      tag_80\n      jump\t// in\n    tag_191:\n        /* \"#utility.yul\":7774:7834   */\n      swap2\n      pop\n        /* \"#utility.yul\":7729:7844   */\n      pop\n        /* \"#utility.yul\":7383:7851   */\n      swap3\n      pop\n      swap3\n      swap1\n      pop\n      jump\t// out\n        /* \"#utility.yul\":7857:8037   */\n    tag_25:\n        /* \"#utility.yul\":7905:7982   */\n      0x4e487b7100000000000000000000000000000000000000000000000000000000\n        /* \"#utility.yul\":7902:7903   */\n      0x00\n        /* \"#utility.yul\":7895:7983   */\n      mstore\n        /* \"#utility.yul\":8002:8006   */\n      0x41\n        /* \"#utility.yul\":7999:8000   */\n      0x04\n        /* \"#utility.yul\":7992:8007   */\n      mstore\n        /* \"#utility.yul\":8026:8030   */\n      0x24\n        /* \"#utility.yul\":8023:8024   */\n      0x00\n        /* \"#utility.yul\":8016:8031   */\n      revert\n        /* \"#utility.yul\":8043:8223   */\n    tag_98:\n        /* \"#utility.yul\":8091:8168   */\n      0x4e487b7100000000000000000000000000000000000000000000000000000000\n        /* \"#utility.yul\":8088:8089   */\n      0x00\n        /* \"#utility.yul\":8081:8169   */\n      mstore\n        /* \"#utility.yul\":8188:8192   */\n      0x22\n        /* \"#utility.yul\":8185:8186   */\n      0x04\n        /* \"#utility.yul\":8178:8193   */\n      mstore\n        /* \"#utility.yul\":8212:8216   */\n      0x24\n        /* \"#utility.yul\":8209:8210   */\n      0x00\n        /* \"#utility.yul\":8202:8217   */\n      revert\n        /* \"#utility.yul\":8229:8549   */\n    tag_43:\n        /* \"#utility.yul\":8273:8279   */\n      0x00\n        /* \"#utility.yul\":8310:8311   */\n      0x02\n        /* \"#utility.yul\":8304:8308   */\n      dup3\n        /* \"#utility.yul\":8300:8312   */\n      div\n        /* \"#utility.yul\":8290:8312   */\n      swap1\n      pop\n        /* \"#utility.yul\":8357:8358   */\n      0x01\n        /* \"#utility.yul\":8351:8355   */\n      dup3\n        /* \"#utility.yul\":8347:8359   */\n      and\n        /* \"#utility.yul\":8378:8396   */\n      dup1\n        /* \"#utility.yul\":8368:8449   */\n      tag_195\n      jumpi\n        /* \"#utility.yul\":8434:8438   */\n      0x7f\n        /* \"#utility.yul\":8426:8432   */\n      dup3\n        /* \"#utility.yul\":8422:8439   */\n      and\n        /* \"#utility.yul\":8412:8439   */\n      swap2\n      pop\n        /* \"#utility.yul\":8368:8449   */\n    tag_195:\n        /* \"#utility.yul\":8496:8498   */\n      0x20\n        /* \"#utility.yul\":8488:8494   */\n      dup3\n        /* \"#utility.yul\":8485:8499   */\n      lt\n        /* \"#utility.yul\":8465:8483   */\n      dup2\n        /* \"#utility.yul\":8462:8500   */\n      sub\n        /* \"#utility.yul\":8459:8543   */\n      tag_196\n      jumpi\n        /* \"#utility.yul\":8515:8533   */\n      tag_197\n      tag_98\n      jump\t// in\n    tag_197:\n        /* \"#utility.yul\":8459:8543   */\n    tag_196:\n        /* \"#utility.yul\":8280:8549   */\n      pop\n        /* \"#utility.yul\":8229:8549   */\n      swap2\n      swap1\n      pop\n      jump\t// out\n        /* \"#utility.yul\":8555:8696   */\n    tag_99:\n        /* \"#utility.yul\":8604:8608   */\n      0x00\n        /* \"#utility.yul\":8627:8630   */\n      dup2\n        /* \"#utility.yul\":8619:8630   */\n      swap1\n      pop\n        /* \"#utility.yul\":8650:8653   */\n      dup2\n        /* \"#utility.yul\":8647:8648   */\n      0x00\n        /* \"#utility.yul\":8640:8654   */\n      mstore\n        /* \"#utility.yul\":8684:8688   */\n      0x20\n        /* \"#utility.yul\":8681:8682   */\n      0x00\n        /* \"#utility.yul\":8671:8689   */\n      keccak256\n        /* \"#utility.yul\":8663:8689   */\n      swap1\n      pop\n        /* \"#utility.yul\":8555:8696   */\n      swap2\n      swap1\n      pop\n      jump\t// out\n        /* \"#utility.yul\":8702:8795   */\n    tag_100:\n        /* \"#utility.yul\":8739:8745   */\n      0x00\n        /* \"#utility.yul\":8786:8788   */\n      0x20\n        /* \"#utility.yul\":8781:8783   */\n      0x1f\n        /* \"#utility.yul\":8774:8779   */\n      dup4\n        /* \"#utility.yul\":8770:8784   */\n      add\n        /* \"#utility.yul\":8766:8789   */\n      div\n        /* \"#utility.yul\":8756:8789   */\n      swap1\n      pop\n        /* \"#utility.yul\":8702:8795   */\n      swap2\n      swap1\n      pop\n      jump\t// out\n        /* \"#utility.yul\":8801:8908   */\n    tag_101:\n        /* \"#utility.yul\":8845:8853   */\n      0x00\n        /* \"#utility.yul\":8895:8900   */\n      dup3\n        /* \"#utility.yul\":8889:8893   */\n      dup3\n        /* \"#utility.yul\":8885:8901   */\n      shl\n        /* \"#utility.yul\":8864:8901   */\n      swap1\n      pop\n        /* \"#utility.yul\":8801:8908   */\n      swap3\n      swap2\n      pop\n      pop\n      jump\t// out\n        /* \"#utility.yul\":8914:9307   */\n    tag_102:\n        /* \"#utility.yul\":8983:8989   */\n      0x00\n        /* \"#utility.yul\":9033:9034   */\n      0x08\n        /* \"#utility.yul\":9021:9031   */\n      dup4\n        /* \"#utility.yul\":9017:9035   */\n      mul\n        /* \"#utility.yul\":9056:9153   */\n      tag_202\n        /* \"#utility.yul\":9086:9152   */\n      0xffffffffffffffffffffffffffffffffffffffffffffffffffffffffffffffff\n        /* \"#utility.yul\":9075:9084   */\n      dup3\n        /* \"#utility.yul\":9056:9153   */\n      tag_101\n      jump\t// in\n    tag_202:\n        /* \"#utility.yul\":9174:9213   */\n      tag_203\n        /* \"#utility.yul\":9204:9212   */\n      dup7\n        /* \"#utility.yul\":9193:9202   */\n      dup4\n        /* \"#utility.yul\":9174:9213   */\n      tag_101\n      jump\t// in\n    tag_203:\n        /* \"#utility.yul\":9162:9213   */\n      swap6\n      pop\n        /* \"#utility.yul\":9246:9250   */\n      dup1\n        /* \"#utility.yul\":9242:9251   */\n      not\n        /* \"#utility.yul\":9235:9240   */\n      dup5\n        /* \"#utility.yul\":9231:9252   */\n      and\n        /* \"#utility.yul\":9222:9252   */\n      swap4\n      pop\n        /* \"#utility.yul\":9295:9299   */\n      dup1\n        /* \"#utility.yul\":9285:9293   */\n      dup7\n        /* \"#utility.yul\":9281:9300   */\n      and\n        /* \"#utility.yul\":9274:9279   */\n      dup5\n        /* \"#utility.yul\":9271:9301   */\n      or\n        /* \"#utility.yul\":9261:9301   */\n      swap3\n      pop\n        /* \"#utility.yul\":8990:9307   */\n      pop\n      pop\n        /* \"#utility.yul\":8914:9307   */\n      swap4\n      swap3\n      pop\n      pop\n      pop\n      jump\t// out\n        /* \"#utility.yul\":9313:9373   */\n    tag_103:\n        /* \"#utility.yul\":9341:9344   */\n      0x00\n        /* \"#utility.yul\":9362:9367   */\n      dup2\n        /* \"#utility.yul\":9355:9367   */\n      swap1\n      pop\n        /* \"#utility.yul\":9313:9373   */\n      swap2\n      swap1\n      pop\n      jump\t// out\n        /* \"#utility.yul\":9379:9521   */\n    tag_104:\n        /* \"#utility.yul\":9429:9438   */\n      0x00\n        /* \"#utility.yul\":9462:9515   */\n      tag_206\n        /* \"#utility.yul\":9480:9514   */\n      tag_207\n        /* \"#utility.yul\":9489:9513   */\n      tag_208\n        /* \"#utility.yul\":9507:9512   */\n      dup5\n        /* \"#utility.yul\":9489:9513   */\n      tag_84\n      jump\t// in\n    tag_208:\n        /* \"#utility.yul\":9480:9514   */\n      tag_103\n      jump\t// in\n    tag_207:\n        /* \"#utility.yul\":9462:9515   */\n      tag_84\n      jump\t// in\n    tag_206:\n        /* \"#utility.yul\":9449:9515   */\n      swap1\n      pop\n        /* \"#utility.yul\":9379:9521   */\n      swap2\n      swap1\n      pop\n      jump\t// out\n        /* \"#utility.yul\":9527:9602   */\n    tag_105:\n        /* \"#utility.yul\":9570:9573   */\n      0x00\n        /* \"#utility.yul\":9591:9596   */\n      dup2\n        /* \"#utility.yul\":9584:9596   */\n      swap1\n      pop\n        /* \"#utility.yul\":9527:9602   */\n      swap2\n      swap1\n      pop\n      jump\t// out\n        /* \"#utility.yul\":9608:9877   */\n    tag_106:\n        /* \"#utility.yul\":9718:9757   */\n      tag_211\n        /* \"#utility.yul\":9749:9756   */\n      dup4\n        /* \"#utility.yul\":9718:9757   */\n      tag_104\n      jump\t// in\n    tag_211:\n        /* \"#utility.yul\":9779:9870   */\n      tag_212\n        /* \"#utility.yul\":9828:9869   */\n      tag_213\n        /* \"#utility.yul\":9852:9868   */\n      dup3\n        /* \"#utility.yul\":9828:9869   */\n      tag_105\n      jump\t// in\n    tag_213:\n        /* \"#utility.yul\":9820:9826   */\n      dup5\n        /* \"#utility.yul\":9813:9817   */\n      dup5\n        /* \"#utility.yul\":9807:9818   */\n      sload\n        /* \"#utility.yul\":9779:9870   */\n      tag_102\n      jump\t// in\n    tag_212:\n        /* \"#utility.yul\":9773:9777   */\n      dup3\n        /* \"#utility.yul\":9766:9871   */\n      sstore\n        /* \"#utility.yul\":9684:9877   */\n      pop\n        /* \"#utility.yul\":9608:9877   */\n      pop\n      pop\n      pop\n      jump\t// out\n        /* \"#utility.yul\":9883:9956   */\n    tag_107:\n        /* \"#utility.yul\":9928:9931   */\n      0x00\n        /* \"#utility.yul\":9883:9956   */\n      swap1\n      jump\t// out\n        /* \"#utility.yul\":9962:10151   */\n    tag_108:\n        /* \"#utility.yul\":10039:10071   */\n      tag_216\n      tag_107\n      jump\t// in\n    tag_216:\n        /* \"#utility.yul\":10080:10145   */\n      tag_217\n        /* \"#utility.yul\":10138:10144   */\n      dup2\n        /* \"#utility.yul\":10130:10136   */\n      dup5\n        /* \"#utility.yul\":10124:10128   */\n      dup5\n        /* \"#utility.yul\":10080:10145   */\n      tag_106\n      jump\t// in\n    tag_217:\n        /* \"#utility.yul\":10015:10151   */\n      pop\n        /* \"#utility.yul\":9962:10151   */\n      pop\n      pop\n      jump\t// out\n        /* \"#utility.yul\":10157:10343   */\n    tag_109:\n        /* \"#utility.yul\":10217:10337   */\n    tag_219:\n        /* \"#utility.yul\":10234:10237   */\n      dup2\n        /* \"#utility.yul\":10227:10232   */\n      dup2\n        /* \"#utility.yul\":10224:10238   */\n      lt\n        /* \"#utility.yul\":10217:10337   */\n      iszero\n      tag_221\n      jumpi\n        /* \"#utility.yul\":10288:10327   */\n      tag_222\n        /* \"#utility.yul\":10325:10326   */\n      0x00\n        /* \"#utility.yul\":10318:10323   */\n      dup3\n        /* \"#utility.yul\":10288:10327   */\n      tag_108\n      jump\t// in\n    tag_222:\n        /* \"#utility.yul\":10261:10262   */\n      0x01\n        /* \"#utility.yul\":10254:10259   */\n      dup2\n        /* \"#utility.yul\":10250:10263   */\n      add\n        /* \"#utility.yul\":10241:10263   */\n      swap1\n      pop\n        /* \"#utility.yul\":10217:10337   */\n      jump(tag_219)\n    tag_221:\n        /* \"#utility.yul\":10157:10343   */\n      pop\n      pop\n      jump\t// out\n        /* \"#utility.yul\":10349:10892   */\n    tag_110:\n        /* \"#utility.yul\":10450:10452   */\n      0x1f\n        /* \"#utility.yul\":10445:10448   */\n      dup3\n        /* \"#utility.yul\":10442:10453   */\n      gt\n        /* \"#utility.yul\":10439:10885   */\n      iszero\n      tag_224\n      jumpi\n        /* \"#utility.yul\":10484:10522   */\n      tag_225\n        /* \"#utility.yul\":10516:10521   */\n      dup2\n        /* \"#utility.yul\":10484:10522   */\n      tag_99\n      jump\t// in\n    tag_225:\n        /* \"#utility.yul\":10568:10597   */\n      tag_226\n        /* \"#utility.yul\":10586:10596   */\n      dup5\n        /* \"#utility.yul\":10568:10597   */\n      tag_100\n      jump\t// in\n    tag_226:\n        /* \"#utility.yul\":10558:10566   */\n      dup2\n        /* \"#utility.yul\":10554:10598   */\n      add\n        /* \"#utility.yul\":10751:10753   */\n      0x20\n        /* \"#utility.yul\":10739:10749   */\n      dup6\n        /* \"#utility.yul\":10736:10754   */\n      lt\n        /* \"#utility.yul\":10733:10782   */\n      iszero\n      tag_227\n      jumpi\n        /* \"#utility.yul\":10772:10780   */\n      dup2\n        /* \"#utility.yul\":10757:10780   */\n      swap1\n      pop\n        /* \"#utility.yul\":10733:10782   */\n    tag_227:\n        /* \"#utility.yul\":10795:10875   */\n      tag_228\n        /* \"#utility.yul\":10851:10873   */\n      tag_229\n        /* \"#utility.yul\":10869:10872   */\n      dup6\n        /* \"#utility.yul\":10851:10873   */\n      tag_100\n      jump\t// in\n    tag_229:\n        /* \"#utility.yul\":10841:10849   */\n      dup4\n        /* \"#utility.yul\":10837:10874   */\n      add\n        /* \"#utility.yul\":10824:10835   */\n      dup3\n        /* \"#utility.yul\":10795:10875   */\n      tag_109\n      jump\t// in\n    tag_228:\n        /* \"#utility.yul\":10454:10885   */\n      pop\n      pop\n        /* \"#utility.yul\":10439:10885   */\n    tag_224:\n        /* \"#utility.yul\":10349:10892   */\n      pop\n      pop\n      pop\n      jump\t// out\n        /* \"#utility.yul\":10898:11015   */\n    tag_111:\n        /* \"#utility.yul\":10952:10960   */\n      0x00\n        /* \"#utility.yul\":11002:11007   */\n      dup3\n        /* \"#utility.yul\":10996:11000   */\n      dup3\n        /* \"#utility.yul\":10992:11008   */\n      shr\n        /* \"#utility.yul\":10971:11008   */\n      swap1\n      pop\n        /* \"#utility.yul\":10898:11015   */\n      swap3\n      swap2\n      pop\n      pop\n      jump\t// out\n        /* \"#utility.yul\":11021:11190   */\n    tag_112:\n        /* \"#utility.yul\":11065:11071   */\n      0x00\n        /* \"#utility.yul\":11098:11149   */\n      tag_232\n        /* \"#utility.yul\":11146:11147   */\n      0x00\n        /* \"#utility.yul\":11142:11148   */\n      not\n        /* \"#utility.yul\":11134:11139   */\n      dup5\n        /* \"#utility.yul\":11131:11132   */\n      0x08\n        /* \"#utility.yul\":11127:11140   */\n      mul\n        /* \"#utility.yul\":11098:11149   */\n      tag_111\n      jump\t// in\n    tag_232:\n        /* \"#utility.yul\":11094:11150   */\n      not\n        /* \"#utility.yul\":11179:11183   */\n      dup1\n        /* \"#utility.yul\":11173:11177   */\n      dup4\n        /* \"#utility.yul\":11169:11184   */\n      and\n        /* \"#utility.yul\":11159:11184   */\n      swap2\n      pop\n        /* \"#utility.yul\":11072:11190   */\n      pop\n        /* \"#utility.yul\":11021:11190   */\n      swap3\n      swap2\n      pop\n      pop\n      jump\t// out\n        /* \"#utility.yul\":11195:11490   */\n    tag_113:\n        /* \"#utility.yul\":11271:11275   */\n      0x00\n        /* \"#utility.yul\":11417:11446   */\n      tag_234\n        /* \"#utility.yul\":11442:11445   */\n      dup4\n        /* \"#utility.yul\":11436:11440   */\n      dup4\n        /* \"#utility.yul\":11417:11446   */\n      tag_112\n      jump\t// in\n    tag_234:\n        /* \"#utility.yul\":11409:11446   */\n      swap2\n      pop\n        /* \"#utility.yul\":11479:11482   */\n      dup3\n        /* \"#utility.yul\":11476:11477   */\n      0x02\n        /* \"#utility.yul\":11472:11483   */\n      mul\n        /* \"#utility.yul\":11466:11470   */\n      dup3\n        /* \"#utility.yul\":11463:11484   */\n      or\n        /* \"#utility.yul\":11455:11484   */\n      swap1\n      pop\n        /* \"#utility.yul\":11195:11490   */\n      swap3\n      swap2\n      pop\n      pop\n      jump\t// out\n        /* \"#utility.yul\":11495:12890   */\n    tag_21:\n        /* \"#utility.yul\":11612:11649   */\n      tag_236\n        /* \"#utility.yul\":11645:11648   */\n      dup3\n        /* \"#utility.yul\":11612:11649   */\n      tag_86\n      jump\t// in\n    tag_236:\n        /* \"#utility.yul\":11714:11732   */\n      0xffffffffffffffff\n        /* \"#utility.yul\":11706:11712   */\n      dup2\n        /* \"#utility.yul\":11703:11733   */\n      gt\n        /* \"#utility.yul\":11700:11756   */\n      iszero\n      tag_237\n      jumpi\n        /* \"#utility.yul\":11736:11754   */\n      tag_238\n      tag_25\n      jump\t// in\n    tag_238:\n        /* \"#utility.yul\":11700:11756   */\n    tag_237:\n        /* \"#utility.yul\":11780:11818   */\n      tag_239\n        /* \"#utility.yul\":11812:11816   */\n      dup3\n        /* \"#utility.yul\":11806:11817   */\n      sload\n        /* \"#utility.yul\":11780:11818   */\n      tag_43\n      jump\t// in\n    tag_239:\n        /* \"#utility.yul\":11865:11932   */\n      tag_240\n        /* \"#utility.yul\":11925:11931   */\n      dup3\n        /* \"#utility.yul\":11917:11923   */\n      dup3\n        /* \"#utility.yul\":11911:11915   */\n      dup6\n        /* \"#utility.yul\":11865:11932   */\n      tag_110\n      jump\t// in\n    tag_240:\n        /* \"#utility.yul\":11959:11960   */\n      0x00\n        /* \"#utility.yul\":11983:11987   */\n      0x20\n        /* \"#utility.yul\":11970:11987   */\n      swap1\n      pop\n        /* \"#utility.yul\":12015:12017   */\n      0x1f\n        /* \"#utility.yul\":12007:12013   */\n      dup4\n        /* \"#utility.yul\":12004:12018   */\n      gt\n        /* \"#utility.yul\":12032:12033   */\n      0x01\n        /* \"#utility.yul\":12027:12645   */\n      dup2\n      eq\n      tag_242\n      jumpi\n        /* \"#utility.yul\":12689:12690   */\n      0x00\n        /* \"#utility.yul\":12706:12712   */\n      dup5\n        /* \"#utility.yul\":12703:12780   */\n      iszero\n      tag_243\n      jumpi\n        /* \"#utility.yul\":12755:12764   */\n      dup3\n        /* \"#utility.yul\":12750:12753   */\n      dup8\n        /* \"#utility.yul\":12746:12765   */\n      add\n        /* \"#utility.yul\":12740:12766   */\n      mload\n        /* \"#utility.yul\":12731:12766   */\n      swap1\n      pop\n        /* \"#utility.yul\":12703:12780   */\n    tag_243:\n        /* \"#utility.yul\":12806:12873   */\n      tag_244\n        /* \"#utility.yul\":12866:12872   */\n      dup6\n        /* \"#utility.yul\":12859:12864   */\n      dup3\n        /* \"#utility.yul\":12806:12873   */\n      tag_113\n      jump\t// in\n    tag_244:\n        /* \"#utility.yul\":12800:12804   */\n      dup7\n        /* \"#utility.yul\":12793:12874   */\n      sstore\n        /* \"#utility.yul\":12662:12884   */\n      pop\n        /* \"#utility.yul\":11997:12884   */\n      jump(tag_241)\n        /* \"#utility.yul\":12027:12645   */\n    tag_242:\n        /* \"#utility.yul\":12079:12083   */\n      0x1f\n        /* \"#utility.yul\":12075:12084   */\n      not\n        /* \"#utility.yul\":12067:12073   */\n      dup5\n        /* \"#utility.yul\":12063:12085   */\n      and\n        /* \"#utility.yul\":12113:12150   */\n      tag_245\n        /* \"#utility.yul\":12145:12149   */\n      dup7\n        /* \"#utility.yul\":12113:12150   */\n      tag_99\n      jump\t// in\n    tag_245:\n        /* \"#utility.yul\":12172:12173   */\n      0x00\n        /* \"#utility.yul\":12186:12394   */\n    tag_246:\n        /* \"#utility.yul\":12200:12207   */\n      dup3\n        /* \"#utility.yul\":12197:12198   */\n      dup2\n        /* \"#utility.yul\":12194:12208   */\n      lt\n        /* \"#utility.yul\":12186:12394   */\n      iszero\n      tag_248\n      jumpi\n        /* \"#utility.yul\":12279:12288   */\n      dup5\n        /* \"#utility.yul\":12274:12277   */\n      dup10\n        /* \"#utility.yul\":12270:12289   */\n      add\n        /* \"#utility.yul\":12264:12290   */\n      mload\n        /* \"#utility.yul\":12256:12262   */\n      dup3\n        /* \"#utility.yul\":12249:12291   */\n      sstore\n        /* \"#utility.yul\":12330:12331   */\n      0x01\n        /* \"#utility.yul\":12322:12328   */\n      dup3\n        /* \"#utility.yul\":12318:12332   */\n      add\n        /* \"#utility.yul\":12308:12332   */\n      swap2\n      pop\n        /* \"#utility.yul\":12377:12379   */\n      0x20\n        /* \"#utility.yul\":12366:12375   */\n      dup6\n        /* \"#utility.yul\":12362:12380   */\n      add\n        /* \"#utility.yul\":12349:12380   */\n      swap5\n      pop\n        /* \"#utility.yul\":12223:12227   */\n      0x20\n        /* \"#utility.yul\":12220:12221   */\n      dup2\n        /* \"#utility.yul\":12216:12228   */\n      add\n        /* \"#utility.yul\":12211:12228   */\n      swap1\n      pop\n        /* \"#utility.yul\":12186:12394   */\n      jump(tag_246)\n    tag_248:\n        /* \"#utility.yul\":12422:12428   */\n      dup7\n        /* \"#utility.yul\":12413:12420   */\n      dup4\n        /* \"#utility.yul\":12410:12429   */\n      lt\n        /* \"#utility.yul\":12407:12586   */\n      iszero\n      tag_249\n      jumpi\n        /* \"#utility.yul\":12480:12489   */\n      dup5\n        /* \"#utility.yul\":12475:12478   */\n      dup10\n        /* \"#utility.yul\":12471:12490   */\n      add\n        /* \"#utility.yul\":12465:12491   */\n      mload\n        /* \"#utility.yul\":12523:12571   */\n      tag_250\n        /* \"#utility.yul\":12565:12569   */\n      0x1f\n        /* \"#utility.yul\":12557:12563   */\n      dup10\n        /* \"#utility.yul\":12553:12570   */\n      and\n        /* \"#utility.yul\":12542:12551   */\n      dup3\n        /* \"#utility.yul\":12523:12571   */\n      tag_112\n      jump\t// in\n    tag_250:\n        /* \"#utility.yul\":12515:12521   */\n      dup4\n        /* \"#utility.yul\":12508:12572   */\n      sstore\n        /* \"#utility.yul\":12430:12586   */\n      pop\n        /* \"#utility.yul\":12407:12586   */\n    tag_249:\n        /* \"#utility.yul\":12632:12633   */\n      0x01\n        /* \"#utility.yul\":12628:12629   */\n      0x02\n        /* \"#utility.yul\":12620:12626   */\n      dup9\n        /* \"#utility.yul\":12616:12630   */\n      mul\n        /* \"#utility.yul\":12612:12634   */\n      add\n        /* \"#utility.yul\":12606:12610   */\n      dup9\n        /* \"#utility.yul\":12599:12635   */\n      sstore\n        /* \"#utility.yul\":12034:12645   */\n      pop\n      pop\n      pop\n        /* \"#utility.yul\":11997:12884   */\n    tag_241:\n      pop\n        /* \"#utility.yul\":11587:12890   */\n      pop\n      pop\n      pop\n        /* \"#utility.yul\":11495:12890   */\n      pop\n      pop\n      jump\t// out\n        /* \"#utility.yul\":12896:13076   */\n    tag_36:\n        /* \"#utility.yul\":12944:13021   */\n      0x4e487b7100000000000000000000000000000000000000000000000000000000\n        /* \"#utility.yul\":12941:12942   */\n      0x00\n        /* \"#utility.yul\":12934:13022   */\n      mstore\n        /* \"#utility.yul\":13041:13045   */\n      0x32\n        /* \"#utility.yul\":13038:13039   */\n      0x04\n        /* \"#utility.yul\":13031:13046   */\n      mstore\n        /* \"#utility.yul\":13065:13069   */\n      0x24\n        /* \"#utility.yul\":13062:13063   */\n      0x00\n        /* \"#utility.yul\":13055:13070   */\n      revert\n        /* \"#utility.yul\":13082:13262   */\n    tag_114:\n        /* \"#utility.yul\":13130:13207   */\n      0x4e487b7100000000000000000000000000000000000000000000000000000000\n        /* \"#utility.yul\":13127:13128   */\n      0x00\n        /* \"#utility.yul\":13120:13208   */\n      mstore\n        /* \"#utility.yul\":13227:13231   */\n      0x11\n        /* \"#utility.yul\":13224:13225   */\n      0x04\n        /* \"#utility.yul\":13217:13232   */\n      mstore\n        /* \"#utility.yul\":13251:13255   */\n      0x24\n        /* \"#utility.yul\":13248:13249   */\n      0x00\n        /* \"#utility.yul\":13241:13256   */\n      revert\n        /* \"#utility.yul\":13268:13501   */\n    tag_51:\n        /* \"#utility.yul\":13307:13310   */\n      0x00\n        /* \"#utility.yul\":13330:13354   */\n      tag_254\n        /* \"#utility.yul\":13348:13353   */\n      dup3\n        /* \"#utility.yul\":13330:13354   */\n      tag_84\n      jump\t// in\n    tag_254:\n        /* \"#utility.yul\":13321:13354   */\n      swap2\n      pop\n        /* \"#utility.yul\":13376:13442   */\n      0xffffffffffffffffffffffffffffffffffffffffffffffffffffffffffffffff\n        /* \"#utility.yul\":13369:13374   */\n      dup3\n        /* \"#utility.yul\":13366:13443   */\n      sub\n        /* \"#utility.yul\":13363:13466   */\n      tag_255\n      jumpi\n        /* \"#utility.yul\":13446:13464   */\n      tag_256\n      tag_114\n      jump\t// in\n    tag_256:\n        /* \"#utility.yul\":13363:13466   */\n    tag_255:\n        /* \"#utility.yul\":13493:13494   */\n      0x01\n        /* \"#utility.yul\":13486:13491   */\n      dup3\n        /* \"#utility.yul\":13482:13495   */\n      add\n        /* \"#utility.yul\":13475:13495   */\n      swap1\n      pop\n        /* \"#utility.yul\":13268:13501   */\n      swap2\n      swap1\n      pop\n      jump\t// out\n\n    auxdata: 0xa264697066735822122038aa981dfbe4cbb8019ec2859b3ae2fddc30fd53fa07decae2e6c3b03a81fc0464736f6c634300080f0033\n}\n",
				"bytecode": {
					"linkReferences": {},
					"object": "608060405234801561001057600080fd5b50610d87806100206000396000f3fe608060405234801561001057600080fd5b50600436106100415760003560e01c806320df458114610046578063a31662d214610062578063aaba290714610080575b600080fd5b610060600480360381019061005b91906106ca565b61009c565b005b61006a610220565b6040516100779190610910565b60405180910390f35b61009a6004803603810190610095919061095e565b610520565b005b6000808054905090506000604051806080016040528083815260200186868080601f016020809104026020016040519081016040528093929190818152602001838380828437600081840152601f19601f8201169050808301925050505050505081526020018415158152602001600081525090806001815401808255809150506001900390600052602060002090600402016000909190919091506000820151816000015560208201518160010190816101579190610bd9565b5060408201518160020160006101000a81548160ff021916908315150217905550606082015181600301555050336001600083815260200190815260200160002060006101000a81548173ffffffffffffffffffffffffffffffffffffffff021916908373ffffffffffffffffffffffffffffffffffffffff160217905550803373ffffffffffffffffffffffffffffffffffffffff167f1f54e1ba1832d428fbd7e7792beaf62b1fc5a382c207ffd614209c1413e94fda60405160405180910390a350505050565b60606000808054905067ffffffffffffffff8111156102425761024161099e565b5b60405190808252806020026020018201604052801561027b57816020015b6102686105f9565b8152602001906001900390816102605790505b5090506000805b600080549050811015610466573373ffffffffffffffffffffffffffffffffffffffff166001600083815260200190815260200160002060009054906101000a900473ffffffffffffffffffffffffffffffffffffffff1673ffffffffffffffffffffffffffffffffffffffff16148015610333575060001515600082815481106103105761030f610cab565b5b906000526020600020906004020160020160009054906101000a900460ff161515145b15610453576000818154811061034c5761034b610cab565b5b90600052602060002090600402016040518060800160405290816000820154815260200160018201805461037f906109fc565b80601f01602080910402602001604051908101604052809291908181526020018280546103ab906109fc565b80156103f85780601f106103cd576101008083540402835291602001916103f8565b820191906000526020600020905b8154815290600101906020018083116103db57829003601f168201915b505050505081526020016002820160009054906101000a900460ff1615151515815260200160038201548152505083838151811061043957610438610cab565b5b6020026020010181905250818061044f90610d09565b9250505b808061045e90610d09565b915050610282565b5060008167ffffffffffffffff8111156104835761048261099e565b5b6040519080825280602002602001820160405280156104bc57816020015b6104a96105f9565b8152602001906001900390816104a15790505b50905060005b82811015610516578381815181106104dd576104dc610cab565b5b60200260200101518282815181106104f8576104f7610cab565b5b6020026020010181905250808061050e90610d09565b9150506104c2565b5082935050505090565b3373ffffffffffffffffffffffffffffffffffffffff166001600084815260200190815260200160002060009054906101000a900473ffffffffffffffffffffffffffffffffffffffff1673ffffffffffffffffffffffffffffffffffffffff16146105b8576040517f42f9ad2a00000000000000000000000000000000000000000000000000000000815260040160405180910390fd5b80600083815481106105cd576105cc610cab565b5b906000526020600020906004020160020160006101000a81548160ff0219169083151502179055505050565b60405180608001604052806000815260200160608152602001600015158152602001600081525090565b600080fd5b600080fd5b600080fd5b600080fd5b600080fd5b60008083601f8401126106525761065161062d565b5b8235905067ffffffffffffffff81111561066f5761066e610632565b5b60208301915083600182028301111561068b5761068a610637565b5b9250929050565b60008115159050919050565b6106a781610692565b81146106b257600080fd5b50565b6000813590506106c48161069e565b92915050565b6000806000604084860312156106e3576106e2610623565b5b600084013567ffffffffffffffff81111561070157610700610628565b5b61070d8682870161063c565b93509350506020610720868287016106b5565b9150509250925092565b600081519050919050565b600082825260208201905092915050565b6000819050602082019050919050565b6000819050919050565b61076981610756565b82525050565b600081519050919050565b600082825260208201905092915050565b60005b838110156107a957808201518184015260208101905061078e565b838111156107b8576000848401525b50505050565b6000601f19601f8301169050919050565b60006107da8261076f565b6107e4818561077a565b93506107f481856020860161078b565b6107fd816107be565b840191505092915050565b61081181610692565b82525050565b600060808301600083015161082f6000860182610760565b506020830151848203602086015261084782826107cf565b915050604083015161085c6040860182610808565b50606083015161086f6060860182610760565b508091505092915050565b60006108868383610817565b905092915050565b6000602082019050919050565b60006108a68261072a565b6108b08185610735565b9350836020820285016108c285610746565b8060005b858110156108fe57848403895281516108df858261087a565b94506108ea8361088e565b925060208a019950506001810190506108c6565b50829750879550505050505092915050565b6000602082019050818103600083015261092a818461089b565b905092915050565b61093b81610756565b811461094657600080fd5b50565b60008135905061095881610932565b92915050565b6000806040838503121561097557610974610623565b5b600061098385828601610949565b9250506020610994858286016106b5565b9150509250929050565b7f4e487b7100000000000000000000000000000000000000000000000000000000600052604160045260246000fd5b7f4e487b7100000000000000000000000000000000000000000000000000000000600052602260045260246000fd5b60006002820490506001821680610a1457607f821691505b602082108103610a2757610a266109cd565b5b50919050565b60008190508160005260206000209050919050565b60006020601f8301049050919050565b600082821b905092915050565b600060088302610a8f7fffffffffffffffffffffffffffffffffffffffffffffffffffffffffffffffff82610a52565b610a998683610a52565b95508019841693508086168417925050509392505050565b6000819050919050565b6000610ad6610ad1610acc84610756565b610ab1565b610756565b9050919050565b6000819050919050565b610af083610abb565b610b04610afc82610add565b848454610a5f565b825550505050565b600090565b610b19610b0c565b610b24818484610ae7565b505050565b5b81811015610b4857610b3d600082610b11565b600181019050610b2a565b5050565b601f821115610b8d57610b5e81610a2d565b610b6784610a42565b81016020851015610b76578190505b610b8a610b8285610a42565b830182610b29565b50505b505050565b600082821c905092915050565b6000610bb060001984600802610b92565b1980831691505092915050565b6000610bc98383610b9f565b9150826002028217905092915050565b610be28261076f565b67ffffffffffffffff811115610bfb57610bfa61099e565b5b610c0582546109fc565b610c10828285610b4c565b600060209050601f831160018114610c435760008415610c31578287015190505b610c3b8582610bbd565b865550610ca3565b601f198416610c5186610a2d565b60005b82811015610c7957848901518255600182019150602085019450602081019050610c54565b86831015610c965784890151610c92601f891682610b9f565b8355505b6001600288020188555050505b505050505050565b7f4e487b7100000000000000000000000000000000000000000000000000000000600052603260045260246000fd5b7f4e487b7100000000000000000000000000000000000000000000000000000000600052601160045260246000fd5b6000610d1482610756565b91507fffffffffffffffffffffffffffffffffffffffffffffffffffffffffffffffff8203610d4657610d45610cda565b5b60018201905091905056fea264697066735822122038aa981dfbe4cbb8019ec2859b3ae2fddc30fd53fa07decae2e6c3b03a81fc0464736f6c634300080f0033",
					"opcodes": "PUSH1 0x80 PUSH1 0x40 MSTORE CALLVALUE DUP1 ISZERO PUSH2 0x10 JUMPI PUSH1 0x0 DUP1 REVERT JUMPDEST POP PUSH2 0xD87 DUP1 PUSH2 0x20 PUSH1 0x0 CODECOPY PUSH1 0x0 RETURN INVALID PUSH1 0x80 PUSH1 0x40 MSTORE CALLVALUE DUP1 ISZERO PUSH2 0x10 JUMPI PUSH1 0x0 DUP1 REVERT JUMPDEST POP PUSH1 0x4 CALLDATASIZE LT PUSH2 0x41 JUMPI PUSH1 0x0 CALLDATALOAD PUSH1 0xE0 SHR DUP1 PUSH4 0x20DF4581 EQ PUSH2 0x46 JUMPI DUP1 PUSH4 0xA31662D2 EQ PUSH2 0x62 JUMPI DUP1 PUSH4 0xAABA2907 EQ PUSH2 0x80 JUMPI JUMPDEST PUSH1 0x0 DUP1 REVERT JUMPDEST PUSH2 0x60 PUSH1 0x4 DUP1 CALLDATASIZE SUB DUP2 ADD SWAP1 PUSH2 0x5B SWAP2 SWAP1 PUSH2 0x6CA JUMP JUMPDEST PUSH2 0x9C JUMP JUMPDEST STOP JUMPDEST PUSH2 0x6A PUSH2 0x220 JUMP JUMPDEST PUSH1 0x40 MLOAD PUSH2 0x77 SWAP2 SWAP1 PUSH2 0x910 JUMP JUMPDEST PUSH1 0x40 MLOAD DUP1 SWAP2 SUB SWAP1 RETURN JUMPDEST PUSH2 0x9A PUSH1 0x4 DUP1 CALLDATASIZE SUB DUP2 ADD SWAP1 PUSH2 0x95 SWAP2 SWAP1 PUSH2 0x95E JUMP JUMPDEST PUSH2 0x520 JUMP JUMPDEST STOP JUMPDEST PUSH1 0x0 DUP1 DUP1 SLOAD SWAP1 POP SWAP1 POP PUSH1 0x0 PUSH1 0x40 MLOAD DUP1 PUSH1 0x80 ADD PUSH1 0x40 MSTORE DUP1 DUP4 DUP2 MSTORE PUSH1 0x20 ADD DUP7 DUP7 DUP1 DUP1 PUSH1 0x1F ADD PUSH1 0x20 DUP1 SWAP2 DIV MUL PUSH1 0x20 ADD PUSH1 0x40 MLOAD SWAP1 DUP2 ADD PUSH1 0x40 MSTORE DUP1 SWAP4 SWAP3 SWAP2 SWAP1 DUP2 DUP2 MSTORE PUSH1 0x20 ADD DUP4 DUP4 DUP1 DUP3 DUP5 CALLDATACOPY PUSH1 0x0 DUP2 DUP5 ADD MSTORE PUSH1 0x1F NOT PUSH1 0x1F DUP3 ADD AND SWAP1 POP DUP1 DUP4 ADD SWAP3 POP POP POP POP POP POP POP DUP2 MSTORE PUSH1 0x20 ADD DUP5 ISZERO ISZERO DUP2 MSTORE PUSH1 0x20 ADD PUSH1 0x0 DUP2 MSTORE POP SWAP1 DUP1 PUSH1 0x1 DUP2 SLOAD ADD DUP1 DUP3 SSTORE DUP1 SWAP2 POP POP PUSH1 0x1 SWAP1 SUB SWAP1 PUSH1 0x0 MSTORE PUSH1 0x20 PUSH1 0x0 KECCAK256 SWAP1 PUSH1 0x4 MUL ADD PUSH1 0x0 SWAP1 SWAP2 SWAP1 SWAP2 SWAP1 SWAP2 POP PUSH1 0x0 DUP3 ADD MLOAD DUP2 PUSH1 0x0 ADD SSTORE PUSH1 0x20 DUP3 ADD MLOAD DUP2 PUSH1 0x1 ADD SWAP1 DUP2 PUSH2 0x157 SWAP2 SWAP1 PUSH2 0xBD9 JUMP JUMPDEST POP PUSH1 0x40 DUP3 ADD MLOAD DUP2 PUSH1 0x2 ADD PUSH1 0x0 PUSH2 0x100 EXP DUP2 SLOAD DUP2 PUSH1 0xFF MUL NOT AND SWAP1 DUP4 ISZERO ISZERO MUL OR SWAP1 SSTORE POP PUSH1 0x60 DUP3 ADD MLOAD DUP2 PUSH1 0x3 ADD SSTORE POP POP CALLER PUSH1 0x1 PUSH1 0x0 DUP4 DUP2 MSTORE PUSH1 0x20 ADD SWAP1 DUP2 MSTORE PUSH1 0x20 ADD PUSH1 0x0 KECCAK256 PUSH1 0x0 PUSH2 0x100 EXP DUP2 SLOAD DUP2 PUSH20 0xFFFFFFFFFFFFFFFFFFFFFFFFFFFFFFFFFFFFFFFF MUL NOT AND SWAP1 DUP4 PUSH20 0xFFFFFFFFFFFFFFFFFFFFFFFFFFFFFFFFFFFFFFFF AND MUL OR SWAP1 SSTORE POP DUP1 CALLER PUSH20 0xFFFFFFFFFFFFFFFFFFFFFFFFFFFFFFFFFFFFFFFF AND PUSH32 0x1F54E1BA1832D428FBD7E7792BEAF62B1FC5A382C207FFD614209C1413E94FDA PUSH1 0x40 MLOAD PUSH1 0x40 MLOAD DUP1 SWAP2 SUB SWAP1 LOG3 POP POP POP POP JUMP JUMPDEST PUSH1 0x60 PUSH1 0x0 DUP1 DUP1 SLOAD SWAP1 POP PUSH8 0xFFFFFFFFFFFFFFFF DUP2 GT ISZERO PUSH2 0x242 JUMPI PUSH2 0x241 PUSH2 0x99E JUMP JUMPDEST JUMPDEST PUSH1 0x40 MLOAD SWAP1 DUP1 DUP3 MSTORE DUP1 PUSH1 0x20 MUL PUSH1 0x20 ADD DUP3 ADD PUSH1 0x40 MSTORE DUP1 ISZERO PUSH2 0x27B JUMPI DUP2 PUSH1 0x20 ADD JUMPDEST PUSH2 0x268 PUSH2 0x5F9 JUMP JUMPDEST DUP2 MSTORE PUSH1 0x20 ADD SWAP1 PUSH1 0x1 SWAP1 SUB SWAP1 DUP2 PUSH2 0x260 JUMPI SWAP1 POP JUMPDEST POP SWAP1 POP PUSH1 0x0 DUP1 JUMPDEST PUSH1 0x0 DUP1 SLOAD SWAP1 POP DUP2 LT ISZERO PUSH2 0x466 JUMPI CALLER PUSH20 0xFFFFFFFFFFFFFFFFFFFFFFFFFFFFFFFFFFFFFFFF AND PUSH1 0x1 PUSH1 0x0 DUP4 DUP2 MSTORE PUSH1 0x20 ADD SWAP1 DUP2 MSTORE PUSH1 0x20 ADD PUSH1 0x0 KECCAK256 PUSH1 0x0 SWAP1 SLOAD SWAP1 PUSH2 0x100 EXP SWAP1 DIV PUSH20 0xFFFFFFFFFFFFFFFFFFFFFFFFFFFFFFFFFFFFFFFF AND PUSH20 0xFFFFFFFFFFFFFFFFFFFFFFFFFFFFFFFFFFFFFFFF AND EQ DUP1 ISZERO PUSH2 0x333 JUMPI POP PUSH1 0x0 ISZERO ISZERO PUSH1 0x0 DUP3 DUP2 SLOAD DUP2 LT PUSH2 0x310 JUMPI PUSH2 0x30F PUSH2 0xCAB JUMP JUMPDEST JUMPDEST SWAP1 PUSH1 0x0 MSTORE PUSH1 0x20 PUSH1 0x0 KECCAK256 SWAP1 PUSH1 0x4 MUL ADD PUSH1 0x2 ADD PUSH1 0x0 SWAP1 SLOAD SWAP1 PUSH2 0x100 EXP SWAP1 DIV PUSH1 0xFF AND ISZERO ISZERO EQ JUMPDEST ISZERO PUSH2 0x453 JUMPI PUSH1 0x0 DUP2 DUP2 SLOAD DUP2 LT PUSH2 0x34C JUMPI PUSH2 0x34B PUSH2 0xCAB JUMP JUMPDEST JUMPDEST SWAP1 PUSH1 0x0 MSTORE PUSH1 0x20 PUSH1 0x0 KECCAK256 SWAP1 PUSH1 0x4 MUL ADD PUSH1 0x40 MLOAD DUP1 PUSH1 0x80 ADD PUSH1 0x40 MSTORE SWAP1 DUP2 PUSH1 0x0 DUP3 ADD SLOAD DUP2 MSTORE PUSH1 0x20 ADD PUSH1 0x1 DUP3 ADD DUP1 SLOAD PUSH2 0x37F SWAP1 PUSH2 0x9FC JUMP JUMPDEST DUP1 PUSH1 0x1F ADD PUSH1 0x20 DUP1 SWAP2 DIV MUL PUSH1 0x20 ADD PUSH1 0x40 MLOAD SWAP1 DUP2 ADD PUSH1 0x40 MSTORE DUP1 SWAP3 SWAP2 SWAP1 DUP2 DUP2 MSTORE PUSH1 0x20 ADD DUP3 DUP1 SLOAD PUSH2 0x3AB SWAP1 PUSH2 0x9FC JUMP JUMPDEST DUP1 ISZERO PUSH2 0x3F8 JUMPI DUP1 PUSH1 0x1F LT PUSH2 0x3CD JUMPI PUSH2 0x100 DUP1 DUP4 SLOAD DIV MUL DUP4 MSTORE SWAP2 PUSH1 0x20 ADD SWAP2 PUSH2 0x3F8 JUMP JUMPDEST DUP3 ADD SWAP2 SWAP1 PUSH1 0x0 MSTORE PUSH1 0x20 PUSH1 0x0 KECCAK256 SWAP1 JUMPDEST DUP2 SLOAD DUP2 MSTORE SWAP1 PUSH1 0x1 ADD SWAP1 PUSH1 0x20 ADD DUP1 DUP4 GT PUSH2 0x3DB JUMPI DUP3 SWAP1 SUB PUSH1 0x1F AND DUP3 ADD SWAP2 JUMPDEST POP POP POP POP POP DUP2 MSTORE PUSH1 0x20 ADD PUSH1 0x2 DUP3 ADD PUSH1 0x0 SWAP1 SLOAD SWAP1 PUSH2 0x100 EXP SWAP1 DIV PUSH1 0xFF AND ISZERO ISZERO ISZERO ISZERO DUP2 MSTORE PUSH1 0x20 ADD PUSH1 0x3 DUP3 ADD SLOAD DUP2 MSTORE POP POP DUP4 DUP4 DUP2 MLOAD DUP2 LT PUSH2 0x439 JUMPI PUSH2 0x438 PUSH2 0xCAB JUMP JUMPDEST JUMPDEST PUSH1 0x20 MUL PUSH1 0x20 ADD ADD DUP2 SWAP1 MSTORE POP DUP2 DUP1 PUSH2 0x44F SWAP1 PUSH2 0xD09 JUMP JUMPDEST SWAP3 POP POP JUMPDEST DUP1 DUP1 PUSH2 0x45E SWAP1 PUSH2 0xD09 JUMP JUMPDEST SWAP2 POP POP PUSH2 0x282 JUMP JUMPDEST POP PUSH1 0x0 DUP2 PUSH8 0xFFFFFFFFFFFFFFFF DUP2 GT ISZERO PUSH2 0x483 JUMPI PUSH2 0x482 PUSH2 0x99E JUMP JUMPDEST JUMPDEST PUSH1 0x40 MLOAD SWAP1 DUP1 DUP3 MSTORE DUP1 PUSH1 0x20 MUL PUSH1 0x20 ADD DUP3 ADD PUSH1 0x40 MSTORE DUP1 ISZERO PUSH2 0x4BC JUMPI DUP2 PUSH1 0x20 ADD JUMPDEST PUSH2 0x4A9 PUSH2 0x5F9 JUMP JUMPDEST DUP2 MSTORE PUSH1 0x20 ADD SWAP1 PUSH1 0x1 SWAP1 SUB SWAP1 DUP2 PUSH2 0x4A1 JUMPI SWAP1 POP JUMPDEST POP SWAP1 POP PUSH1 0x0 JUMPDEST DUP3 DUP2 LT ISZERO PUSH2 0x516 JUMPI DUP4 DUP2 DUP2 MLOAD DUP2 LT PUSH2 0x4DD JUMPI PUSH2 0x4DC PUSH2 0xCAB JUMP JUMPDEST JUMPDEST PUSH1 0x20 MUL PUSH1 0x20 ADD ADD MLOAD DUP3 DUP3 DUP2 MLOAD DUP2 LT PUSH2 0x4F8 JUMPI PUSH2 0x4F7 PUSH2 0xCAB JUMP JUMPDEST JUMPDEST PUSH1 0x20 MUL PUSH1 0x20 ADD ADD DUP2 SWAP1 MSTORE POP DUP1 DUP1 PUSH2 0x50E SWAP1 PUSH2 0xD09 JUMP JUMPDEST SWAP2 POP POP PUSH2 0x4C2 JUMP JUMPDEST POP DUP3 SWAP4 POP POP POP POP SWAP1 JUMP JUMPDEST CALLER PUSH20 0xFFFFFFFFFFFFFFFFFFFFFFFFFFFFFFFFFFFFFFFF AND PUSH1 0x1 PUSH1 0x0 DUP5 DUP2 MSTORE PUSH1 0x20 ADD SWAP1 DUP2 MSTORE PUSH1 0x20 ADD PUSH1 0x0 KECCAK256 PUSH1 0x0 SWAP1 SLOAD SWAP1 PUSH2 0x100 EXP SWAP1 DIV PUSH20 0xFFFFFFFFFFFFFFFFFFFFFFFFFFFFFFFFFFFFFFFF AND PUSH20 0xFFFFFFFFFFFFFFFFFFFFFFFFFFFFFFFFFFFFFFFF AND EQ PUSH2 0x5B8 JUMPI PUSH1 0x40 MLOAD PUSH32 0x42F9AD2A00000000000000000000000000000000000000000000000000000000 DUP2 MSTORE PUSH1 0x4 ADD PUSH1 0x40 MLOAD DUP1 SWAP2 SUB SWAP1 REVERT JUMPDEST DUP1 PUSH1 0x0 DUP4 DUP2 SLOAD DUP2 LT PUSH2 0x5CD JUMPI PUSH2 0x5CC PUSH2 0xCAB JUMP JUMPDEST JUMPDEST SWAP1 PUSH1 0x0 MSTORE PUSH1 0x20 PUSH1 0x0 KECCAK256 SWAP1 PUSH1 0x4 MUL ADD PUSH1 0x2 ADD PUSH1 0x0 PUSH2 0x100 EXP DUP2 SLOAD DUP2 PUSH1 0xFF MUL NOT AND SWAP1 DUP4 ISZERO ISZERO MUL OR SWAP1 SSTORE POP POP POP JUMP JUMPDEST PUSH1 0x40 MLOAD DUP1 PUSH1 0x80 ADD PUSH1 0x40 MSTORE DUP1 PUSH1 0x0 DUP2 MSTORE PUSH1 0x20 ADD PUSH1 0x60 DUP2 MSTORE PUSH1 0x20 ADD PUSH1 0x0 ISZERO ISZERO DUP2 MSTORE PUSH1 0x20 ADD PUSH1 0x0 DUP2 MSTORE POP SWAP1 JUMP JUMPDEST PUSH1 0x0 DUP1 REVERT JUMPDEST PUSH1 0x0 DUP1 REVERT JUMPDEST PUSH1 0x0 DUP1 REVERT JUMPDEST PUSH1 0x0 DUP1 REVERT JUMPDEST PUSH1 0x0 DUP1 REVERT JUMPDEST PUSH1 0x0 DUP1 DUP4 PUSH1 0x1F DUP5 ADD SLT PUSH2 0x652 JUMPI PUSH2 0x651 PUSH2 0x62D JUMP JUMPDEST JUMPDEST DUP3 CALLDATALOAD SWAP1 POP PUSH8 0xFFFFFFFFFFFFFFFF DUP2 GT ISZERO PUSH2 0x66F JUMPI PUSH2 0x66E PUSH2 0x632 JUMP JUMPDEST JUMPDEST PUSH1 0x20 DUP4 ADD SWAP2 POP DUP4 PUSH1 0x1 DUP3 MUL DUP4 ADD GT ISZERO PUSH2 0x68B JUMPI PUSH2 0x68A PUSH2 0x637 JUMP JUMPDEST JUMPDEST SWAP3 POP SWAP3 SWAP1 POP JUMP JUMPDEST PUSH1 0x0 DUP2 ISZERO ISZERO SWAP1 POP SWAP2 SWAP1 POP JUMP JUMPDEST PUSH2 0x6A7 DUP2 PUSH2 0x692 JUMP JUMPDEST DUP2 EQ PUSH2 0x6B2 JUMPI PUSH1 0x0 DUP1 REVERT JUMPDEST POP JUMP JUMPDEST PUSH1 0x0 DUP2 CALLDATALOAD SWAP1 POP PUSH2 0x6C4 DUP2 PUSH2 0x69E JUMP JUMPDEST SWAP3 SWAP2 POP POP JUMP JUMPDEST PUSH1 0x0 DUP1 PUSH1 0x0 PUSH1 0x40 DUP5 DUP7 SUB SLT ISZERO PUSH2 0x6E3 JUMPI PUSH2 0x6E2 PUSH2 0x623 JUMP JUMPDEST JUMPDEST PUSH1 0x0 DUP5 ADD CALLDATALOAD PUSH8 0xFFFFFFFFFFFFFFFF DUP2 GT ISZERO PUSH2 0x701 JUMPI PUSH2 0x700 PUSH2 0x628 JUMP JUMPDEST JUMPDEST PUSH2 0x70D DUP7 DUP3 DUP8 ADD PUSH2 0x63C JUMP JUMPDEST SWAP4 POP SWAP4 POP POP PUSH1 0x20 PUSH2 0x720 DUP7 DUP3 DUP8 ADD PUSH2 0x6B5 JUMP JUMPDEST SWAP2 POP POP SWAP3 POP SWAP3 POP SWAP3 JUMP JUMPDEST PUSH1 0x0 DUP2 MLOAD SWAP1 POP SWAP2 SWAP1 POP JUMP JUMPDEST PUSH1 0x0 DUP3 DUP3 MSTORE PUSH1 0x20 DUP3 ADD SWAP1 POP SWAP3 SWAP2 POP POP JUMP JUMPDEST PUSH1 0x0 DUP2 SWAP1 POP PUSH1 0x20 DUP3 ADD SWAP1 POP SWAP2 SWAP1 POP JUMP JUMPDEST PUSH1 0x0 DUP2 SWAP1 POP SWAP2 SWAP1 POP JUMP JUMPDEST PUSH2 0x769 DUP2 PUSH2 0x756 JUMP JUMPDEST DUP3 MSTORE POP POP JUMP JUMPDEST PUSH1 0x0 DUP2 MLOAD SWAP1 POP SWAP2 SWAP1 POP JUMP JUMPDEST PUSH1 0x0 DUP3 DUP3 MSTORE PUSH1 0x20 DUP3 ADD SWAP1 POP SWAP3 SWAP2 POP POP JUMP JUMPDEST PUSH1 0x0 JUMPDEST DUP4 DUP2 LT ISZERO PUSH2 0x7A9 JUMPI DUP1 DUP3 ADD MLOAD DUP2 DUP5 ADD MSTORE PUSH1 0x20 DUP2 ADD SWAP1 POP PUSH2 0x78E JUMP JUMPDEST DUP4 DUP2 GT ISZERO PUSH2 0x7B8 JUMPI PUSH1 0x0 DUP5 DUP5 ADD MSTORE JUMPDEST POP POP POP POP JUMP JUMPDEST PUSH1 0x0 PUSH1 0x1F NOT PUSH1 0x1F DUP4 ADD AND SWAP1 POP SWAP2 SWAP1 POP JUMP JUMPDEST PUSH1 0x0 PUSH2 0x7DA DUP3 PUSH2 0x76F JUMP JUMPDEST PUSH2 0x7E4 DUP2 DUP6 PUSH2 0x77A JUMP JUMPDEST SWAP4 POP PUSH2 0x7F4 DUP2 DUP6 PUSH1 0x20 DUP7 ADD PUSH2 0x78B JUMP JUMPDEST PUSH2 0x7FD DUP2 PUSH2 0x7BE JUMP JUMPDEST DUP5 ADD SWAP2 POP POP SWAP3 SWAP2 POP POP JUMP JUMPDEST PUSH2 0x811 DUP2 PUSH2 0x692 JUMP JUMPDEST DUP3 MSTORE POP POP JUMP JUMPDEST PUSH1 0x0 PUSH1 0x80 DUP4 ADD PUSH1 0x0 DUP4 ADD MLOAD PUSH2 0x82F PUSH1 0x0 DUP7 ADD DUP3 PUSH2 0x760 JUMP JUMPDEST POP PUSH1 0x20 DUP4 ADD MLOAD DUP5 DUP3 SUB PUSH1 0x20 DUP7 ADD MSTORE PUSH2 0x847 DUP3 DUP3 PUSH2 0x7CF JUMP JUMPDEST SWAP2 POP POP PUSH1 0x40 DUP4 ADD MLOAD PUSH2 0x85C PUSH1 0x40 DUP7 ADD DUP3 PUSH2 0x808 JUMP JUMPDEST POP PUSH1 0x60 DUP4 ADD MLOAD PUSH2 0x86F PUSH1 0x60 DUP7 ADD DUP3 PUSH2 0x760 JUMP JUMPDEST POP DUP1 SWAP2 POP POP SWAP3 SWAP2 POP POP JUMP JUMPDEST PUSH1 0x0 PUSH2 0x886 DUP4 DUP4 PUSH2 0x817 JUMP JUMPDEST SWAP1 POP SWAP3 SWAP2 POP POP JUMP JUMPDEST PUSH1 0x0 PUSH1 0x20 DUP3 ADD SWAP1 POP SWAP2 SWAP1 POP JUMP JUMPDEST PUSH1 0x0 PUSH2 0x8A6 DUP3 PUSH2 0x72A JUMP JUMPDEST PUSH2 0x8B0 DUP2 DUP6 PUSH2 0x735 JUMP JUMPDEST SWAP4 POP DUP4 PUSH1 0x20 DUP3 MUL DUP6 ADD PUSH2 0x8C2 DUP6 PUSH2 0x746 JUMP JUMPDEST DUP1 PUSH1 0x0 JUMPDEST DUP6 DUP2 LT ISZERO PUSH2 0x8FE JUMPI DUP5 DUP5 SUB DUP10 MSTORE DUP2 MLOAD PUSH2 0x8DF DUP6 DUP3 PUSH2 0x87A JUMP JUMPDEST SWAP5 POP PUSH2 0x8EA DUP4 PUSH2 0x88E JUMP JUMPDEST SWAP3 POP PUSH1 0x20 DUP11 ADD SWAP10 POP POP PUSH1 0x1 DUP2 ADD SWAP1 POP PUSH2 0x8C6 JUMP JUMPDEST POP DUP3 SWAP8 POP DUP8 SWAP6 POP POP POP POP POP POP SWAP3 SWAP2 POP POP JUMP JUMPDEST PUSH1 0x0 PUSH1 0x20 DUP3 ADD SWAP1 POP DUP2 DUP2 SUB PUSH1 0x0 DUP4 ADD MSTORE PUSH2 0x92A DUP2 DUP5 PUSH2 0x89B JUMP JUMPDEST SWAP1 POP SWAP3 SWAP2 POP POP JUMP JUMPDEST PUSH2 0x93B DUP2 PUSH2 0x756 JUMP JUMPDEST DUP2 EQ PUSH2 0x946 JUMPI PUSH1 0x0 DUP1 REVERT JUMPDEST POP JUMP JUMPDEST PUSH1 0x0 DUP2 CALLDATALOAD SWAP1 POP PUSH2 0x958 DUP2 PUSH2 0x932 JUMP JUMPDEST SWAP3 SWAP2 POP POP JUMP JUMPDEST PUSH1 0x0 DUP1 PUSH1 0x40 DUP4 DUP6 SUB SLT ISZERO PUSH2 0x975 JUMPI PUSH2 0x974 PUSH2 0x623 JUMP JUMPDEST JUMPDEST PUSH1 0x0 PUSH2 0x983 DUP6 DUP3 DUP7 ADD PUSH2 0x949 JUMP JUMPDEST SWAP3 POP POP PUSH1 0x20 PUSH2 0x994 DUP6 DUP3 DUP7 ADD PUSH2 0x6B5 JUMP JUMPDEST SWAP2 POP POP SWAP3 POP SWAP3 SWAP1 POP JUMP JUMPDEST PUSH32 0x4E487B7100000000000000000000000000000000000000000000000000000000 PUSH1 0x0 MSTORE PUSH1 0x41 PUSH1 0x4 MSTORE PUSH1 0x24 PUSH1 0x0 REVERT JUMPDEST PUSH32 0x4E487B7100000000000000000000000000000000000000000000000000000000 PUSH1 0x0 MSTORE PUSH1 0x22 PUSH1 0x4 MSTORE PUSH1 0x24 PUSH1 0x0 REVERT JUMPDEST PUSH1 0x0 PUSH1 0x2 DUP3 DIV SWAP1 POP PUSH1 0x1 DUP3 AND DUP1 PUSH2 0xA14 JUMPI PUSH1 0x7F DUP3 AND SWAP2 POP JUMPDEST PUSH1 0x20 DUP3 LT DUP2 SUB PUSH2 0xA27 JUMPI PUSH2 0xA26 PUSH2 0x9CD JUMP JUMPDEST JUMPDEST POP SWAP2 SWAP1 POP JUMP JUMPDEST PUSH1 0x0 DUP2 SWAP1 POP DUP2 PUSH1 0x0 MSTORE PUSH1 0x20 PUSH1 0x0 KECCAK256 SWAP1 POP SWAP2 SWAP1 POP JUMP JUMPDEST PUSH1 0x0 PUSH1 0x20 PUSH1 0x1F DUP4 ADD DIV SWAP1 POP SWAP2 SWAP1 POP JUMP JUMPDEST PUSH1 0x0 DUP3 DUP3 SHL SWAP1 POP SWAP3 SWAP2 POP POP JUMP JUMPDEST PUSH1 0x0 PUSH1 0x8 DUP4 MUL PUSH2 0xA8F PUSH32 0xFFFFFFFFFFFFFFFFFFFFFFFFFFFFFFFFFFFFFFFFFFFFFFFFFFFFFFFFFFFFFFFF DUP3 PUSH2 0xA52 JUMP JUMPDEST PUSH2 0xA99 DUP7 DUP4 PUSH2 0xA52 JUMP JUMPDEST SWAP6 POP DUP1 NOT DUP5 AND SWAP4 POP DUP1 DUP7 AND DUP5 OR SWAP3 POP POP POP SWAP4 SWAP3 POP POP POP JUMP JUMPDEST PUSH1 0x0 DUP2 SWAP1 POP SWAP2 SWAP1 POP JUMP JUMPDEST PUSH1 0x0 PUSH2 0xAD6 PUSH2 0xAD1 PUSH2 0xACC DUP5 PUSH2 0x756 JUMP JUMPDEST PUSH2 0xAB1 JUMP JUMPDEST PUSH2 0x756 JUMP JUMPDEST SWAP1 POP SWAP2 SWAP1 POP JUMP JUMPDEST PUSH1 0x0 DUP2 SWAP1 POP SWAP2 SWAP1 POP JUMP JUMPDEST PUSH2 0xAF0 DUP4 PUSH2 0xABB JUMP JUMPDEST PUSH2 0xB04 PUSH2 0xAFC DUP3 PUSH2 0xADD JUMP JUMPDEST DUP5 DUP5 SLOAD PUSH2 0xA5F JUMP JUMPDEST DUP3 SSTORE POP POP POP POP JUMP JUMPDEST PUSH1 0x0 SWAP1 JUMP JUMPDEST PUSH2 0xB19 PUSH2 0xB0C JUMP JUMPDEST PUSH2 0xB24 DUP2 DUP5 DUP5 PUSH2 0xAE7 JUMP JUMPDEST POP POP POP JUMP JUMPDEST JUMPDEST DUP2 DUP2 LT ISZERO PUSH2 0xB48 JUMPI PUSH2 0xB3D PUSH1 0x0 DUP3 PUSH2 0xB11 JUMP JUMPDEST PUSH1 0x1 DUP2 ADD SWAP1 POP PUSH2 0xB2A JUMP JUMPDEST POP POP JUMP JUMPDEST PUSH1 0x1F DUP3 GT ISZERO PUSH2 0xB8D JUMPI PUSH2 0xB5E DUP2 PUSH2 0xA2D JUMP JUMPDEST PUSH2 0xB67 DUP5 PUSH2 0xA42 JUMP JUMPDEST DUP2 ADD PUSH1 0x20 DUP6 LT ISZERO PUSH2 0xB76 JUMPI DUP2 SWAP1 POP JUMPDEST PUSH2 0xB8A PUSH2 0xB82 DUP6 PUSH2 0xA42 JUMP JUMPDEST DUP4 ADD DUP3 PUSH2 0xB29 JUMP JUMPDEST POP POP JUMPDEST POP POP POP JUMP JUMPDEST PUSH1 0x0 DUP3 DUP3 SHR SWAP1 POP SWAP3 SWAP2 POP POP JUMP JUMPDEST PUSH1 0x0 PUSH2 0xBB0 PUSH1 0x0 NOT DUP5 PUSH1 0x8 MUL PUSH2 0xB92 JUMP JUMPDEST NOT DUP1 DUP4 AND SWAP2 POP POP SWAP3 SWAP2 POP POP JUMP JUMPDEST PUSH1 0x0 PUSH2 0xBC9 DUP4 DUP4 PUSH2 0xB9F JUMP JUMPDEST SWAP2 POP DUP3 PUSH1 0x2 MUL DUP3 OR SWAP1 POP SWAP3 SWAP2 POP POP JUMP JUMPDEST PUSH2 0xBE2 DUP3 PUSH2 0x76F JUMP JUMPDEST PUSH8 0xFFFFFFFFFFFFFFFF DUP2 GT ISZERO PUSH2 0xBFB JUMPI PUSH2 0xBFA PUSH2 0x99E JUMP JUMPDEST JUMPDEST PUSH2 0xC05 DUP3 SLOAD PUSH2 0x9FC JUMP JUMPDEST PUSH2 0xC10 DUP3 DUP3 DUP6 PUSH2 0xB4C JUMP JUMPDEST PUSH1 0x0 PUSH1 0x20 SWAP1 POP PUSH1 0x1F DUP4 GT PUSH1 0x1 DUP2 EQ PUSH2 0xC43 JUMPI PUSH1 0x0 DUP5 ISZERO PUSH2 0xC31 JUMPI DUP3 DUP8 ADD MLOAD SWAP1 POP JUMPDEST PUSH2 0xC3B DUP6 DUP3 PUSH2 0xBBD JUMP JUMPDEST DUP7 SSTORE POP PUSH2 0xCA3 JUMP JUMPDEST PUSH1 0x1F NOT DUP5 AND PUSH2 0xC51 DUP7 PUSH2 0xA2D JUMP JUMPDEST PUSH1 0x0 JUMPDEST DUP3 DUP2 LT ISZERO PUSH2 0xC79 JUMPI DUP5 DUP10 ADD MLOAD DUP3 SSTORE PUSH1 0x1 DUP3 ADD SWAP2 POP PUSH1 0x20 DUP6 ADD SWAP5 POP PUSH1 0x20 DUP2 ADD SWAP1 POP PUSH2 0xC54 JUMP JUMPDEST DUP7 DUP4 LT ISZERO PUSH2 0xC96 JUMPI DUP5 DUP10 ADD MLOAD PUSH2 0xC92 PUSH1 0x1F DUP10 AND DUP3 PUSH2 0xB9F JUMP JUMPDEST DUP4 SSTORE POP JUMPDEST PUSH1 0x1 PUSH1 0x2 DUP9 MUL ADD DUP9 SSTORE POP POP POP JUMPDEST POP POP POP POP POP POP JUMP JUMPDEST PUSH32 0x4E487B7100000000000000000000000000000000000000000000000000000000 PUSH1 0x0 MSTORE PUSH1 0x32 PUSH1 0x4 MSTORE PUSH1 0x24 PUSH1 0x0 REVERT JUMPDEST PUSH32 0x4E487B7100000000000000000000000000000000000000000000000000000000 PUSH1 0x0 MSTORE PUSH1 0x11 PUSH1 0x4 MSTORE PUSH1 0x24 PUSH1 0x0 REVERT JUMPDEST PUSH1 0x0 PUSH2 0xD14 DUP3 PUSH2 0x756 JUMP JUMPDEST SWAP2 POP PUSH32 0xFFFFFFFFFFFFFFFFFFFFFFFFFFFFFFFFFFFFFFFFFFFFFFFFFFFFFFFFFFFFFFFF DUP3 SUB PUSH2 0xD46 JUMPI PUSH2 0xD45 PUSH2 0xCDA JUMP JUMPDEST JUMPDEST PUSH1 0x1 DUP3 ADD SWAP1 POP SWAP2 SWAP1 POP JUMP INVALID LOG2 PUSH5 0x6970667358 0x22 SLT KECCAK256 CODESIZE 0xAA SWAP9 SAR 0xFB 0xE4 0xCB 0xB8 ADD SWAP15 0xC2 DUP6 SWAP12 GASPRICE 0xE2 REVERT 0xDC ADDRESS REVERT MSTORE8 STATICCALL SMOD 0xDE 0xCA 0xE2 0xE6 0xC3 0xB0 GASPRICE DUP2 0xFC DIV PUSH5 0x736F6C6343 STOP ADDMOD 0xF STOP CALLER "
				},
				"gasEstimates": {
					"creation": {
						"codeDepositCost": "692600",
						"executionCost": "728",
						"totalCost": "693328"
					},
					"external": {
						"addTask(string,bool)": "infinite",
						"deleteTask(uint256,bool)": "29319",
						"getTask()": "infinite"
					}
				},
				"methodIdentifiers": {
					"addTask(string,bool)": "20df4581",
					"deleteTask(uint256,bool)": "aaba2907",
					"getTask()": "a31662d2"
				}
			},
			"storageLayout": {
				"storage": [
					{
						"astId": 16,
						"contract": "contracts/Todo.sol:Todo",
						"label": "tasks",
						"offset": 0,
						"slot": "0",
						"type": "t_array(t_struct(Task)12_storage)dyn_storage"
					},
					{
						"astId": 20,
						"contract": "contracts/Todo.sol:Todo",
						"label": "taskOwnerByTaskId",
						"offset": 0,
						"slot": "1",
						"type": "t_mapping(t_uint256,t_address)"
					}
				],
				"types": {
					"t_address": {
						"encoding": "inplace",
						"label": "address",
						"numberOfBytes": "20"
					},
					"t_array(t_struct(Task)12_storage)dyn_storage": {
						"base": "t_struct(Task)12_storage",
						"encoding": "dynamic_array",
						"label": "struct Todo.Task[]",
						"numberOfBytes": "32"
					},
					"t_bool": {
						"encoding": "inplace",
						"label": "bool",
						"numberOfBytes": "1"
					},
					"t_mapping(t_uint256,t_address)": {
						"encoding": "mapping",
						"key": "t_uint256",
						"label": "mapping(uint256 => address)",
						"numberOfBytes": "32",
						"value": "t_address"
					},
					"t_string_storage": {
						"encoding": "bytes",
						"label": "string",
						"numberOfBytes": "32"
					},
					"t_struct(Task)12_storage": {
						"encoding": "inplace",
						"label": "struct Todo.Task",
						"members": [
							{
								"astId": 5,
								"contract": "contracts/Todo.sol:Todo",
								"label": "id",
								"offset": 0,
								"slot": "0",
								"type": "t_uint256"
							},
							{
								"astId": 7,
								"contract": "contracts/Todo.sol:Todo",
								"label": "text",
								"offset": 0,
								"slot": "1",
								"type": "t_string_storage"
							},
							{
								"astId": 9,
								"contract": "contracts/Todo.sol:Todo",
								"label": "isDone",
								"offset": 0,
								"slot": "2",
								"type": "t_bool"
							},
							{
								"astId": 11,
								"contract": "contracts/Todo.sol:Todo",
								"label": "modifiedCount",
								"offset": 0,
								"slot": "3",
								"type": "t_uint256"
							}
						],
						"numberOfBytes": "128"
					},
					"t_uint256": {
						"encoding": "inplace",
						"label": "uint256",
						"numberOfBytes": "32"
					}
				}
			},
			"userdoc": {
				"kind": "user",
				"methods": {},
				"version": 1
			}
		}
	}
}